:06000000024E19026EFF22
:03001300026F1E5B
:03001B000276A7C3
:03002B000276B7A3
:03003B0002769FAB
:03004B00026E7EC4
:03006B000275A477
:030073000276AF63
:03007B000275B05B
:10008300026E5B90078D1218DB900791EBF0A3EAE9
:10009300F0A3E9F0A2AFE433900798F0C2AFE4FB1A
:1000A3007A08F9F890078DE0FCA3E0FDA3E0FEA336
:1000B300E0FF1216E9AB0790078DA3A3E0FEA3E0D0
:1000C300FFEE5407FEE4FDFC78081217A2AA07907E
:1000D300078DA3A3A3E0FFE4FEFDFC78021217A2A1
:1000E300AE03EE25E0FEEA1313543F4E906272F026
:1000F300AE02EEC4333354C04F906271F0AFC79079
:100103000796E4F0A3EFF043C70890087D7401F06D
:10011300A37487F0A374EFF0900791E0FBA3E0FAD8
:10012300A3E0F9C002A3E0FCA3E0FD90087DA3E0F7
:10013300FAA3E0F5828A83D002121962900796A38C
:10014300E0F5C7A3E024FF92AF2290078DEBF0A365
:10015300EAF0A3E9F0A31218DBA2AFE43390079708
:10016300F0C2AF900790E0FCA3E0FDA3E0FEA3E0A4
:10017300FF780F1217A2EF5407FFAB07900790A366
:10018300A3E0FEA3E0FFEE547FFEE42FFFEE3480F6
:10019300FE900796E5C7F0E054F8AC034CF5C79022
:1001A3000794E0FCA3E0FDC004C005AA06A9077BF1
:1001B30001C00290078DA3E0FAA3E0F8AC027D0131
:1001C300D002D007D00612156A900796E0F5C7A3B0
:0601D300E024FF92AF22C0
:0407000000010001F3
:100800007B00782075C9A875C958E8030303035411
:1008100007F5C7F59FE8540F2323234480F585751A
:10082000840075831075820079107A80759201E4D6
:1008300093A3759200F0A3DAF3D9EF759201758551
:1008400062758472EB23F0758562758470E0548064
:1008500070FB7401F000E0548070FB7592017585A7
:1008600062758472EB23F0758562758471E4F07AA9
:100870001079007C087D00E5C74408F5C7C000C0BA
:100880000312089DD003D000E5C754F7F5C7EB70FD
:1008900002080B080BEB941F601902080475920004
:1008A0007583084383807582F0E4737583087582CD
:1008B00000E473002275AE0100E5AE548070FA22A8
:1008C0007B0110AF027B00C083C082C085C084C0A2
:1008D00092EAF583E9F582759201758562758470F7
:1008E000E0548070FB7402F0EC60277A4079047564
:1008F0009200E0A3759201758562758473F0D9EF5B
:100900007400F0758562758470E0544070FBDADD28
:10091000DCD9ED6029ED54FC0303FD7904759200E8
:10092000E0A3759201758562758473F0D9EF740048
:10093000F0758562758470E0544070FBDDDDD09207
:10094000D084D085D082D083EB6002D2AF2275C92B
:10095000A875C9587C087B007A0879B57D0B75921B
:10096000008A838982E493A3AA83A9828C838B82E1
:10097000F0A3AC83AB821DED70E47C087BF07A08B9
:1009800079C07D8E7592008A838982E493A3AA83BD
:10099000A9828C838B82F0A3AC83AB821DED70E4C3
:1009A00022C2AF75C90812094E1208000209AFE44D
:0A09B000F5C975C90B80FE0209A10C
:10100000F920E73624F950037907E4F42402FBE5DC
:1010100082158270021583DBF6E024FB501BE96029
:1010200014E4F0E582158270021583E004F0B40A3E
:1010300008E4F0D9EE7401F00A22C2D522ED33ECB7
:101040003392D5FA602AB4FF33EDC2E77BFF600626
:101050007A107962E4227A10796B20D5047A1079BB
:1010600066224E614E002B494E46002D494E4600E9
:10107000E47A08F0A3DAFC7B00740722C083C08204
:10108000ECC0E0EDC0E0EEC0E0EFC0E0EA75F010CB
:10109000A4CAABF075F04DA42BFBE435F0FCEA24B8
:1010A00010FAEB34C5FBEC34D9FCEDC2E7FF75F068
:1010B00056A4F42411C5F0F434C58FF0A42AE5F049
:1010C0003BE43CF020E714121410D0E0FFD0E0FE27
:1010D000D0E0FDD0E0FC1213438014F4041214108D
:1010E000D0E0FFD0E0FED0E0FDD0E0FC12123AD01C
:1010F00082D083E0FAEDD2E7CD33EC332482FBE4F7
:10110000C3CF33CFCE33CECD33CD33DBF37B0775B7
:10111000F00A846004F0A31B0AE5F0F0A38FF074DA
:101120000AA4FFACF08EF0740AA42CFEACF05001BF
:101130000C8DF0740AA42CFDE435F0F0A3DBDE7412
:101140000722021485E86480F8E933E8336011046B
:1011500060F0ED33EC337009E8FCE9FDEAFEEBFFEB
:10116000220460DED3EB9FEA9EE99DE8C2E78CF0A3
:10117000C2F795F0400CE8CCF8E9CDF9EACEFAEBED
:10118000CFFB12145085D0F05804700320D5B3E87B
:101190000470075002B2D502148F92D5EC0460F7A8
:1011A000E4CCC0E0C398F8603B94186008400DD0D0
:1011B000E0FB021467E4FBFAC9FC8028E830E4068F
:1011C000E4C9FBE4CAFCE830E305E4C9CACBFCE8A7
:1011D00054076010F8C3E913F9EA13FAEB13FBECB8
:1011E00013FCD8F130F52FC3E49CFCEF9BFFEE9A83
:1011F000FEED99FDD0E0FBEF4E4D4C701222DB036B
:1012000002148CEC2CFCEF33FFEE33FEED33FDEDDE
:1012100030E7EB021467EF2BFFEE3AFEED39FDD01D
:10122000E0FB50130BBB000302148FED13FDEE1314
:10123000FEEF13FFEC13FC021467EC4D6011E8495C
:101240007017ED33EC3304600DE4FCFFFEFD22E982
:1012500033E8330470F802148512145058046009FE
:10126000E4CC2481500628500902148F2840030240
:10127000148CC0E0EB4A7044B98006D0E0FB021445
:101280007BEF4E701CBD8008EBFFEAFEE9FD80EBB2
:10129000E98DF0A4FEE5F0021323E9CDF9EAFEEBB7
:1012A000FFEF89F0A4FCE5F0CE89F0A42EFFE43531
:1012B000F0CD89F0A42DFEE435F08067EF4E700587
:1012C000BD80D780C3EF8BF0A4ACF0EE8BF0A42CE4
:1012D000FCE435F0F8EF8AF0A42CE5F038FCE433B8
:1012E000CB8DF0A42CFCE5F03BF8EE8AF0A42CFCAE
:1012F000E5F038F8E433CF89F0A42CFCE5F038CFE2
:101300003400CE89F0A42FFFE5F03EFEE433C98D12
:10131000F0A42EFEE5F039CD8AF0A42FFFE5F03ED3
:10132000FEE43DFD33D0E0FB50070BBB000F021481
:101330008FEC2CFCEF33FFEE33FEED33FD02146730
:1013400002148FEC5D046005E859047003021485F3
:10135000121450580460F6EC4860F2EC7004FDFE84
:10136000FF22C860DB2481C85009C3986002500680
:1013700002148C9850CAF582E9294B4A7005AB8259
:1013800002147B75F0007C1A7880C3EF9BEE9AED17
:1013900099400DC3EF9BFFEE9AFEED99FDE842F0F8
:1013A000DC23ACF0D0E0FFD0E0FED0E0FDAB82204B
:1013B000E7101BEB60BAEC2CFCEF33FFEE33FEEDD5
:1013C00033FD021467E803F830E705C0F075F0005C
:1013D000EF2FFFEE33FEED33FD40B830E7C280AAB9
:1013E0003F8000004120000042C80000447A000015
:1013F000461C400047C35000497424004B18968097
:101400004CBEBC205A0E1BCA6753C21C749DC5AE8D
:10141000FB60065407601C232312143EEB54386013
:101420000912142A12143912123AECF8EDF9EEFAF4
:10143000EFCB22EB12143980F1543803241C9013A3
:10144000E0FE93FC0EEE93FD0EEE930ECE93FF2284
:10145000E9D2E7C933E833F892D5EDD2E7CD33ECE2
:1014600033FC5002B2D522EC30E7100FBF000C0E57
:10147000BE00080DBD00040BEB6014A2D5EB13FCFD
:10148000ED92E7FD2274FFFCFDFEFF22E480F8A24E
:10149000D574FF13FC7D80E480EFE709F608DFFADE
:1014A0008046E709F208DFFA803E88828C83E709EC
:1014B000F0A3DFFA8032E309F608DFFA8078E30967
:1014C000F208DFFA807088828C83E309F0A3DFFAE8
:1014D000806489828A83E0A3F608DFFA80588982D3
:1014E0008A83E0A3F208DFFA804C80D280FA80C6BB
:1014F00080D4806980F28033801080A680EA809A50
:1015000080A880DA80E280CA803389828A83ECFAFC
:10151000E493A3C8C582C8CCC583CCF0A3C8C58258
:10152000C8CCC583CCDFE9DEE7800D89828A83E4FD
:1015300093A3F608DFF9ECFAA9F0EDFB2289828A81
:1015400083ECFAE0A3C8C582C8CCC583CCF0A3C89D
:10155000C582C8CCC583CCDFEADEE880DB89828A1D
:1015600083E493A3F208DFF980CC88F0EF60010EEA
:101570004E60C388F0ED2402B4040050B9F582EB4C
:101580002402B4040050AF23234582239014EA734D
:10159000BB010689828A83E0225002E722BBFE0259
:1015A000E32289828A83E49322BB010CE58229F538
:1015B00082E5833AF583E0225006E92582F8E622A7
:1015C000BBFE06E92582F8E222E58229F582E58361
:1015D0003AF583E49322BB010689828A83F0225084
:1015E00002F722BBFE01F322F8BB010DE58229F5CB
:1015F00082E5833AF583E8F0225006E92582C8F6B1
:1016000022BBFE05E92582C8F222BC000BBE0029E0
:10161000EF8DF084FFADF022E4CCF875F008EF2FE9
:10162000FFEE33FEEC33FCEE9DEC984005FCEE9DA6
:10163000FE0FD5F0E9E4CEFD22EDF8F5F0EE8420C2
:10164000D21CFEADF075F008EF2FFFED33FD400723
:10165000985006D5F0F222C398FD0FD5F0EA22A3E8
:10166000F8E0C5F025F0F0E582158270021583E000
:10167000C838F0E822BB0110E58229F582E5833AFB
:10168000F583E0F5F0A3E0225009E92582F886F021
:1016900008E622BBFE0AE92582F8E2F5F008E2221C
:1016A000E5832AF583E993F5F0A3E9932275F00821
:1016B000758200EF2FFFEE33FECD33CDCC33CCC59A
:1016C0008233C5829BED9AEC99E58298400CF582B5
:1016D000EE9BFEED9AFDEC99FC0FD5F0D6E4CEFB27
:1016E000E4CDFAE4CCF9A88222B800C1B90059BA15
:1016F000002DEC8BF084CFCECDFCE5F0CBF9781843
:10170000EF2FFFEE33FEED33FDEC33FCEB33FB103C
:10171000D703994004EB99FB0FD8E5E4F9FA227856
:1017200018EF2FFFEE33FEED33FDEC33FCC933C968
:1017300010D7059BE99A4007EC9BFCE99AF90FD872
:10174000E0E4C9FAE4CCFB2275F010EF2FFFEE3392
:10175000FEED33FDCC33CCC833C810D7079BEC9AD1
:10176000E899400AED9BFDEC9AFCE899F80FD5F05A
:10177000DAE4CDFBE4CCFAE4C8F922EB9FF5F0EA19
:101780009E42F0E99D42F0EC6480C864809845F088
:1017900022EB9FF5F0EA9E42F0E99D42F0E89C457D
:1017A000F022E8600FECC313FCED13FDEE13FEEF27
:1017B00013FFD8F122E8600FEFC333FFEE33FEEDE5
:1017C00033FDEC33FCD8F122BB010789828A830206
:1017D00019C95005E9F80219BDBBFE05E9F802195F
:1017E000D589828A830219E1BB010DE58229F58240
:1017F000E5833AF5830219C95007E92582F80219F1
:10180000BDBBFE07E92582F80219D5E58229F582DC
:10181000E5833AF5830219E1BB010789828A8302D5
:1018200018DB5005E9F8021A27BBFE05E9F8021A91
:101830003322BB010DE58229F582E5833AF5830267
:1018400018DB5007E92582F8021A27BBFE07E925B5
:1018500082F8021A3322BB010789828A830219FEA9
:101860005005E9F80219F1BBFE05E9F8021A0A89E8
:10187000828A83021A17BB010DE58229F582E5836E
:101880003AF5830219FE5007E92582F80219F1BBE7
:10189000FE07E92582F8021A0AE58229F582E58326
:1018A0003AF583021A177401FF3395E0FEFDFCA39D
:1018B000A3A3E0CF2FF0E582158270021583E0CE5E
:1018C0003EF0E582158270021583E0CD3DF0E582A1
:1018D000158270021583E0CC3CF022ECF0A3EDF011
:1018E000A3EEF0A3EFF022A8828583F0D083D0820C
:1018F0001218FE1218FE1218FE1218FEE473E4937A
:10190000A3C583C5F0C583C8C582C8F0A3C583C578
:10191000F0C583C8C582C822F8E0FBA3A3E0F9257F
:10192000F0F0E582158270021583E0FA38F022EBC0
:10193000F0A3EAF0A3E9F022D083D082F8E4937018
:1019400012740193700DA3A393F8740193F5828828
:1019500083E4737402936860EFA3A3A380DF8A8398
:101960008982E473EC8EF0A4CCC5F0CCCDF8EFA462
:10197000CEC5F02DFDE43CFCE8A42EC8C5F03DFD2D
:10198000E43CFCEFA4FFE5F028FEE43DFDE43CFC74
:1019900022EF4E6012EF60010EEDBB010B89828ACF
:1019A00083F0A3DFFCDEFA2289F05007F709DFFCA1
:1019B000A9F022BBFEFCF309DFFCA9F022E6FC083B
:1019C000E6FD08E6FE08E6FF22E0FCA3E0FDA3E05A
:1019D000FEA3E0FF22E2FC08E2FD08E2FE08E2FFCF
:1019E00022E493FC740193FD740293FE740393FF4D
:1019F00022E6FB08E6F908E6FA08E6CBF822E0F86A
:101A0000A3E0F9A3E0FAA3E0FB22E2FB08E2F90875
:101A1000E2FA08E2CBF822E493F8740193F9740235
:101A200093FA740393FB22ECF608EDF608EEF60841
:101A3000EFF622ECF208EDF208EEF208EFF222E502
:101A40000824BDF582E43407F583E00508229007F9
:101A5000BA3007039007BDE475F00112191802159A
:101A6000902000E97F2ED2008018EF540F2490D4EC
:101A70003440D4FF30040BEF24BFB41A00500324C9
:101A800061FFE50960021509050CE50C7002050B04
:101A900030070E9007BAE475F001121918EF02151D
:101AA000D6026C9F7403D2078003E4C207F5089046
:101AB00007BA12192FE4F509F50BF50CE5096007D3
:101AC0007F20121A8280F5750AFFC201C200C2028D
:101AD000C203C205C206C208121A4EFF700D3007BB
:101AE000057F00121A93AF0CAE0B22B4255FC2D54E
:101AF000C204121A4EFF24D0B40A00501A75F00A1C
:101B0000780930D50508B6FF0106C6A426F620D50B
:101B1000047002D20380D924CFB41A00EF5004C25B
:101B2000E5D204021D85D20180C6D20080C0D20257
:101B300080BCD2D580BAD20580B47F20121A822010
:101B400002077401B5090040F1121A3FFF121A8210
:101B5000021ABCD208D2068095121A3FFB121A3F15
:101B6000FA121A3FF94A4B700679837A1E7BFF20DE
:101B7000022EE509602A7E008E827583001215A967
:101B800060060EEE650A70F0C2D5EBC0E0EAC0E078
:101B9000E9C0E0EE121DE6D0E0F9D0E0FAD0E0FBBB
:101BA000121590FF60AAEBC0E0EAC0E0E9C0E012C5
:101BB0001A82D0E02401F9D0E03400FAD0E0FBE54D
:101BC0000A0460DCD50AD98087D20280A2121DC81F
:101BD00060F7E50A700104121000A90A600DE50A19
:101BE000600914F50A121E70EF60F3EA30E702F4A0
:101BF00004C3995079EAF4250A0430E701E404F5B6
:101C00000A800D121DC860C1EA050A250A121000DB
:101C1000EA9007E9F030E701E4250A04D50A042038
:101C2000050114121DE6E4C0E0121E709007E9E001
:101C3000601320E70714F0121A6A802204F0D0E043
:101C400014C0E07F00121A6AE50A6007121A6115D3
:101C50000A800B300503121A61D0E0021ABCD0E0F2
:101C60000480C4121DC8609EE50A0412100090078B
:101C7000E9EAF0E50A2005026001042404121DE6E9
:101C800074FF04C0E0121E70121A6AE50A200502F1
:101C90006003121A61D0E0B50AE87F45121A749009
:101CA00007E9E07F2B30E7047F2DF404C0E0121A2F
:101CB00082D0E075F00A84C0F0121A6BD0E0121ADC
:101CC0006B021ABC791080027908C206C20880082B
:101CD000D2D5790A8004790AC2D5E50A047002F5E2
:101CE0000AE4FAFDFEFF121A3FFC7B0820011312E2
:101CF0001A3FFD7B1030000A121A3FFE121A3FFFF6
:101D00007B20EC3382D592D55013C3E43000069F7C
:101D1000FFE49EFEE42001039DFDE49CFCE4CBF87F
:101D2000C201EC700CCFCECDCCE824F8F870F38073
:101D300017C3EF33FFEE33FEED33FDEC33FCEB3333
:101D4000FB994002FB0FD8E9EB300105F8D0E0C465
:101D500048B201C0E00AEC4D4E4F78207B0070C2C3
:101D6000EAB50A0040BCC0E0121DE8D0F0D0E02087
:101D70000104C4C0E0C4B201C0F0121A6BD0F0D5A7
:101D8000F0EB021ABC1219381B59531CC4581B2AF9
:101D90004C1B26421CC84F1CD0441CD0491B3F433F
:101DA0001CD6551C03461C63451BCD471EA3501B68
:101DB0002E2D1B322E1B552B1B36231B53201E8C06
:101DC0002A1AEE4800001B4DE50AB4FF03750A0607
:101DD000121A3FFC121A3FFD121A3FFE121A3FFF61
:101DE0009007E202103D790AA2D5200314300509BC
:101DF000B910020404B9080104A2D520060250015A
:101E0000042002689202B509005034C0E07F2030FF
:101E100003197F30A20272067205500F121E3FC2D4
:101E200002C206C205C2087F30800F300503E9C038
:101E3000E0121A82300503D0E0F9D0E0B509CC30C9
:101E400005177F30B9100C121A827F583004077FB3
:101E5000788003B90803121A823002057F2D021A16
:101E6000827F202008F87F2B2006F322920280CF69
:101E70007F00B40700500B24E2F582E43407F583B9
:101E8000E0FF22286E756C6C2900D201121A3F30D7
:101E900001F8C201780930D50108F6021AEE2D507A
:101EA000434958121A3F2403B405004001E4901E30
:101EB0009E93121A73743A121A73D20375090402AC
:101EC0001CC49007371218DBE47FB07E04FDFC9041
:101ED0000737E0F8A3E0F9A3E0FAA3E0FBC3121789
:101EE00091700FE5C65440C4131354032405FF0238
:101EF0002115E47F607E09FDFC900737E0F8A3E040
:101F0000F9A3E0FAA3E0FBC3121791700FE5C654E2
:101F100040C4131354032406FF022115E47FC07E3E
:101F200012FDFC900737E0F8A3E0F9A3E0FAA3E084
:101F3000FBC3121791700FE5C65440C4131354032A
:101F40002407FF022115E47F807E25FDFC900737E2
:101F5000E0F8A3E0F9A3E0FAA3E0FBC31217917045
:101F60000FE5C65440C4131354032408FF0221157F
:101F7000E47F407E38FDFC900737E0F8A3E0F9A34A
:101F8000E0FAA3E0FBC3121791700FE5C65440C4FA
:101F9000131354032408FF022115E4FF7E4BFDFCBC
:101FA000900737E0F8A3E0F9A3E0FAA3E0FBC3123F
:101FB0001791700FE5C65440C4131354032409FF4E
:101FC000022115E47F807E70FDFC900737E0F8A3C6
:101FD000E0F9A3E0FAA3E0FBC3121791700FE5C686
:101FE0005440C4131354032409FF022115E4FF7E57
:101FF00096FDFC900737E0F8A3E0F9A3E0FAA3E030
:10200000FBC3121791700FE5C65440C41313540359
:10201000240AFF022115E4FF7EE1FDFC900737E072
:10202000F8A3E0F9A3E0FAA3E0FBC3121791700F45
:10203000E5C65440C413135403240AFF0221157F3C
:10204000007E2C7D017C00900737E0F8A3E0F9A327
:10205000E0FAA3E0FBC3121791700FE5C65440C429
:1020600013135403240BFF0221157F007EC27D0150
:102070007C00900737E0F8A3E0F9A3E0FAA3E0FBC7
:10208000C3121791700FE5C65440C41313540324B0
:102090000BFF0221157F007E587D027C00900737E0
:1020A000E0F8A3E0F9A3E0FAA3E0FBC312179170F4
:1020B0000EE5C65440C413135403240CFF80567F0E
:1020C000007E847D037C00900737E0F8A3E0F9A34D
:1020D000E0FAA3E0FBC3121791700EE5C65440C4AA
:1020E00013135403240CFF802C7F007EB07D047CEE
:1020F00000900737E0F8A3E0F9A3E0FAA3E0FBC300
:10210000121791700EE5C65440C413135403240DE6
:10211000FF80027F008FC5E47FB07E04FDFC900746
:1021200037E0F8A3E0F9A3E0FAA3E0FBC3121791AC
:1021300070057F3B0222D7E47F607E09FDFC90079B
:1021400037E0F8A3E0F9A3E0FAA3E0FBC31217918C
:1021500070057F3B0222D7E47FC07E12FDFC900712
:1021600037E0F8A3E0F9A3E0FAA3E0FBC31217916C
:1021700070057F3B0222D7E47F807E25FDFC90071F
:1021800037E0F8A3E0F9A3E0FAA3E0FBC31217914C
:1021900070057F3B0222D7E47F407E38FDFC90072C
:1021A00037E0F8A3E0F9A3E0FAA3E0FBC31217912C
:1021B00070057FD80222D7E4FF7E4BFDFC900737E5
:1021C000E0F8A3E0F9A3E0FAA3E0FBC312179170D3
:1021D000057F3B0222D7E47F807E70FDFC900737AD
:1021E000E0F8A3E0F9A3E0FAA3E0FBC312179170B3
:1021F000057FD80222D7E4FF7E96FDFC900737E0EA
:10220000F8A3E0F9A3E0FAA3E0FBC312179170056D
:102210007F3B0222D7E4FF7EE1FDFC900737E0F828
:10222000A3E0F9A3E0FAA3E0FBC312179170057FC6
:10223000D80222D77F007E2C7D017C00900737E0FA
:10224000F8A3E0F9A3E0FAA3E0FBC312179170052D
:102250007F3B0222D77F007EC27D017C0090073742
:10226000E0F8A3E0F9A3E0FAA3E0FBC31217917032
:10227000047FD880627F007E587D027C0090073703
:10228000E0F8A3E0F9A3E0FAA3E0FBC31217917012
:10229000047F3B80427F007E847D037C0090073773
:1022A000E0F8A3E0F9A3E0FAA3E0FBC312179170F2
:1022B000047FD880227F007EB07D047C00900737A9
:1022C000E0F8A3E0F9A3E0FAA3E0FBC312179170D2
:1022D000047F3B80027F008FC22256697274756151
:1022E0006C697A6554696D6572432E54696D6572C7
:1022F0002E7374617274506572696F6469632064CF
:10230000743D256C640A0052664D616342617365D9
:1023100053656E64502E537562436F726553656EDC
:10232000642E73656E64446F6E6520726573756CA0
:102330007425640A002A2053656E742573210D0AE2
:10234000004F4B004641494C00757064617465460E
:10235000726F6D54696D6572204E554D5F54494DD5
:102360004552533D25640A00656C617073656420B5
:102370003D203078256C782C2072656D61696E691E
:102380006E673D3078256C780A00757064617465FD
:1023900046726F6D54696D6572206D696E5F72650E
:1023A0006D61696E696E675F69737365743D2564FD
:1023B0002C206D696E5F72656D61696E696E673D37
:1023C000307825782C0A005669727475616C697AC8
:1023D0006554696D6572432063616C6C2054696D4E
:1023E000657246726F6D2E73746172744F6E6553B1
:1023F000686F7441740A00416C61726D302E7374A1
:1024000061727441742054314343544C303D3078F0
:1024100025780A005669727475616C697A65546929
:102420006D6572432E54696D657246726F6D2E66CE
:10243000697265640A000A7061796C6F6164203D9D
:102440002025630A000D0A0D0A2A2053656E64696F
:102450006E67202E2E2E2066726F6D205B25645DC8
:102460002C20746F205B25645D2C206C656E3D5BB9
:1024700025645D0D0A000D0A2A20546F2053656EF5
:10248000643A2859206F72204E290D0A000D0A2344
:10249000232323232323232323232323232323230C
:1024A00023232323232323232323232323232323FC
:1024B00023232323232323232323232323232323EC
:1024C00023230D0A2A204D59204E6F64654964204C
:1024D0003D20307825782C2047726F75703D30781C
:1024E00025782C2064657374696E6174696F6E2041
:1024F0003F0D0A000D0A2323232323232323232311
:10250000232323232323232323232323232323239B
:10251000232323232323232323232323232323238B
:1025200023232323230D0A002020204D79204164FA
:102530006472657373203D20307825782C204772B3
:102540006F7570203D20307825780D0A00232323F5
:10255000232323232323232323232323232323234B
:10256000232323232323232323232323232323233B
:102570002323232323232323232323230D0A00257B
:1025800063006C2530327800253032780D0A0068FF
:1025900025660D0A007325660D0A0056697274756A
:1025A000616C697A6554696D6572432E54696D6515
:1025B000722E73746172744F6E6553686F74206409
:1025C000743D256C640A006669726554696D6572B4
:1025D000732025642C206E6F773D3078256C782C25
:1025E000656C61707365643D3078256C782C20646F
:1025F000743D3078256C782C74303D3078256C78BB
:102600000A00420677000142041A00014203180042
:10261000224201CC03E8410524FF4100120141019F
:10262000ED00450058000000000041053A0041055A
:10263000220041066E0042005600014101D02241B5
:1026400007300041005200410136004100150044AE
:102650000062000000004405320000000041000359
:10266000006040067A00000000000000000000004A
:10267000000000000000000000000000000000005A
:10268000000000000000000000000000000000004A
:10269000000000000000000000000000000000003A
:1026A00000000000004100140041013800410536DF
:1026B000004101CE0041066A004102850041051E2D
:1026C0000041013500410018004101370041013946
:1026D0000041052D0041066D0041072C00410531E8
:1026E0000041072F0043072900000041005D004121
:1026F00005CD0042053B000041052F004101D100FE
:102700006100031A0000000000000000000000004B
:1027100000000000000000000000000000000000B9
:1027200000000000000000000000000000000000A9
:102730000000000000000000000000000000000099
:102740000000000000000000000000000000000089
:102750000000000000000000000000000000000079
:102760000000000000000000000000000000000069
:102770000000000000000000000000000000000059
:102780000000000000000000000000000000000049
:102790000000000000000000000000000000000039
:1027A0000000000000000000000000000000000029
:1027B0000000000000000000000000000000000019
:1027C0000000000000000000000000000000000009
:1027D00000000000000000000000000000000000F9
:1027E00000000000000000000000000000000000E9
:1027F00000000000000000000000000000000000D9
:1028000000000000410539004106BA0042006600A0
:102810000041053800420016000141013400410129
:10282000CB22410010004103170041001300420772
:102830002DFFFF41000200410537004101CF00415B
:10284000066B0041031600410521004100110041C3
:10285000052300608E07EF7B0110AF027B00C08371
:10286000C082C085C084C092EAF583E9F582759282
:1028700001758562758470E0548070FB7402F0EC21
:1028800060277A407904759200E0A37592017585FE
:1028900062758473F0D9EF7400F075856275847089
:1028A000E0544070FBDADDDCD9ED6029ED54FC0327
:1028B00003FD7904759200E0A37592017585627538
:1028C0008473F0D9EF7400F0758562758470E054FC
:1028D0004070FBDDDDD092D084D085D082D083EBF8
:1028E0006002D2AF2200127224900735EFF012710D
:1028F0005A9007361218DB90073A1218E77FFFFF4D
:10290000FFE490073EF0D39001CDE094019001CC1C
:10291000E06480948050219007BD74FFF0A374237D
:10292000F0A37449F0A3E4F0A37406F07B017A04E9
:10293000791E121AA4125D8C127742E490073FF0C0
:1029400090073FE0FFC394064003022A9FEF75F013
:1029500009A42419F9740035F0FA7B01A3EBF0A364
:10296000EAF0A3E9F09000081215A9FFC31320E0D4
:1029700003022A96900740E0FBA3E0FAA3E0F912D5
:102980001856900736E0FCA3E0FDA3E0FEA3E0C3E9
:102990009BFFEE9AFEED99FDEC98FC900743121810
:1029A000DB900740E0FBA3E0FAA3E0F990000412FB
:1029B00017E8EF2401FFE43EFEE43DFDE43CFCC0EB
:1029C00004C005C006C007900740A3A3E090000420
:1029D0001217E8900743E0F8A3E0F9A3E0FAA3E0B8
:1029E000FBC3EF9BFFEE9AFEED99FDEC98FCD00344
:1029F000D002D001D0001216E9AC00AD01AE02AF9A
:102A0000039007471218DBD39001CDE094019001A9
:102A1000CCE06480948050429007BD74FFF0A374B2
:102A200023F0A37468F0900743E0FCA3E0FDA3E06B
:102A3000FEA3E0FF9007C01218DB900747E0FCA35D
:102A4000E0FDA3E0FEA3E0FF9007C41218DB7B01CA
:102A50007A04791E121AA4125D8C90073AE0FCA346
:102A6000E0FDA3E0FEA3E0FF900747E0F8A3E0F954
:102A7000A3E0FAA3E0FBC312177B501A900747E0CC
:102A8000FCA3E0FDA3E0FEA3E0FF90073A1218DBF1
:102A900090073E7401F090073FE004F0022940D314
:102AA0009001CDE094019001CCE064809480503896
:102AB0009007BD74FFF0A37423F0A3748AF090070D
:102AC0003EE0FF9007C0E4F0A3EFF090073AA3A325
:102AD000E0FFA3E09007C2CFF0A3EFF07B017A0400
:102AE000791E121AA4125D8C90073EE0607CE4FF10
:102AF000FEFDFC90073AE0F8A3E0F9A3E0FAA3E0BA
:102B0000FBD312177B5013900736E0FCA3E0FDA324
:102B1000E0FEA3E0FF12341F8050D39001CDE0947B
:102B2000019001CCE064809480501A9007BD74FF3E
:102B3000F0A37423F0A374C7F07B017A04791E120A
:102B40001AA4125D8C90073AE0FCA3E0FDA3E0FE1E
:102B5000A3E0FF90074F1218DB900736E0FCA3E0DC
:102B6000FDA3E0FEA3E0FF1269FB900735E0FF0242
:102B7000765B1244B59007641218DB900525E0FCE3
:102B8000A3E0FDA3E0FEA3E0FF90005EE0F8A3E079
:102B9000F9A3E0FAA3E02FFFEA3EFEE93DFDE83CA1
:102BA000FC9007681218DB900764E0F8A3E0F9A333
:102BB000E0FAA3E0FBA3E0FCA3E0FDA3E0FEA3E0BA
:102BC000C39BFFEE9AFEED99FDEC98FCA31218DB77
:102BD000900764E0FCA3E0FDA3E0FEA3E0FF90000B
:102BE0005EE0F8A3E0F9A3E0FAA3E0FBD3121791AB
:102BF000503F90005EE0FCA3E0FDA3E0FEA3E0FFF9
:102C0000900768E0F8A3E0F9A3E0FAA3E0FBC312A1
:102C100017914063900764E0FCA3E0FDA3E0FEA3EE
:102C2000E0FFA3E0F8A3A3A3E0D3121791504880DC
:102C30003C90005EE0FCA3E0FDA3E0FEA3E0FF907B
:102C40000768E0F8A3E0F9A3E0FAA3E0FBC31217DA
:102C500091501A900764E0FCA3E0FDA3E0FEA3E01E
:102C6000FFA3E0F8A3A3A3E0121791500A90076C0A
:102C70001218E700000000E4FF7E04FDFC90076CE2
:102C8000E0F8A3E0F9A3E0FAA3E0FBD31217914028
:102C90004E900764E0FCA3E0FDA3E0FEA3E0240067
:102CA000FFEE3404FEE43DFDE43CFC90005E1218AF
:102CB000DB90076CE0FCA3E0FDA3E0FEA3E02400B2
:102CC000FFEE34FCFEED34FFFDEC34FFFC900525F7
:102CD0001218DB90076C1218E7000004008038908F
:102CE000005EE0FCA3E0FDA3E0FEA3E0FF9005256D
:102CF000E0F8A3E0F9A3E0FAA3E0FBEF2BFFEE3A44
:102D0000FEED39FDEC38FC90005E1218DB900525D5
:102D10001218E700000000900764A3A3E0FEA3E000
:102D20007805C333CE33CED8F9FFC006C00790076D
:102D30006CA3A3E0FEA3E07805C333CE33CED8F96D
:102D4000FDAC06D007D0060247DE124ACE900753EC
:102D50001218DB900529E0FCA3E0FDA3E0FEA3E050
:102D6000FF900068E0F8A3E0F9A3E0FAA3E02FFFEA
:102D7000EA3EFEE93DFDE83CFC9007571218DB9067
:102D80000753E0F8A3E0F9A3E0FAA3E0FBA3E0FC1B
:102D9000A3E0FDA3E0FEA3E0C39BFFEE9AFEED9946
:102DA000FDEC98FCA31218DB900753E0FCA3E0FDB8
:102DB000A3E0FEA3E0FF900068E0F8A3E0F9A3E041
:102DC000FAA3E0FBD3121791503F900068E0FCA3F8
:102DD000E0FDA3E0FEA3E0FF900757E0F8A3E0F9D1
:102DE000A3E0FAA3E0FBC31217914063900753E0FE
:102DF000FCA3E0FDA3E0FEA3E0FFA3E0F8A3A3A3F0
:102E0000E0D31217915048803C900068E0FCA3E0AA
:102E1000FDA3E0FEA3E0FF900757E0F8A3E0F9A3CD
:102E2000E0FAA3E0FBC3121791501A900753E0FC9D
:102E3000A3E0FDA3E0FEA3E0FFA3E0F8A3A3A3E0CB
:102E4000121791500A90075B1218E7000000007FEC
:102E5000007E807DFF7CFF90075BE0F8A3E0F9A394
:102E6000E0FAA3E0FBD3121791404E900753E0FC29
:102E7000A3E0FDA3E0FEA3E02400FFEE3480FEED1E
:102E800034FFFDEC34FFFC9000681218DB90075B08
:102E9000E0FCA3E0FDA3E0FEA3E02400FFEE34800D
:102EA000FEE43DFDE43CFC9005291218DB90075B35
:102EB0001218E7FFFF80008038900068E0FCA3E074
:102EC000FDA3E0FEA3E0FF900529E0F8A3E0F9A34D
:102ED000E0FAA3E0FBEF2BFFEE3AFEED39FDEC3814
:102EE000FC9000681218DB9005291218E70000001A
:102EF00000900753A3A3E0FEA3E0FFC00690075B8A
:102F0000A3A3E0FEA3E0FDAC06D006024F4D900760
:102F100056EBF0A3EAF0A3E9F0900316E070030289
:102F200030BB900053E0FBA3E0FAA3E02481F9E476
:102F30003AFA90075DEBF0A3EAF0A3E9F0900053B2
:102F400012726F900760EBF0A3EAF0A3E9F090072C
:102F500059E0F9A3E0FAA3E0900763C9F0A3EAF00F
:102F6000A3E9F0900760E0FBA3E0FAA3E0F990008A
:102F7000011215A970030230BB900763E0FBA3E0C8
:102F8000FAA3E0F9127307900760E0FBA3E0FAA34D
:102F9000E0F91215906F60030230BB900053127479
:102FA000E0C006C007900756127369D005D004EF41
:102FB0006D7002EE6C60030230BB900053127369B7
:102FC000C006C0079007561274E0D005D004EF6D1C
:102FD0007002EE6C60030230BB900756E0FBA3E08A
:102FE000FAA3E02481F9E43AFA900766EBF0A3EA49
:102FF000F0A3E9F01273A7AD0790075DE0FBA3E033
:10300000FAA3E0F91271C9900766E0FBA3E0FAA306
:10301000E0240112730390075D127258900766E076
:10302000FBA3E0FAA3E024021273A3AD0790075DAF
:10303000E0FBA3E0FAA3E02402F9E43AFA1271C932
:1030400090075DE0FBA3E0FAA3E02403F9E43AFA79
:103050007D011271C990075DE0FBA3E0FAA3E024B3
:1030600006F9E43AA801FCAD03900763E0FBA3E096
:10307000FAA3E0F97E007F0912156A900756E0F97D
:10308000A3E0FAA3E090076CC9F0A3EAF0A3E9F08B
:10309000900763E0F9A3E0FAA3E090076FC9F0A3FB
:1030A000EAF0A3E9F09000531262F4900053E0FBC1
:1030B000A3E0FAA3E0F9E4FD125FCE900756E0FB2F
:1030C000A3E0FAA3E0F922900756EBF0A3EAF0A3FD
:1030D000E9F0900285E0700302327490004FE0FB4B
:1030E000A3E0FAA3E02481F9E43AFA90075DEBF05B
:1030F000A3EAF0A3E9F090004F12726F900760EB23
:10310000F0A3EAF0A3E9F0900759E0F9A3E0FAA3ED
:10311000E0900763C9F0A3EAF0A3E9F0900760E04C
:10312000FBA3E0FAA3E0F99000011215A9700302D5
:103130003274900763E0FBA3E0FAA3E0F91273078F
:10314000900760E0FBA3E0FAA3E0F91215906F602E
:103150000302327490004F1274E0C006C00790075B
:1031600056127369D005D004EF6D7002EE6C6003E7
:1031700002327490004F127369C006C00790075660
:103180001274E0D005D004EF6D7002EE6C600302A3
:103190003274900756E0FBA3E0FAA3E02481F9E43F
:1031A0003AFA900766EBF0A3EAF0A3E9F01273A7EE
:1031B000AD0790075DE0FBA3E0FAA3E0F91271C947
:1031C000900766E0FBA3E0FAA3E0240112730390EA
:1031D000075D127258900766E0FBA3E0FAA3E024B3
:1031E000021273A3AD0790075DE0FBA3E0FAA3E032
:1031F0002402F9E43AFA1271C990075DE0FBA3E0FA
:10320000FAA3E02403F9E43AFA7D011271C99007A8
:103210005DE0FBA3E0FAA3E02406F9E43AA801FC90
:10322000AD03900763E0FBA3E0FAA3E0F97E007F23
:103230000912156A900756E0F9A3E0FAA3E0900797
:103240006CC9F0A3EAF0A3E9F0900763E0F9A3E00A
:10325000FAA3E090076FC9F0A3EAF0A3E9F09000A9
:103260004F1262F490004FE0FBA3E0FAA3E0F9E410
:10327000FD12623B900756E0FBA3E0FAA3E0F922BF
:10328000900763EBF0A3EAF0A3E9F0900769E0642C
:1032900002600302333BD39001CDE094E89001CC6F
:1032A000E064809483503C127224900773EFF09096
:1032B00007BD74FFF0A37425F0A37482F090076635
:1032C000E0FBA3E0FAA3E0F9121590FF9007C0E439
:1032D000F0A3EFF07B017A04791E121AA490077311
:1032E000125D87D39001CDE094E89001CCE064803A
:1032F0009483400302341E127224900773EFF090FF
:1033000007BD74FFF0A37425F0A37488F0900766DE
:10331000E0FBA3E0FAA3E0F99000011215A9FF90E9
:1033200007C0E4F0A3EFF07B017A04791E121AA41F
:10333000900773E0FF12765B025D8C786A7C077DF4
:1033400001900766E0FBA3E0FAA3E0F97E007F04AA
:1033500012156A900766E0FBA3E0FAA3E02404F9E3
:10336000E43AFA786E7C077D017E007F0412156ACC
:1033700090066EE07052D39001CDE094E89001CCBD
:10338000E0648094835039127224900773EFF090B8
:1033900007BD74FFF0A37425F0A3748FF090076A43
:1033A000E0FCA3E0FDA3E0FEA3E0FF9007C012183D
:1033B000DB7B017A04791E121AA4900773125D87D1
:1033C00090066E7401F0804FD39001CDE094E890A8
:1033D00001CCE0648094835039127224900773EF1B
:1033E000F09007BD74FFF0A37425F0A37495F090DE
:1033F000076EE0FCA3E0FDA3E0FEA3E0FF9007C0A2
:103400001218DB7B017A04791E121AA4900773123A
:103410005D87E490066EF0B293E4900522F022906E
:10342000074B1218DBE490074FF090074FE0FFC303
:10343000940640030235B2EF75F009A42419F9741B
:103440000035F0FA7B01A3EBF0A3EAF0A3E9F090DA
:1034500000081215A9FFC31320E0030235A9900745
:1034600050E0FBA3E0FAA3E0F912185690074BE0F6
:10347000FCA3E0FDA3E0FEA3E0C39BFFEE9AFEEDFC
:1034800099FDEC98FC9007531218DB900750E0FB75
:10349000A3E0FAA3E0F99000041217E8900753E0C4
:1034A000F8A3E0F9A3E0FAA3E0FBC31217915003DD
:1034B0000235A9900750E0FBA3E0FAA3E0F99000E1
:1034C000081215A930E011E92408F9E43AFA1215B6
:1034D0009054FD1215D68049900750E0FBA3E0FA06
:1034E000A3E0F9900004121876900753E0FCA3E0E3
:1034F000FDA3E0FEA3E0FF1216E990074BE0FCA35A
:10350000E0FDA3E0FEA3E0C39BFFEE9AFEED99FD74
:10351000EC98FC900750E0FBA3E0FAA3E0F9121846
:1035200018D39001CDE094019001CCE064809480A8
:10353000506F9007BD74FFF0A37425F0A374C7F01B
:1035400090074FE0FF9007C0E4F0A3EFF09007531F
:10355000E0FCA3E0FDA3E0FEA3E0FF9007C2121889
:10356000DB90074BE0FCA3E0FDA3E0FEA3E0FF90AF
:1035700007C61218DB900750E0FBA3E0FAA3E0F9BE
:103580009000041217E89007CA1218DB1217C890AF
:1035900007CE1218DB7B017A04791E121AA4125D81
:1035A0008C90074FE0FF1266B390074FE004F002E3
:1035B000342A7F04026A5B90076312721C90076AC8
:1035C000EFF0900766E0FBA3E0FAA3E0F990076B49
:1035D000EBF0A3EAF0A3E9F012159024DE604214A8
:1035E000606514700302366C147003023691147017
:1035F000030236B6240560030236D9900766E0F967
:10360000A3E0FAA3E0900774C9F0A3EAF0A3E9F0FD
:10361000900763E0FBA3E0FAA3E0F9126EA1023683
:10362000D9900766E0F9A3E0FAA3E0900774C9F027
:10363000A3EAF0A3E9F0900763E0FBA3E0FAA3E0BC
:10364000F9126F790236D9900766E0F9A3E0FAA380
:10365000E0900774C9F0A3EAF0A3E9F0900763E0F3
:10366000FBA3E0FAA3E0F91269CC806D900766E055
:10367000F9A3E0FAA3E0900774C9F0A3EAF0A3E984
:10368000F0900763E0FBA3E0FAA3E0F91270268054
:1036900048900766E0F9A3E0FAA3E0900774C9F048
:1036A000A3EAF0A3E9F0900763E0FBA3E0FAA3E04C
:1036B000F9123EAF8023900766E0F9A3E0FAA3E099
:1036C000900774C9F0A3EAF0A3E9F0900763E0FB68
:1036D000A3E0FAA3E0F9124153900763E0F9A3E0F5
:1036E000FAA3E090076EC9F0A3EAF0A3E9F090070F
:1036F0006AE0FF12765B90076EE0FBA3E0FAA3E0BE
:10370000F9229007BAEFF0A3ECF0ED1272199007CE
:10371000C7EFF09007BDE0F9A3E0FAA3E09007C877
:10372000C9F0A3EAF0A3E9F09007BDE0FBA3A3E092
:103730002481F9E43AFA9007CBEBF0A3EAF0A3E98D
:10374000F09007BDA3E0FAA3E0F9A3E0FD1276C66E
:103750009007C8E0FBA3E0FAA3E02401F9E43AFAF9
:10376000E4FDFC1270CE9007BBE0F47003A3E0F41C
:1037700060299007C8E0FBA3E0FAA3E02401F9E484
:103780003AFA9007C4EBF0A3EAF0A3E9F0126F4D08
:10379000AC06EF44209007C41270C59007C8E0FB48
:1037A000A3E0FAA3E02401F9E43AFA9007C1EBF0B0
:1037B000A3EAF0A3E9F0126F4DEE4488FCEF444118
:1037C0009007C11270C5126D12AD079007BDE0FBE6
:1037D000A3E0FAA3E0F91275209007BDE0FBA3E097
:1037E000FAA3E09007BB1273ED126168AC06AD0757
:1037F0009007BDE0FBA3E0FAA3E0F912760890077A
:10380000CBE0FBA3E0FAA3E0F9E4FD1271C9900755
:10381000CB12725A9007C8E0FBA3E0FAA3E0F912BA
:1038200074DBAD079007BDE0FBA3E0FAA3E0F9125B
:1038300066199007CEEFF09007C7E0FF12765B9015
:1038400007CEE0FF2290074CEBF0A3EAF0A3E9F0EB
:1038500090074BEFF02484603F248C606914700360
:103860000238F32476600302392090074FE0F9A371
:10387000E0FAA3E0900759C9F0A3EAF0A3E9F090B9
:103880000752E090075CF090074CE0FBA3E0FAA33E
:10389000E0F9123CB002395090074FE0F9A3E0FA8A
:1038A000A3E0900759C9F0A3EAF0A3E9F09007520A
:1038B000E090075CF090074CE0FBA3E0FAA3E0F98E
:1038C0001230C702395090074FE0F9A3E0FAA3E0A5
:1038D000900759C9F0A3EAF0A3E9F0900752E090ED
:1038E000075CF090074CE0FBA3E0FAA3E0F9123B81
:1038F0009C805D90074FE0F9A3E0FAA3E0900759A0
:10390000C9F0A3EAF0A3E9F0900752E090075CF059
:1039100090074CE0FBA3E0FAA3E0F9122F0E8030F1
:1039200090074BE0FF90074FE0F9A3E0FAA3E09087
:10393000075AC9F0A3EAF0A3E9F0900752E0900714
:103940005DF090074CE0FBA3E0FAA3E0F912749657
:10395000900753EBF0A3EAF0A3E9F0900753E0FBE4
:10396000A3E0FAA3E0F92290073BEFF0640D7003A7
:10397000023A6C900522E064016003023A05F99076
:103980000743C9F0A3F0A3E9F07B017A027986121C
:103990005B2290073CEBF0A3EAF0A3E9F0127685F6
:1039A0009001EDE0C39F4003023A8290073BE0FFA5
:1039B000A3E0FBA3E0FAA3E0F9EF1215D6D3900140
:1039C000CDE094E89001CCE064809483502D127295
:1039D0002490073FEFF09007BD74FFF0A37425F02B
:1039E000A3747FF090073BE09007C0F07B017A045E
:1039F000791E121AA490073F125D871276859001F6
:103A0000EDE0C39F2290053AE0C39405505690071D
:103A10003BE0FF90053AE0FE04F074582EF582E496
:103A20003400F583EFF0D39001CDE094E89001CC21
:103A3000E064809483502D12722490073CEFF09044
:103A400007BD74FFF0A37425F0A3747FF090073BCB
:103A5000E09007C0F07B017A04791E121AA4900747
:103A60003C125D8790053AE0C3940522900522E060
:103A7000B401047F0180089005227401F0E4FF1274
:103A80006A5B22900743E4F0A3F0A3F07B017A0283
:103A90007986125B22900736126160900739EEF04A
:103AA000A3EFF012506790073BEEF0A3EFF0D39036
:103AB00001CDE094E89001CCE0648094835037120B
:103AC000722490073DEFF09007BD74FFF0A37424BB
:103AD000F0A37436F0900736E0FBA3E0FAA3E0F918
:103AE0001215909007C0F07B017A04791E121AA477
:103AF00090073D125D879001ED7401F0900736E06C
:103B0000FBA3E0FAA3E0F9121590FF64596005EFFA
:103B10006479707CD39001CDE094E89001CCE064AE
:103B2000809483505012722490073DEFF09007BDAF
:103B300074FFF0A37424F0A37445F0900739E0FFFC
:103B4000A3E09007C0CFF0A3EFF090073BE0FFA306
:103B5000E09007C2CFF0A3EFF09001EDE0FF9007F7
:103B6000C4E4F0A3EFF07B017A04791E121AA4904A
:103B7000073D125D8790073BE0FEA3E0FF7B017AE3
:103B80000279869001EDE0900743F0124308800926
:103B9000E4900522F0FF126A5BB29222900756EB86
:103BA000F0A3EAF0A3E9F090075612677FEF7003E5
:103BB000023CA490075612726D90075DEBF0A3EAE9
:103BC000F0A3E9F09007B7E4F0A3F0A3F07B017A4B
:103BD0000579DA1261AD900760EBF0A3EAF0A3E992
:103BE000F0900759E0FBA3E0FAA3E02402F9E43ADD
:103BF000FA900759EBF0A3EAF0A3E9F0A3E024FE62
:103C0000F0A3E0FBA3E0FAA3E0F99000011215A9EC
:103C10006056121590FD9007677401F0A37405F0CB
:103C2000A374DAF0900760E0F9A3E0FAA3E090074C
:103C30006AC9F0A3EAF0A3E9F0900756124C359058
:103C40000756127487AD077B017A0579DA12752061
:103C5000900756127369AC06AD077B017A0579DAD5
:103C60001273F37F10126A5B900756127369900704
:103C70005D126579EF7002802B900759E0F9A3E09F
:103C8000FAA3E0900766C9F0A3EAF0A3E9F0900771
:103C90005CE0900769F0900756E0FBA3E0FAA3E030
:103CA000F90235B7900756E0FBA3E0FAA3E0F9224A
:103CB000900756EBF0A3EAF0A3E9F09007561267DD
:103CC0007FEF7003023DB290075612726D90075D50
:103CD000EBF0A3EAF0A3E9F09007B7E4F0A3F0A3B8
:103CE000F07B017A05793D1261AD900760EBF0A39E
:103CF000EAF0A3E9F0900759E0FBA3E0FAA3E0247F
:103D000002F9E43AFA900759EBF0A3EAF0A3E9F0DC
:103D1000A3E024FEF0A3E0FBA3E0FAA3E0F9900007
:103D2000011215A96053121590FD9007677401F0F8
:103D3000A37405F0A3743DF0900760E0F9A3E0FAE6
:103D4000A3E090076AC9F0A3EAF0A3E9F090075650
:103D5000124C35900756127487AD077B017A0579AE
:103D60003D127520127366AC06AD077B017A0579AA
:103D70003D1273F37F0A126A5B12736690075D123D
:103D80006579EF7002802B900759E0F9A3E0FAA360
:103D9000E0900766C9F0A3EAF0A3E9F090075CE0C1
:103DA000900769F0900756E0FBA3E0FAA3E0F90260
:103DB0003280900756E0FBA3E0FAA3E0F922AC05BD
:103DC000900737EBF0A3EAF0A3E9F090073DEBF0A2
:103DD000A3EAF0A3E9F02401126F49EF5407FF644E
:103DE000027003023EAEEF64016003023EAE900734
:103DF0003DE0FBA3E0FAA3E02481F9E43AFAA3EB67
:103E0000F0A3EAF0A3E9F02402F9E43AFAC003C00F
:103E100002C001EC24FFFFE434FFFE900737E0FB13
:103E2000A3E0FAA3E0F98F828E831215A9FFC413D1
:103E300013135401FDD001D002D0031271C9EC2438
:103E4000FEFFE434FFFE900737E0FBA3E0FAA3E0B7
:103E5000F98F828E831215A9FD900740E0FBA3E045
:103E6000FAA3E0F91271C9900740E0FBA3E0FAA3BE
:103E7000E0F91273A7EF247FFD90074012725A9069
:103E8000073DE0FBA3E0FAA3E0F990073A1274D3F0
:103E9000AD0790073AE0FBA3E0FAA3E0F91272E164
:103EA00090073DE0FBA3E0FAA3E0F9124A16229046
:103EB0000771126160AC06AD079007741255C4908B
:103EC0000777EEF0A3EFF0900774E0FBA3E0FAA30E
:103ED000E0F99000041215A9D394144003023F9511
:103EE000900777E0FEA3E0FFC3EE64809480500368
:103EF000023F95D3EF9400EE64809480402F9007AA
:103F00007112739AAD07900777E0FEA3E07802C3C1
:103F100033CE33CED8F9FF900774E0FBA3E0FAA3C9
:103F2000E02FF9EA3EFA900004ED1215E8900777C9
:103F3000E0FEA3E0FF04FD900774E0FBA3E0FAA31A
:103F4000E0F9900005ED1215E8900774E0F9A3E0A0
:103F5000FAA3E090077CC9F0A3EAF0A3E9F0A3EE8E
:103F6000F0A3EFF0900771E0FBA3E0FAA3E0F912F1
:103F7000489F900774E0F9A3E0FAA3E090077CC99A
:103F8000F0A3EAF0A3E9F0900771E0FBA3E0FAA345
:103F9000E0F912755C221272249007EAEFF0906249
:103FA000A4E030E618E5AF30E21353AFEF53E6BFBD
:103FB000900015E04410F090000C7401F09062A3A2
:103FC000E030E618E5AF30E11353AFF753E5BF90AB
:103FD0000015E04408F090000C7401F0E5E730E6CD
:103FE0003FE5AF30E23A53AFFBE5E720E722AFDE33
:103FF0009007EBE4F0A3EFF0AFDFEFFEE02400F07A
:104000009007EBE03EF0E0FEA3E0FF12768E80101A
:1040100053E7BF900015E04404F090000C7401F0E9
:10402000E5E630E618E5AF30E11353AFFD53E6BFE8
:10403000900015E04402F090000C7401F0E5E530CA
:10404000E618E5AF30E01353AFFE53E5BF9000151F
:10405000E04401F090000C7401F0E5AF30E510533E
:10406000AFDF900015E04420F090000C7401F09058
:1040700007EAE0FF02765BE4900777F0900777E0CD
:10408000FFC39408501674BD2FF582E43406F583FF
:10409000E0B4FF08900777E004F080E0900777E055
:1040A000C39408401A7B017A0679BD90078BE4F02F
:1040B000A37408F07F047EF87D007C00026EE67B2E
:1040C000017A07797C90078BE4F0A37408F07F04F1
:1040D000126EE0E4900777F0900777E0FFC3940852
:1040E0005023E0FE24BDF582E43406F583E0FD7440
:1040F0007C2EF582E43407F583E0B5050890077758
:10410000E004F080D3EFC3940850477B017A07792D
:104110007890078BE4F0A37404F07F00126EE07FC8
:10412000007EF87D007C00126DA67B017A0779780D
:1041300090078BE4F0A37404F07F0012664D7B01BE
:104140007A0679BD90078BE4F0A37408F07F04121F
:10415000664D229007711261609007741255C090ED
:104160000777EEF0A3EFF0900774E0FBA3E0FAA36B
:10417000E0F99000041215A9FFD394144003024201
:104180002D900777E0FCA3E0FDC3EC6480948050A1
:104190000302422DEF24FFFFE434FFFEC3ED9FEE48
:1041A0006480F8EC648098502F90077112739AAD78
:1041B00007900777E0FEA3E07802C333CE33CED872
:1041C000F9FF900774E0FBA3E0FAA3E02FF9EA3EC1
:1041D000FA90000DED1215E8900774E0F9A3E0FAEB
:1041E000A3E090078EC9F0A3EAF0A3E9F090077767
:1041F000E0FFA3E0900791CFF0A3EFF0900771E00C
:10420000FBA3E0FAA3E0F9125843900774E0F9A386
:10421000E0FAA3E090077CC9F0A3EAF0A3E9F090EC
:104220000771E0FBA3E0FAA3E0F9127550229007B2
:104230009512721690079BEFF090079712726D908F
:10424000079CEBF0A3EAF0A3E9F0900797E0FBA34B
:10425000E0FAA3E02481F9E43AFA90079FEBF0A397
:10426000EAF0A3E9F0900537E060089007A2740136
:104270000242F9900795E0F47003A3E0F47F006038
:10428000027F0190079CE0FBA3E0FAA3E0F9900015
:1042900001EF1215E890079F1271BA900012E0FF2B
:1042A00090079CE0FBA3E0FAA3E0F9EF1215D6908B
:1042B0000797E0FBA3E0FAA3E0F99007951273EEED
:1042C00090079712731E9007971265AFEF702690B4
:1042D0000012E004F09005377401F0900797E0F9C0
:1042E000A3E0FAA3E09001E7C9F0A3EAF0A3E9F0A4
:1042F000E49001CFF09007A2EFF090079BE0FF124F
:10430000765B9007A2E0FF2290073E12721690079C
:1043100044EFF090074012726D900745EBF0A3EA6E
:10432000F0A3E9F0900740E0FBA3E0FAA3E02481CA
:10433000F9E43AFA900748EBF0A3EAF0A3E9F09029
:104340000536E0600890074B74010243D290073EA7
:10435000E0F47003A3E0F47F0060027F0190074562
:10436000E0FBA3E0FAA3E0F9900001EF1215E8905A
:1043700007481271BA900012E0FF900745E0FBA3D6
:10438000E0FAA3E0F9EF1215D6900740E0FBA3E0B6
:10439000FAA3E090073E1273ED90074012731E904F
:1043A00007401265E4EF7026900012E004F09005DB
:1043B000367401F0900740E0F9A3E0FAA3E0900121
:1043C000E4C9F0A3EAF0A3E9F0E49001CEF090078D
:1043D0004BEFF0900744E0FF12765B90074BE0FF55
:1043E00022AA05A903900765EEF0A3EFF0125EEE96
:1043F000900767EEF0A3EFF0EA75F00184AAF0C32E
:10440000EE64809480500B1259B9900767EEF0A3C8
:10441000EFF0900768E025E0FF900767E033FE7457
:104420006C2FF58274003EF583E0FEA3E0FF900759
:1044300065E0FCA3E0FDEFB5052DEEB50429A3E092
:10444000FEA3E0FFEA75F064A424C5F582E4340617
:10445000F583E5822FF582E5833EF583E0B501071C
:10446000E4900769F0FF22900765E0FCA3E0FD906F
:104470000768E025E0FF900767E033FE746C2FF5D6
:104480008274003EF583ECF0A3EDF0900767E0FC4A
:10449000A3E0FDEA75F064A424C5F582E43406F5D2
:1044A00083E5822DF582E5833CF583E9F090076989
:1044B0007401F0FF229007C21218E700000000907C
:1044C0000062E0FCA3E0FDA3E0FEA3E0FF126BAFFF
:1044D0009007CAEEF0A3EFF01275C7EF60249007C3
:1044E000C6E0FCA3E0FDA3E0FEA3E02401FFE43E60
:1044F000FEE43DFDE43CFC126BAF9007CAEEF0A376
:10450000EFF09007C6E0FCA3E0FDA3E0FEA3E0FF10
:104510009007CC1218DB9007CAE0FEA3E07805CE26
:10452000C313CE13D8F9FFE4FCFD9007D01218DBBB
:104530009007CCE0FCA3E0FDA3E0FEA3E0FF780B36
:104540001217B5A3E0F8A3E0F9A3E0FAA3E04FFF48
:10455000EA4EFEE94DFDE84CFC9007C21218DB90D4
:1045600007C2E0FCA3E0FDA3E0FEA3E0FF9007CCC0
:104570001218DB9007CCE0FCA3E0FDA3E0FEA3E073
:10458000FF229007A6EEF0A3EFF0A3EBF0A3EAF072
:10459000A3E9F01272759007ADEBF0A3EAF0A3E97E
:1045A000F09007A8E0FBA3E0FAA3E02481F9E43A45
:1045B000FA9007B0EBF0A3EAF0A3E9F0900316E05D
:1045C00060089007B37401F0FF229007A6E0F47032
:1045D00003A3E0F47F0060027F019007ADE0FBA33E
:1045E000E0FAA3E0F9900001EF1215E89007B0128D
:1045F00071BA9007A81273789007B9EFF09007A6E8
:10460000E0FEA3E0FFA3E0FBA3E0FAA3E0F9125C65
:10461000A39007ACEFF09007B51218E70000271041
:104620007F0412516E9007ACE0FF701B9007A8E06A
:10463000F9A3E0FAA3E0900053C9F0A3EAF0A3E9DC
:10464000F09003167401F09007B3EFF02290074F3B
:10465000EEF0A3EFF0A3EBF0A3EAF0A3E9F01272FF
:1046600075900756EBF0A3EAF0A3E9F0900751E04C
:10467000FBA3E0FAA3E02481F9E43AFA900759EBAE
:10468000F0A3EAF0A3E9F0900285E0600890075CEF
:104690007401F0FF2290074FE0F47003A3E0F47F71
:1046A0000060027F01900756E0FBA3E0FAA3E0F967
:1046B000900001EF1215E89007591271BA90075156
:1046C000127378900762EFF090074FE0FEA3E0FFCF
:1046D000A3E0FBA3E0FAA3E0F9125A13900755EF09
:1046E000F09007B51218E7000027107F0212516EF4
:1046F000900755E0FF701B900751E0F9A3E0FAA383
:10470000E090004FC9F0A3EAF0A3E9F090028574AD
:1047100001F090075CEFF022126A28126846D293EB
:10472000D292D39001CDE094E89001CCE0648094E3
:10473000835022127224900732EFF09007BD74FF6D
:10474000F0A37424F0A374F4F07B017A04791E12B0
:104750001AA4125D84D39001CDE094E89001CCE0DE
:1047600064809483503C127224900732EFF01261FF
:10477000689007C0EEF0A3EFF09007BD74FFF0A3C0
:104780007425F0A37428F0900318E0FFA3E09007CD
:10479000C2CFF0A3EFF07B017A04791E121AA412A3
:1047A0005D84D39001CDE094E89001CCE0648094E6
:1047B000835022127224900732EFF09007BD74FFED
:1047C000F0A37425F0A3744DF07B017A04791E12D6
:1047D0001AA4125D84E4900522F0FF026A5B900740
:1047E00070EEF0A3EFF0A3ECF0A3EDF0AFE2AD07B5
:1047F0007C00AFE3EFFEE42DFDEC3EFC900770E0A3
:10480000FEA3E0FFC3ED9FFFEC9EFED3900773E095
:104810009F900772E09E5008ED2405FEE43C803333
:10482000C3900773E09FFF900772E09EFE900776AB
:10483000F0A3EFF0D39405EE94005008ED2405FEAC
:10484000E43C800FAE04AF05900777E02DFE9007A3
:1048500076E03C900774F0A3CEF053E5FB9007742C
:10486000E0FEA3E0F5DAEEF5DB43E50443E540D3F3
:104870009001CDE094019001CCE064809480501EC2
:104880009007BD74FFF0A37423F0A374F7F0A3E5C1
:10489000E5F07B017A04791E121AA4125D8C229035
:1048A0000779EBF0A3EAF0A3E9F074FF900781F039
:1048B000A3F0783B7C017D01900779E0FBA3E0FA4F
:1048C000A3E0F97E007F9012156A90077CE0FBA3BD
:1048D000E0FAA3E0F99000041215A924FFFFE434E4
:1048E000FFFE90077FE0FCA3E0FDC39FEE6480F82D
:1048F000EC6480985033EDAE047802C333CE33CEEF
:10490000D8F929F9EA3EFA90000A12167590078143
:104910001273BC90079AEFF0900781E0FEA3E0FFCE
:104920007B017A01793B02422E90077CE0F9A3E0FB
:10493000FAA3E0900786C9F0A3EAF0A3E9F0900794
:104940007FE0FFA3E0900789CFF0A3EFF090077915
:10495000E0FBA3E0FAA3E0F9125CEE22900735EE4B
:10496000F0A3EFF0127224A3EFF0125B139007385C
:10497000EBF0A3EAF0A3E9F0900738E0FBA3E0FA3C
:10498000A3E0F974211215D6900738E0FBA3E0FAF2
:10499000A3E0F990000174031215E8900002E412FC
:1049A00015E8900003E41215E81276E7900738E066
:1049B000FBA3E0FAA3E0F9900012EF1215E8E92456
:1049C00008F9E43AFA126C2A900002E0FF04F09031
:1049D0000738E0FBA3E0FAA3E0F9900011EF12150D
:1049E000E812752C900002E0700204F0900735E0A8
:1049F000FEA3E0FF7B017A01793B90079A7415F0E2
:104A000012422E90073BEFF0900737E0FF12765BE3
:104A100090073BE0FF22900743EBF0A3EAF0A3E905
:104A2000F0900743127092EF7003024ACD90074353
:104A3000E0FBA3E0FAA3E0F91275DD900746EFF082
:104A40009007B77401F0A37407F0A37447F09007C0
:104A5000431261A5900748EBF0A3EAF0A3E9F090B8
:104A60000743E0FBA3E0FAA3E0F91268D9EF90074F
:104A700046602DE0FF900748E0F9A3E0FAA3E0903C
:104A8000074FC9F0A3EAF0A3E9F0900747E09007C9
:104A900052F0900743E0FBA3E0FAA3E0F9023845A7
:104AA000E0FF900748E0F9A3E0FAA3E090074FC9C0
:104AB000F0A3EAF0A3E9F0900747E0900752F090E6
:104AC0000743E0FBA3E0FAA3E0F912747822900711
:104AD0005F1218E700000000900066E0FFA3E0907E
:104AE0000763CFF0A3EFF0126BB5900765EEF0A36C
:104AF000EFF01275C7EF6019900764E004F07006DC
:104B0000900763E004F0126BB5900765EEF0A3EF39
:104B1000F0900763E0FEA3E0FFE4FCFD900767125E
:104B200018DB900765E0FEA3E0FFE4FCFD90076B57
:104B30001218DB900767E0FCA3E0FDA3E0FEA3E012
:104B4000FF78101217B5A3E0F8A3E0F9A3E0FAA3E9
:104B5000E04FFFEA4EFEE94DFDE84CFC90075F1286
:104B600018DB90075FE0FCA3E0FDA3E0FEA3E0FFFD
:104B70009007671218DB900767E0FCA3E0FDA3E055
:104B8000FEA3E0FF2290073CEBF0A3EAF0A3E9F0DC
:104B9000A3EDF090073CE0FBA3E0FAA3E04A4B70E2
:104BA0000790074604F0FF2290073CE0F9A3E0FAE3
:104BB000A3E0900729C9F0A3EAF0A3E9F0E490008C
:104BC0005DF0900531F090072FF090053BF0A3F0D9
:104BD00090073CE0FBA3A3E09007431274D2AD071B
:104BE000900743E0FBA3E0FAA3E0F91272E190071B
:104BF0003CE0FBA3E0FAA3E0F91274DBAD079007F9
:104C00003CE0FBA3E0FAA3E0F912722C90073CE031
:104C1000FBA3E0FAA3E09007401274D2AD0790071F
:104C200040E0FBA3E0FAA3E0F91272E11266801201
:104C3000696C7F0022E0FBA3E0FAA3E0F990076330
:104C4000EBF0A3EAF0A3E9F0A3EDF01272249007D1
:104C50006DEFF0900766E0FDA3E0F9A3E0FAA3E0B2
:104C6000900773C9F0A3EAF0A3E9F090076AE0F9AE
:104C7000A3E0FAA3E0900776C9F0A3EAF0A3E9F075
:104C8000900763E0FBA3E0FAA3E0F912650A90073E
:104C900066E0FDA3E0F9A3E0FAA3E0900773C9F092
:104CA000A3EAF0A3E9F090076AE0F9A3E0FAA3E031
:104CB000900776C9F0A3EAF0A3E9F0900763E0FB60
:104CC000A3E0FAA3E0F91273AB90076E7409F090B9
:104CD000076DE0FF12765BA3E0FF22900522E064FF
:104CE00001703ED39001CDE094E89001CCE0648067
:104CF00094834003024D7A127224900735EFF090AE
:104D000007BD74FFF0A37424F0A37476F07B017ADE
:104D100004791E121AA4900735E0FF12765B025D3B
:104D20008CD39001CDE094E89001CCE06480948332
:104D3000503F127224900735EFF01261689007C05F
:104D4000EEF0A3EFF09007BD74FFF0A37424F0A37E
:104D5000748DF0900318E0FFA3E09007C2CFF0A39A
:104D6000EFF07B017A04791E121AA4900735125DC8
:104D700087E4900522F090053AF022900738EFF092
:104D8000126C02900739EBF0A3EAF0A3E9F0900669
:104D90006DE02403540390073CF01273FDEF706242
:104DA00090052DE0FF900738E02FF0E05403F090DD
:104DB000073CE0FF900738E0FE6F603BEE045403D1
:104DC000FD90073DF075F003A424CEF582E4340590
:104DD000F583E0FBA3E0FAA3E0F9EE75F003A42469
:104DE000CEF582E43405F583EBF0A3EAF0A3E9F015
:104DF000900738EDF080B890066DEFF090072CE04A
:104E000014F0900739E0FBA3E0FAA3E0F990073E25
:104E1000EBF0A3EAF0A3E9F022787FE4F6D8FD9066
:104E200000017FFE7E1FE4F0A3DFFCDEFA75812126
:104E3000024E6E026719E493A3F8E493A34003F6CD
:104E40008001F208DFF48029E493A3F85407240CCE
:104E5000C8C333C4540F4420C8834004F4568001AF
:104E600046F6DFE4800B0102040810204080902603
:104E700002E47E019360BCA3FF543F30E509541F58
:104E8000FEE493A360010ECF54C025E060A840B8B3
:104E9000E493A3FAE493A3F8E493A3C8C582C8CA31
:104EA000C583CAF0A3C8C582C8CAC583CADFE9DE04
:104EB000E780BE125B13900735EBF0A3EAF0A3E99D
:104EC000F01215906425703E900735E0F9A3E0FAE2
:104ED000A3E0A3C91261611255BD90073BEEF0A398
:104EE000EFF0900738E0F9A3E0FAA3E0900786C955
:104EF000F0A3EAF0A3E9F0A3EEF0A3EFF07B017AD0
:104F000001793B025CEE900735E0FBA3E0FAA3E0F9
:104F1000F9121590B426359007381261601255BD0C
:104F200090073BEEF0A3EFF0900738E0F9A3E0FA2A
:104F3000A3E090078EC9F0A3EAF0A3E9F0A3EEF096
:104F4000A3EFF07B017A01793B1258432290075F6F
:104F5000EEF0A3EFF0A3ECF0A3EDF0AFE2AD077C31
:104F600000AFE3EFFEE42DFDEC3EFC90075FE0FEBA
:104F7000A3E0FFC3ED9FFFEC9EFED3900762E09F8E
:104F8000900761E09E5008ED2405FEE43C8033C3A9
:104F9000900762E09FFF900761E09EFE900765F03A
:104FA000A3EFF0D39405EE94005008ED2405FEE441
:104FB0003C800FAE04AF05900766E02DFE900765BC
:104FC000E03C900763F0A3CEF053E6FB900763E06C
:104FD000FEA3E0F5DCEEF5DD43E60443E640229077
:104FE0000735EDF0127224A3EFF0900018E070087E
:104FF000900736E0FF02765B900736E0FF12765BA3
:10500000900735E0FD126DCB900735E06043D390FB
:1050100001CDE094649001CCE06480948050321221
:105020007224900736EFF09007BD74FFF0A374234D
:10503000F0A37407F0900735E0FF9007C0E4F0A3F9
:10504000EFF07B017A04791E121AA4900736125DE4
:1050500087127224900736EFF0E4900018F0127671
:105060005B7F07126A5B22E4FDFC90053AE0D39473
:105070000540037404F0E4FB90053AE0FFEBC39FA6
:10508000506774582BF582E43400F583E090073EB6
:10509000F0C39441400DE0FFD394465006EF24C97D
:1050A000F0802A90073EE0FFC39461400CEFD39458
:1050B000665006EF24A9F0801490073EE0FFC394E9
:1050C00030400AEFD394395004E024D0F0EDC4F816
:1050D000540FC868FFECC454F048FE90073EE07CD3
:1050E000002FFDEC3EFC0B808FAE04AF0522900735
:1050F00034EFF0B41100506D9050FFF8282873027F
:10510000513202513502513802513B02513E025197
:105110004102514402514702514A02514D0251503D
:1051200002515302515602515902515C02515F0221
:105130005162024CDB023A8302776D025E1702284D
:10514000E6025F7B0260D602526B026F5B025BB7C6
:1051500002766A02742D0275D2024EB3025F3502E6
:105160006091027661900734E0FF12771722900772
:10517000B4EFF01272249007B9EFF0D39001CDE0B4
:1051800094019001CCE064809480502E9007BD740F
:10519000FFF0A37425F0A3749BF09007B5E0FCA387
:1051A000E0FDA3E0FEA3E0FF9007C01218DB7B0147
:1051B0007A04791E121AA4125D8C12715A9007BBE0
:1051C0001218DB9007B5E0FCA3E0FDA3E0FEA3E02E
:1051D000FF9007BF1218DB9007C37401F09007B46B
:1051E000E0FF1254D49007B9E0FF02765B900735D8
:1051F000EFF012722490073AEFF0D39001CDE094D3
:10520000019001CCE064809480502E9007BD74FF23
:10521000F0A37422F0A374DAF0900736E0FCA3E068
:10522000FDA3E0FEA3E0FF9007C01218DB7B017A2C
:1052300004791E121AA4125D8C12715A9007BB12C7
:1052400018DB900736E0FCA3E0FDA3E0FEA3E0FF3F
:105250009007BF1218DBE49007C3F0900735E0FF1A
:105260001254D490073AE0FF02765B127224900742
:105270003BEFF0900018E0600280651273FDEF6074
:1052800002805D126498900735EBF0A3EAF0A3E981
:10529000F0900735E0FBA3E0FAA3E04A4B7005125B
:1052A0006A55803C900735E0FBA3E0FAA3E0F912D1
:1052B00074DBAD07900735E0FBA3E0FAA3E0F91239
:1052C0004B85EF700790001804F08014900735E0CC
:1052D000FBA3E0FAA3E0F97D01126DCBE4126A555D
:1052E00090073BE0FF12765B22900737EFF09001CA
:1052F000EAE0FBA3E0FAA3E0F9EA494B605E90071D
:1053000037E0FF90041CE475F00112165F85F0820F
:10531000F583EF1215E890027EE0FCA3E0FDC39058
:10532000041DE09D90041CE09C40399001EAE0F9E6
:10533000A3E0FAA3E0900738C9F0A3EAF0A3E9F0EC
:105340009001EAE4F0A3F0A3F0900738E0FBA3E0BB
:10535000FAA3E0F9E4900740F0027342900737E0C7
:10536000FF12396722E5B454F3440CF5B490618917
:105370007448F075E1E3906199E030E0F9E490075A
:1053800033F0A3F0A3F0900734E025E0FF9007335B
:10539000E033FE9061A7E05401FDEF4DFF9007332D
:1053A000EEF0A3EFF0A3E004F0E0B410D9900733DF
:1053B000E0FEA3E0FF4E6006BE030DBF800A90072B
:1053C0003374BAF0A374BEF0900733E0FEA3E0F5A7
:1053D000BCEEF5BC75E1EF9061897440F07F00226E
:1053E00078047C007D017E007F0812156A90000B16
:1053F000E09006BDF090000AE09006BEF090000933
:10540000E09006BFF0900008E09006C0F090000722
:10541000E09006C1F0900006E09006C2F090000512
:10542000E09006C3F0900004E09006C4F07FE87EB0
:10543000FF7D037C00126DA67B017A0679BD900783
:105440008BE4F0A37408F07FE87EFF7D037C0012FC
:1054500066531258A71257DC02674C900740EBF0D6
:10546000A3EAF0A3E9F090073FEFF014601B14608B
:105470002914603724037044900740E0FBA3E0FA4E
:10548000A3E0F9A3E0FD02773C900740E0FBA3E036
:10549000FAA3E0F9A3E0FD027739900740E0FBA30F
:1054A000E0FAA3E0F9A3E0FD027736900740E0FBC5
:1054B000A3E0FAA3E0F9A3E0FD02773390073FE011
:1054C000FFA3E0FBA3E0FAA3E0F9A3E0900748F014
:1054D0001274A522EF75F009A42419F9740035F0AF
:1054E000FA9007C47401F0A3EAF0A3E9F09007BBB7
:1054F000E0FCA3E0FDA3E0FEA3E0FF9007C4E0FB17
:10550000A3E0FAA3E0F91218189007BFE0FCA3E0AB
:10551000FDA3E0FEA3E0FF9007C4E0FBA3E0FAA335
:10552000E0F99000041218329007C3E05401FFE93B
:105530002408F9E43AFA12159054FE4F1215D64495
:10554000021215D67F04026A5B7B017A0179EE7D37
:1055500001126542EF60659001EEE0FFD3947F4059
:105560001475E1ED75E1EDE4F59B75E9FB9006BA84
:10557000F0900539F0EF547F9001EEF07B017A0155
:1055800079EFE0FD126542EF60329001EEE0FF241A
:10559000EEF582E43401F583E030E70C7B017A011B
:1055A00079EEEF04FD023DBE75E1ED75E1EDE4F548
:1055B0009B75E9FB9006BAF0900539F02290073808
:1055C000AC06AD07E0FBA3E0FAA3E0F9900779EBA6
:1055D000F0A3EAF0A3E9F0A3ECF0A3EDF0E4A3F06C
:1055E000900779E0FBA3E0FAA3E0F990000412151C
:1055F000A9FF90077EE0FEC39F502EEE75F004A435
:10560000FFE92FF9EA35F0FA900006121675FF90BF
:10561000077CE0B5F00BA3E0B50706A3E0FF7E0032
:105620002290077EE004F080B77EFF7FFF22900784
:10563000DAEFF075F01284AFF0EFF012604CEF701B
:1056400055900052E02401FFE433FE7C007D1212ED
:10565000160A900730E0B50502803B900052E075D5
:10566000F01284E5F0F09007DAE0FF900052E0FEDF
:1056700024D2F582E43401F583EFF0EE2401FFE457
:1056800033FE7C007D1212160A900052EDF0900756
:10569000DB7401F0FF22E49007DBF0FF229002832D
:1056A000E0FEA3E0FFC3900520E09F90051FE09E71
:1056B000900280E0501DFBA3E0FAA3E0F990051FE3
:1056C000E475F00112165F85F082F5831215A9FFCB
:1056D0000271D1F9A3E0FAA3E0900736C9F0A3EA7A
:1056E000F0A3E9F0900280E4F0A3F0A3F090073675
:1056F000E0FBA3E0FAA3E0F9900283E0FCA3E0FD65
:10570000E490073EF0127354229007D8EFF012761F
:10571000129007DAEFF0E49007D9F09007DAE0FE94
:105720009007D9E0FFC39E5040126C029007DBEB5C
:10573000F0A3EAF0A3E9F09007DBE0FBA3E0FAA313
:10574000E04A4B601C9007DBA31272FF9007D8E081
:10575000B5070EA3E0FF7E009007DEEEF0A3EFF0AA
:10576000229007D9E004F080B274FF9007DBF0A329
:10577000F0FFFE22900737EBF0A3EAF0A3E9F0D3A5
:105780009001CDE094E89001CCE064809483503F98
:1057900012722490073AEFF09007BD74FFF0A374E3
:1057A00023F0A37435F0ED7BFF70067A23794180F6
:1057B000047A2379449007C0EBF0A3EAF0A3E9F060
:1057C0007B017A04791E121AA490073A125D87E4CD
:1057D0009001EDF0900522F0FF026A5B900004E07A
:1057E00090616AF0900005E090616BF0900006E037
:1057F00090616CF0900007E090616DF0900008E01F
:1058000090616EF0900009E090616FF090000AE006
:10581000906170F090000BE0906171F01275E8906B
:105820000777EEF0A3EFF01275F3AD07AC06900723
:1058300077E0FEA3E0906172F0EEA3F0EDA3F0EC50
:10584000A3F02274FF900793F0A3F0783B7C017DD6
:10585000017E007F9012156A900791E0FEA3E0FFA1
:10586000D39400EE64809480403CEF7802C333CE42
:1058700033CED8F9FF90078EE0FBA3E0FAA3E02F28
:10588000F9EA3EFA9000021216759007931273BC63
:1058900090079AEFF0900793E0FEA3E0FF7B017A78
:1058A00001793B12422E227B017A0679BD90078B4B
:1058B000E4F0A37408F07FE87EFF7D037C00126EA5
:1058C000E61240779006C4E0900004F09006C3E032
:1058D000900005F09006C2E0900006F09006C1E04E
:1058E000900007F09006C0E0900008F09006BFE03E
:1058F000900009F09006BEE090000AF09006BDE02E
:1059000090000BF02290073812721690073EEFF0CD
:1059100090073AE0FBA3E0FAA3E02485F9E43AFA21
:105920007D0312726790073AE0FBA3E0FAA3E0243C
:105930000AF9E43AFA7D7C1272E190073EE0FF1228
:10594000765B900738E0FCA3E0FDA3E0FBA3E0FA60
:10595000A3E0F9A3E09007C0F07F0312370222A270
:10596000AFE43390013AF0C2AF900015E0FF90072A
:1059700036F0E4900015F090013AE024FF92AFEF8A
:1059800030E0031268A8900736E030E10312687730
:10599000900736E030E203127775900736E030E585
:1059A000031276FF900015E0600E12722490073704
:1059B000EFF090000C12765822E490076AF09007FE
:1059C0006AE0FFC394645023EF25E0246CF582E481
:1059D0003400F583E0FEA3E04E700890076A7E0075
:1059E000A3802A90076AE004F080D3900523E0901A
:1059F000076AF0FB2401FFE433FE7C007D6412168D
:105A00000A900523EDF0EBFF7E0090076BEEF0A30C
:105A1000EFF02290075DEEF0A3EFF0A3EBF0A3EA26
:105A2000F0A3E9F090075FE0FBA3E0FAA3E0248590
:105A3000F9E43AFAE4FD12726790075FE0FBA3E035
:105A4000FAA3E0240AF9E43AFA7D7B1272E19007A6
:105A50005DE0FCA3E0FDA3E0FBA3E0FAA3E0F9A373
:105A6000E09007C0F0E4FF12370222900744EBF009
:105A7000A3EAF0A3E9F0A3EDF0900316E0603F90F5
:105A80000747E0702890074412726D900748EBF0CA
:105A9000A3EAF0A3E9F09000011215A9600F9007A6
:105AA000B51218E7000000327F0302516E900744E0
:105AB000E0FBA3E0FAA3E0F9A3E0FD125FCE2290A1
:105AC0000744EBF0A3EAF0A3E9F0A3EDF090028520
:105AD000E0603F900747E0702890074412726D9095
:105AE0000748EBF0A3EAF0A3E9F09000011215A932
:105AF000600F9007B51218E7000000327F010251D5
:105B00006E900744E0FBA3E0FAA3E0F9A3E0FD12E6
:105B1000623B22900743E4F0A3F0A3F07B017A01FB
:105B2000793B900740EBF0A3EAF0A3E9F0A3E0FB98
:105B3000A3E0FAA3E04A4B601590074012729B90D5
:105B40000743E0FBA3E0FAA3E0F9EF1215D69007B4
:105B5000B7E4F0A3F0A3F09007401261A5E9240296
:105B6000F9E43AFA22D285C286C287C281C285EAA6
:105B7000C0037B08334004C287617DD287C286D2CE
:105B800086DBF1D003D285C287C286C28122D2854C
:105B9000C286C287D281C285EAC0037B0833400433
:105BA000C28761A6D287C286D286DBF1D003D285B6
:105BB000C287C286C2812212636EAD0790053BE0A8
:105BC000FEA3E0FFD3945AEE940040089005CD74F4
:105BD0005AF080289005CDE0FB7A00D3EF9BEE9A37
:105BE000401190053CE02BFF90053BE03AC313EFDA
:105BF00013800590053BA3E09005CDF0ED60028099
:105C000001E4FF1271E822900138E0FF900014E0F7
:105C1000FEB50703D38001C3403BEE543F247AF521
:105C200082E43406F583E0FDEE04543F900014F066
:105C3000AF051252E9900138E0FF900014E0B5077B
:105C400003D38001C3400E127224900736EFF09008
:105C5000000D1276582290073812721690073EEF08
:105C6000F090073AE0FBA3E0FAA3E02485F9E43AD8
:105C7000FA7D0212726790073A7DF11272D4900792
:105C80003EE0FF12765B900738E0FCA3E0FDA3E066
:105C9000FBA3E0FAA3E0F9A3E09007C0F07F0212B3
:105CA0003702229007B4EEF0A3EFF0A3EBF0A3EAE3
:105CB000F0A3E9F09007B6E0FBA3E0FAA3E02485A7
:105CC000F9E43AFA7D011272679007B67DF012721C
:105CD000D49007B4E0FCA3E0FDA3E0FBA3E0FAA3AB
:105CE000E0F9A3E09007C0F07F011237022290078D
:105CF00083EBF0A3EAF0A3E9F0A3E0FBA3E0FAA3AF
:105D0000E0F974261215D6900786E0F9A3E0FAA30D
:105D1000E090078EC9F0A3EAF0A3E9F0900789E0CC
:105D2000FFA3E0900791CFF0A3EFF0900783E0FB93
:105D3000A3E0FAA3E0F9025843127224900738EF67
:105D4000F0900062E0FCA3E0FDA3E0FEA3E02401EC
:105D5000FFE43EFEE43DFDE43CFC9000621218DBF3
:105D6000900062E0FCA3E0FDA3E0FEA3E0FFE4FB03
:105D7000FAF9F8C312179170031276F9900738E018
:105D8000FF02765B900732E0FF12765BE49007BA81
:105D9000F0A3F09007BAE0FEA3E0FFC3EE648094A6
:105DA00081502A741E2FF58274043EF583E0601D35
:105DB0009007BAE475F00112165FFE741E25F0F527
:105DC0008274043EF583E0FF12728280C62290073F
:105DD000D4EBF0A3EAF0A3E9F09007D41272FA1220
:105DE0005709C3EE6480948040089007D77434F05C
:105DF000FF229007D4E0FBA3E0FAA3E0F9126007CA
:105E0000EF60089007D77435F0FF227F07126A5BB6
:105E1000E49007D7F0FF22127224900735EFF0903C
:105E20000003E0702F126422C004C005C006C00742
:105E3000900532E0FCA3E0FDA3E0FEA3E0FF9007A5
:105E4000571218DBE490075BF0D007D006D005D0DE
:105E500004125EA71267E4900735E0FF02765B90BC
:105E60000052E0FF900730E0FEB507037FFF227489
:105E7000D22EF582E43401F583E0900734F0FB7410
:105E8000D22EF582E43401F58374FFF0EE2401FF95
:105E9000E433FE7C007D1212160A900730EDF0EB21
:105EA00075F01284AFF0229007531218DB90075759
:105EB000E0FCA3E0FDA3E0FEA3E0FF900532121892
:105EC000DB90075BE0900003F0900757E0FCA3E055
:105ED000FDA3E0FEA3E0FF9007601218DB900753DC
:105EE000E0FCA3E0FDA3E0FEA3E0FF026FB4E490BA
:105EF000076AF090076AE0FDC39464502DED25E039
:105F0000246CF582E43400F583E0FCA3E0B50712CD
:105F1000ECB5060E90076AE0FF7E00A3EEF0A3EF5B
:105F2000F02290076AE004F080C974FF90076BF0DC
:105F3000A3F0FFFE22127224900735EFF090053790
:105F4000E07002802D9001CFE0FF04F0EFC39414C5
:105F500050109001E71265AFEF60177F0E126A5B79
:105F600080109001E7E0FBA3E0FAA3E0F97D37128F
:105F7000690A900735E0FF12765B221272249007BF
:105F800035EFF0900536E07002802D9001CEE0FFF5
:105F900004F0EFC3941450109001E41265E4EF6034
:105FA000177F05126A5B80109001E4E0FBA3E0FA22
:105FB000A3E0F97D3712693B900735E0FF12765B6D
:105FC00022900053E0FBA3E0FAA3E0F97D361272C1
:105FD00024900769EFF0900316E07008900769E0DD
:105FE000FF02765B7F041270E0900053EBF0A3EAAF
:105FF000F0A3E9F09006BCEDF0900769E0FF12769F
:106000005B7F0F126A5B22127697AE07127612EF51
:10601000C39E503090066DE075F003A424CEF58247
:10602000E43405F583EBF0A3EAF0A3E9F090066D04
:10603000E004F0E05403F090072CE004F0E4900753
:10604000D8F0FF229007D87401F0FF22AB07900729
:1060500030E075F01284AFF0900052E0FA6F602EDD
:1060600074D22FF582E43401F583E0B503037F0198
:1060700022EF2401FFE433FE7C007D1212160AAFEA
:1060800005EA75F01284900052E5F0F080CA7F00B6
:1060900022127224900735EFF0900316E0700790FB
:1060A0000735E0FF802C900053E0FBA3E0FAA3E06B
:1060B000F99006BCE0FE900735E0FF12765BAF0674
:1060C000AD0712730C127224900735EFF0E49003C1
:1060D00016F012765B22127224900735EFF09002D0
:1060E00085E07007900735E0FF802C90004FE0FBC3
:1060F000A3E0FAA3E0F99006BBE0FE900735E0FFCD
:1061000012765BAF06AD071273301272249007351A
:10611000EFF0E4900285F012765B22E5915408FFDF
:106120009061A4E0FE5F60057591F7801DE59154D4
:10613000105E60057591EF8011E5915401FF90614B
:10614000A4E0FE5F6004EE54FEF0E5E95404FF9025
:1061500061A3E05F60061263AA75E9FBE4F59B2288
:10616000EBF0A3EAF0A3E9F01272249007CFEFF06E
:10617000900538E07011127727900016EEF0A3EF2B
:10618000F09005387401F0127727900016E06E70D9
:1061900003A3E06F6003126E379007CFE0FF127623
:1061A0005B12772722E0FBA3E0FAA3E0F99007B4A3
:1061B000EBF0A3EAF0A3E9F0A3E0FBA3E0FAA3E08D
:1061C0004A4B60159007B41273789007B7E0FBA3B1
:1061D000E0FAA3E0F9EF1215D69007B4E0FBA3E0D4
:1061E000FAA3E0240CF9E43AFA221272249007335D
:1061F000EFF0125E5F900732EFF0A3E0FF12765BE4
:10620000900732E0900524F0127242126272EF6041
:106210000512645D80F5900732E0FFF460051250CE
:10622000EE80C7126272EF70C1126D8180BC900067
:106230004FE0FBA3E0FAA3E0F97D36127224900749
:1062400069EFF0900285E07008900769E0FF027640
:106250005B1270DE90004FEBF0A3EAF0A3E9F09040
:1062600006BBEDF0900769E0FF12765B7F06126ACD
:106270005B22127224900734EFF0E4A3F09007350C
:10628000E0FFC39404501C740C2FF582E43400F535
:1062900083E060079007367401800C900735E004B6
:1062A000F080DAE4900736F0900734E0FF12765B76
:1062B000900736E0FF22E5C65480FE53BEFBE59D05
:1062C00030E5FBE59D20E2F6EFB40107EE4449F529
:1062D000C68007EF7004AF068FC6900732E5C6F0A0
:1062E000900733E59EF0900732E0FFA3E0B507F09A
:1062F00043BE0422E0FBA3E0FAA3E0F9C002C00120
:1063000090076CE0F9A3E0FAA3E0900775C9F0A349
:10631000EAF0A3E9F090076FE0F9A3E0FAA3E090B8
:106320000778C9F0A3EAF0A3E9F0D001D002027522
:1063300098AD07900732E0FF127414EFF0E4F5E532
:10634000F5E6F5E79062A3F0A3F0F5E2E5C654C7E1
:106350004418F5C6E5E454F3440CF5E4E5E454FCD4
:106360004401F5E4E4F5AF43D840D2B9FF229007E9
:10637000351218E7000000009007397401F075E14C
:10638000E99007351218A6E47B987A3AF9F8D31207
:106390001791400AE59130E1E8E4900739F0E4F51F
:1063A0009B7591FD900739E0FF2290619BE0FFD340
:1063B0009400402BEFD39480400C75E1ED75E1ED36
:1063C000E4F59B75E9FB9006BAE0FF241AF582E438
:1063D0003403F583E5D9F0EF049006BAF080CB9052
:1063E000000F7401F022900880EBF0A3EAF0A3E91B
:1063F000F07D10EBF8E20B7C08334006C0E0EAF8D1
:106400008106C0E0E9F8C002E2FA125B8E08E2FA07
:10641000125B8E08E2FA125B8ED002D0E0DCDADD8D
:10642000D222900525E0FCA3E0FDA3E0FEA3E0FF5F
:1064300090005EE0F8A3E0F9A3E0FAA3E02FFFEA02
:106440003EFEE93DFDE83CFC9007361218DB900764
:1064500036E0FCA3E0FDA3E0FEA3E0FF22E490070A
:1064600034F0900734E0FFC39404502B740C2FF5E4
:1064700082E43400F583E06016C2AF900734E02474
:106480000CF582E43400F583E4F0D2AF126C78901E
:106490000734E004F080CB22126D3790073CEBF01C
:1064A000A3EAF0A3E9F01273FDEF701090052DE060
:1064B00004F0E05403F090072CE014F090073CE067
:1064C000FBA3E0FAA3E0F9A3EBF0A3EAF0A3E9F061
:1064D0002212705D900735EFF012711012740DEFFB
:1064E000F012704212740DEFF01270F712740DEF8B
:1064F000F01274FA12740DEFF012741D12740DEF95
:10650000F0126B5B12740DEFF02290076FEBF0A3AB
:10651000EAF0A3E9F0A3EDF07E007F097D0090078B
:1065200076E0FBA3E0FAA3E0F9121991900776E078
:10653000FBA3E0FAA3E0F9900772E0FD1272677F17
:106540000922EDD39400402E9006BAE0FF90053961
:10655000E0FEB507037F0022EE241AF582E434033F
:10656000F583E01215D6900539E004F0740129F99D
:10657000E43AFA1D80CC7F0122AC06AD07E0FBA314
:10658000E0FAA3E0F9121590FBE4FFAA07127224C7
:10659000900763EFF0AE04AF05AD021243E1900740
:1065A00064EFF0900763E0FF12765BA3E0FF22E068
:1065B000FBA3E0FAA3E0F99007A3EBF0A3EAF0A3B2
:1065C000E9F09007A31274E09007A3127297900766
:1065D000ABEFF09007A3E0FBA3E0FAA3E0F9AF056F
:1065E00012458222E0FBA3E0FAA3E0F990074CEB0E
:1065F000F0A3EAF0A3E9F090074C1274E090074C86
:10660000127297900754EFF090074CE0FBA3E0FA6A
:10661000A3E0F9AF0512464D229007D2EDF09007A6
:10662000CFEBF0A3EAF0A3E9F02403F9E43AFA90FF
:106630000137E004FDF01272E19007CFE0FBA3E028
:10664000FAA3E0F9125DCE9007D3EFF0227EF87D39
:10665000007C00900788EBF0A3EAF0A3E9F0C00704
:10666000900788E0FBA3E0FAA3E0F9A3E0FFA3E032
:10667000900794CFF0A3EFF0D0071200867F00229E
:106680001271FF9005CDE0FD7C0012160AAF059057
:10669000052FEFF0700204F090052FE0FF7E0090D0
:1066A000053CE02FF090053BE03EF07C007D0A12B7
:1066B000196422900757EFF01460131460131460EC
:1066C000131460131460132405701202771D0276F0
:1066D0001C02762602763002763A027745900757FA
:1066E000E0FF1276ED221271FF9005CDE0FD7C00F7
:1066F00012160AAF0590052FEFF0700204F0900516
:106700002FE0FF7E0090053CE02FF090053BE03E3F
:10671000F07C007D0A12196422127224900731EF76
:10672000F01270AC126AAF1272C0EF70FA126815F4
:106730001272C0EF70FA900731E0FF12765B1277A9
:10674000511247181261EA7EFF7FFF221275E8EFAF
:10675000FB1275F3AC06AD07AF031273DD1275F3D0
:10676000900677EEF0A3EFF01275F390041AEEF0B6
:10677000A3EFF01275E8900318EEF0A3EFF022E01B
:10678000FBA3E0FAA3E0F9900763EBF0A3EAF0A320
