:0600000002428B0262AA1D
:03001300026A4539
:03001B00026A5521
:03002B00026A6501
:03003B00026A4D09
:03004B0002622925
:03006B00026965C2
:03007300026A5DC1
:03007B00026971A6
:10008300026206900745121457900749EBF0A3EA62
:10009300F0A3E9F0A2AFE433900750F0C2AFE4FB62
:1000A3007A08F9F8900745E0FCA3E0FDA3E0FEA37E
:1000B300E0FF121265AB07900745A3A3E0FEA3E0A0
:1000C300FFEE5407FEE4FDFC780812131EAA079006
:1000D3000745A3A3A3E0FFE4FEFDFC780212131E71
:1000E300AE03EE25E0FEEA1313543F4E906272F026
:1000F300AE02EEC4333354C04F906271F0AFC79079
:10010300074EE4F0A3EFF043C70890082E7401F004
:10011300A37487F0A374A0F0900749E0FBA3E0FA6F
:10012300A3E0F9C002A3E0FCA3E0FD90082EA3E046
:10013300FAA3E0F5828A83D00212149890074EA3A3
:10014300E0F5C7A3E024FF92AF22900745EBF0A3AD
:10015300EAF0A3E9F0A3121457A2AFE43390074FD8
:10016300F0C2AF900748E0FCA3E0FDA3E0FEA3E0EC
:10017300FF780F12131EEF5407FFAB07900748A336
:10018300A3E0FEA3E0FFEE547FFEE42FFFEE3480F6
:10019300FE90074EE5C7F0E054F8AC034CF5C7906A
:1001A300074CE0FCA3E0FDC004C005AA06A9077B39
:1001B30001C002900745A3E0FAA3E0F8AC027D0179
:1001C300D002D007D0061210D090074EE0F5C7A397
:0601D300E024FF92AF22C0
:0407000000010001F3
:100800007B00782075C9A875C958E8030303035411
:1008100007F5C7F59FE8540F2323234480F585751A
:10082000840075831075820079107A80759201E4D6
:1008300093A3759200F0A3DAF3D9EF759201758551
:1008400062758472EB23F0758562758470E0548064
:1008500070FB7401F000E0548070FB7592017585A7
:1008600062758472EB23F0758562758471E4F07AA9
:100870001079007C087D00E5C74408F5C7C000C0BA
:100880000312089DD003D000E5C754F7F5C7EB70FD
:1008900002080B080BEB941F601902080475920004
:1008A0007583084383807582F0E4737583087582CD
:1008B00000E473002275AE0100E5AE548070FA22A8
:1008C0007B0110AF027B00C083C082C085C084C0A2
:1008D00092EAF583E9F582759201758562758470F7
:1008E000E0548070FB7402F0EC60277A4079047564
:1008F0009200E0A3759201758562758473F0D9EF5B
:100900007400F0758562758470E0544070FBDADD28
:10091000DCD9ED6029ED54FC0303FD7904759200E8
:10092000E0A3759201758562758473F0D9EF740048
:10093000F0758562758470E0544070FBDDDDD09207
:10094000D084D085D082D083EB6002D2AF2275C92B
:10095000A875C9587C087B007A0879B57D0B75921B
:10096000008A838982E493A3AA83A9828C838B82E1
:10097000F0A3AC83AB821DED70E47C087BF07A08B9
:1009800079C07D8E7592008A838982E493A3AA83BD
:10099000A9828C838B82F0A3AC83AB821DED70E4C3
:1009A00022C2AF75C90812094E1208000209AFE44D
:0A09B000F5C975C90B80FE0209A10C
:10100000E709F608DFFA8046E709F208DFFA803ED2
:1010100088828C83E709F0A3DFFA8032E309F608BF
:10102000DFFA8078E309F208DFFA807088828C8327
:10103000E309F0A3DFFA806489828A83E0A3F608DB
:10104000DFFA805889828A83E0A3F208DFFA804CB5
:1010500080D280FA80C680D4806980F2803380108C
:1010600080A680EA809A80A880DA80E280CA8033F5
:1010700089828A83ECFAE493A3C8C582C8CCC5836D
:10108000CCF0A3C8C582C8CCC583CCDFE9DEE7803D
:101090000D89828A83E493A3F608DFF9ECFAA9F0BC
:1010A000EDFB2289828A83ECFAE0A3C8C582C8CC12
:1010B000C583CCF0A3C8C582C8CCC583CCDFEADE2B
:1010C000E880DB89828A83E493A3F208DFF980CC8D
:1010D00088F0EF60010E4E60C388F0ED2402B40486
:1010E0000050B9F582EB2402B4040050AF2323452D
:1010F000822390105073BB010689828A83E02250BC
:1011000002E722BBFE02E32289828A83E49322BBA8
:10111000010CE58229F582E5833AF583E022500649
:10112000E92582F8E622BBFE06E92582F8E222E5FF
:101130008229F582E5833AF583E49322BB0106898F
:10114000828A83F0225002F722BBFE01F322F8BB11
:10115000010DE58229F582E5833AF583E8F0225016
:1011600006E92582C8F622BBFE05E92582C8F222DF
:10117000BC000BBE0029EF8DF084FFADF022E4CC63
:10118000F875F008EF2FFFEE33FEEC33FCEE9DEC2C
:10119000984005FCEE9DFE0FD5F0E9E4CEFD22ED72
:1011A000F8F5F0EE8420D21CFEADF075F008EF2FBC
:1011B000FFED33FD4007985006D5F0F222C398FDAD
:1011C0000FD5F0EA22C5F0F8A3E028F0C5F0F8E565
:1011D00082158270021583E038F022A3F8E0C5F092
:1011E00025F0F0E582158270021583E0C838F0E83A
:1011F00022BB0110E58229F582E5833AF583E0F50B
:10120000F0A3E0225009E92582F886F008E622BB27
:10121000FE0AE92582F8E2F5F008E222E5832AF5E4
:1012200083E993F5F0A3E9932275F008758200EF46
:101230002FFFEE33FECD33CDCC33CCC58233C58208
:101240009BED9AEC99E58298400CF582EE9BFEEDC1
:101250009AFDEC99FC0FD5F0D6E4CEFBE4CDFAE490
:10126000CCF9A88222B800C1B90059BA002DEC8B84
:10127000F084CFCECDFCE5F0CBF97818EF2FFFEE60
:1012800033FEED33FDEC33FCEB33FB10D703994019
:1012900004EB99FB0FD8E5E4F9FA227818EF2FFF59
:1012A000EE33FEED33FDEC33FCC933C910D7059B9B
:1012B000E99A4007EC9BFCE99AF90FD8E0E4C9FAF7
:1012C000E4CCFB2275F010EF2FFFEE33FEED33FD83
:1012D000CC33CCC833C810D7079BEC9AE899400AA6
:1012E000ED9BFDEC9AFCE899F80FD5F0DAE4CDFB24
:1012F000E4CCFAE4C8F922EB9FF5F0EA9E42F0E96B
:101300009D42F0EC6480C864809845F022EB9FF524
:10131000F0EA9E42F0E99D42F0E89C45F022E86048
:101320000FECC313FCED13FDEE13FEEF13FFD8F12A
:1013300022E8600FEFC333FFEE33FEED33FDEC33F5
:10134000FCD8F122BB010789828A830214FF500571
:10135000E9F80214F3BBFE05E9F802150B89828A4D
:1013600083021517BB010DE58229F582E5833AF565
:10137000830214FF5007E92582F80214F3BBFE072D
:10138000E92582F802150BE58229F582E5833AF515
:1013900083021517BB010789828A830214575005FF
:1013A000E9F802155DBBFE05E9F802156922BB01EB
:1013B0000DE58229F582E5833AF58302145750073B
:1013C000E92582F802155DBBFE07E92582F80215C2
:1013D0006922BB010789828A830215345005E9F826
:1013E000021527BBFE05E9F802154089828A8302AF
:1013F000154DBB010DE58229F582E5833AF583029F
:1014000015345007E92582F8021527BBFE07E925A8
:1014100082F8021540E58229F582E5833AF58302D8
:10142000154D7401FF3395E0FEFDFCA3A3A3E0CFAF
:101430002FF0E582158270021583E0CE3EF0E58242
:10144000158270021583E0CD3DF0E58215827002B1
:101450001583E0CC3CF022ECF0A3EDF0A3EEF0A37A
:10146000EFF022A8828583F0D083D08212147A1202
:10147000147A12147A12147AE473E493A3C583C520
:10148000F0C583C8C582C8F0A3C583C5F0C583C8AD
:10149000C582C8228A838982E473EC8EF0A4CCC50D
:1014A000F0CCCDF8EFA4CEC5F02DFDE43CFCE8A4D3
:1014B0002EC8C5F03DFDE43CFCEFA4FFE5F028FE9E
:1014C000E43DFDE43CFC22EF4E6012EF60010EEDC6
:1014D000BB010B89828A83F0A3DFFCDEFA2289F04C
:1014E0005007F709DFFCA9F022BBFEFCF309DFFC83
:1014F000A9F022E6FC08E6FD08E6FE08E6FF22E089
:10150000FCA3E0FDA3E0FEA3E0FF22E2FC08E2FD75
:1015100008E2FE08E2FF22E493FC740193FD7402EA
:1015200093FE740393FF22E6FB08E6F908E6FA0847
:10153000E6CBF822E0F8A3E0F9A3E0FAA3E0FB226F
:10154000E2FB08E2F908E2FA08E2CBF822E493F8B9
:10155000740193F9740293FA740393FB22ECF60876
:10156000EDF608EEF608EFF622ECF208EDF208EEE2
:10157000F208EFF222F8E0FBA3A3E0F925F0F0E592
:1015800082158270021583E0FA38F022EBF0A3EAAC
:10159000F0A3E9F022D083D082F8E49370127401B2
:1015A00093700DA3A393F8740193F5828883E47379
:1015B0007402936860EFA3A3A380DF9006EE121479
:1015C00057E47FB07E04FDFC9006EEE0F8A3E0F95E
:1015D000A3E0FAA3E0FBC312130D700FE5C654405D
:1015E000C4131354032405FF02180EE47F607E0920
:1015F000FDFC9006EEE0F8A3E0F9A3E0FAA3E0FB1F
:10160000C312130D700FE5C65440C41313540324C2
:1016100006FF02180EE47FC07E12FDFC9006EEE08D
:10162000F8A3E0F9A3E0FAA3E0FBC312130D700FD7
:10163000E5C65440C4131354032407FF02180EE4F4
:101640007F807E25FDFC9006EEE0F8A3E0F9A3E0A4
:10165000FAA3E0FBC312130D700FE5C65440C41388
:101660001354032408FF02180EE47F407E38FDFC6B
:101670009006EEE0F8A3E0F9A3E0FAA3E0FBC312C2
:10168000130D700FE5C65440C4131354032408FF10
:1016900002180EE4FF7E4BFDFC9006EEE0F8A3E09E
:1016A000F9A3E0FAA3E0FBC312130D700FE5C654D3
:1016B00040C4131354032409FF02180EE47F807EF4
:1016C00070FDFC9006EEE0F8A3E0F9A3E0FAA3E0D9
:1016D000FBC312130D700FE5C65440C4131354031B
:1016E0002409FF02180EE4FF7E96FDFC9006EEE052
:1016F000F8A3E0F9A3E0FAA3E0FBC312130D700F07
:10170000E5C65440C413135403240AFF02180EE420
:10171000FF7EE1FDFC9006EEE0F8A3E0F9A3E0FA1D
:10172000A3E0FBC312130D700FE5C65440C413139E
:101730005403240AFF02180E7F007E2C7D017C00DA
:101740009006EEE0F8A3E0F9A3E0FAA3E0FBC312F1
:10175000130D700FE5C65440C413135403240BFF3C
:1017600002180E7F007EC27D017C009006EEE0F83C
:10177000A3E0F9A3E0FAA3E0FBC312130D700FE599
:10178000C65440C413135403240BFF02180E7F00E9
:101790007E587D027C009006EEE0F8A3E0F9A3E01D
:1017A000FAA3E0FBC312130D700EE5C65440C41338
:1017B000135403240CFF80567F007E847D037C003D
:1017C0009006EEE0F8A3E0F9A3E0FAA3E0FBC31271
:1017D000130D700EE5C65440C413135403240CFFBC
:1017E000802C7F007EB07D047C009006EEE0F8A3A4
:1017F000E0F9A3E0FAA3E0FBC312130D700EE5C6F7
:101800005440C413135403240DFF80027F008FC57E
:10181000E47FB07E04FDFC9006EEE0F8A3E0F9A3BF
:10182000E0FAA3E0FBC312130D70057F3B0219D051
:10183000E47F607E09FDFC9006EEE0F8A3E0F9A3EA
:10184000E0FAA3E0FBC312130D70057F3B0219D031
:10185000E47FC07E12FDFC9006EEE0F8A3E0F9A361
:10186000E0FAA3E0FBC312130D70057F3B0219D011
:10187000E47F807E25FDFC9006EEE0F8A3E0F9A36E
:10188000E0FAA3E0FBC312130D70057F3B0219D0F1
:10189000E47F407E38FDFC9006EEE0F8A3E0F9A37B
:1018A000E0FAA3E0FBC312130D70057FD80219D034
:1018B000E4FF7E4BFDFC9006EEE0F8A3E0F9A3E028
:1018C000FAA3E0FBC312130D70057F3B0219D0E4AD
:1018D0007F807E70FDFC9006EEE0F8A3E0F9A3E0C7
:1018E000FAA3E0FBC312130D70057FD80219D0E4F0
:1018F000FF7E96FDFC9006EEE0F8A3E0F9A3E0FA87
:10190000A3E0FBC312130D70057F3B0219D0E4FF67
:101910007EE1FDFC9006EEE0F8A3E0F9A3E0FAA377
:10192000E0FBC312130D70057FD80219D07F007E33
:101930002C7D017C009006EEE0F8A3E0F9A3E0FA2C
:10194000A3E0FBC312130D70057F3B0219D07F008B
:101950007EC27D017C009006EEE0F8A3E0F9A3E0F2
:10196000FAA3E0FBC312130D70047FD880627F00DE
:101970007E587D027C009006EEE0F8A3E0F9A3E03B
:10198000FAA3E0FBC312130D70047F3B80427F007B
:101990007E847D037C009006EEE0F8A3E0F9A3E0EE
:1019A000FAA3E0FBC312130D70047FD880227F00DE
:1019B0007EB07D047C009006EEE0F8A3E0F9A3E0A1
:1019C000FAA3E0FBC312130D70047F3B80027F007B
:1019D0008FC222E5082475F582E43407F583E0051B
:1019E0000822900772300703900775E475F0011222
:1019F00015750210F62000E97F2ED2008018EF54F2
:101A00000F2490D43440D4FF30040BEF24BFB41A19
:101A10000050032461FFE50960021509050CE50C7F
:101A20007002050B30070E900772E475F001121575
:101A300075EF02113C02606E7403D2078003E4C2AA
:101A400007F50890077212158CE4F509F50BF50CF3
:101A5000E50960077F20121A1680F5750AFFC2019A
:101A6000C200C202C203C205C206C2081219E2FFC6
:101A7000700D3007057F00121A27AF0CAE0B22B491
:101A8000255FC2D5C2041219E2FF24D0B40A005067
:101A90001A75F00A780930D50508B6FF0106C6A404
:101AA00026F620D5047002D20380D924CFB41A00C0
:101AB000EF5004C2E5D204021C28D20180C6D20035
:101AC00080C0D20280BCD2D580BAD20580B47F203B
:101AD000121A162002077401B5090040F11219D339
:101AE000FF121A16021A50D208D20680951219D384
:101AF000FB1219D3FA1219D3F94A4B700679F97A05
:101B00001C7BFF20022EE509602A7E008E827583F1
:101B10000012110F60060EEE650A70F0C2D5EBC020
:101B2000E0EAC0E0E9C0E0EE121C6FD0E0F9D0E0DE
:101B3000FAD0E0FB1210F6FF60AAEBC0E0EAC0E0CA
:101B4000E9C0E0121A16D0E02401F9D0E03400FA1E
:101B5000D0E0FBE50A0460DCD50AD980877BFF7AF8
:101B60001C796BD202809C791080027908C206C26F
:101B7000088008D2D5790A8004790AC2D5E50A041A
:101B80007002F50AE4FAFDFEFF1219D3FC7B08206F
:101B900001131219D3FD7B1030000A1219D3FE1263
:101BA00019D3FF7B20EC3382D592D55013C3E43098
:101BB00000069FFFE49EFEE42001039DFDE49CFCE3
:101BC000E4CBF8C201EC700CCFCECDCCE824F8F811
:101BD00070F38017C3EF33FFEE33FEED33FDEC33CC
:101BE000FCEB33FB994002FB0FD8E9EB300105F821
:101BF000D0E0C448B201C0E00AEC4D4E4F78207BE3
:101C00000070C2EAB50A0040BCC0E0121C71D0F0FE
:101C1000D0E0200104C4C0E0C4B201C0F01219FF3A
:101C2000D0F0D5F0EB021A501215951AED531B6740
:101C3000581ABE4C1ABA421B6B4F1B73441B734994
:101C40001AD3431B79551B5D461B5D451B5D471D24
:101C500019501AC22D1AC62E1AE92B1ACA231AE7CE
:101C6000201D022A1A824800001AE13F3F3F0079F6
:101C70000AA2D5200314300509B910020404B908DA
:101C80000104A2D52006025001042002689202B588
:101C900009005034C0E07F203003197F30A2027267
:101CA000067205500F121CC8C202C206C205C20845
:101CB0007F30800F300503E9C0E0121A16300503AB
:101CC000D0E0F9D0E0B509CC3005177F30B9100C61
:101CD000121A167F583004077F788003B908031260
:101CE0001A163002057F2D021A167F202008F87F71
:101CF0002B2006F322920280CF286E756C6C29008F
:101D0000D2011219D33001F8C201780930D5010887
:101D1000F6021A822D504349581219D32403B405F0
:101D2000004001E4901D1493121A07743A121A0726
:101D3000D203750904021B671265CF9006EDEFF020
:101D40001265349006EE1214579006F21214637F57
:101D5000FFFFFFE49006F6F0D39001D1E0940190EC
:101D600001D0E064809480502190077574FFF0A347
:101D70007422F0A37486F0A3E4F0A37407F07B014F
:101D80007A037988121A38125298126AF4E490068B
:101D9000F7F09006F7E0FFC394074003021EF1EF4F
:101DA00075F009A42416F9740035F0FA7B01A3EB51
:101DB000F0A3EAF0A3E9F090000812110FFFC3139B
:101DC00020E003021EE89006F8E0FBA3E0FAA3E09F
:101DD000F91213D29006EEE0FCA3E0FDA3E0FEA30F
:101DE000E0C39BFFEE9AFEED99FDEC98FC9006FB9C
:101DF0001214579006F8E0FBA3E0FAA3E0F9900074
:101E000004121364EF2401FFE43EFEE43DFDE43CD4
:101E1000FCC004C005C006C0079006F8A3A3E0906C
:101E200000041213649006FBE0F8A3E0F9A3E0FAC3
:101E3000A3E0FBC3EF9BFFEE9AFEED99FDEC98FC4F
:101E4000D003D002D001D000121265AC00AD01AEBB
:101E500002AF039006FF121457D39001D1E0940112
:101E60009001D0E064809480504290077574FFF038
:101E7000A37422F0A374A5F09006FBE0FCA3E0FDA0
:101E8000A3E0FEA3E0FF9007781214579006FFE04E
:101E9000FCA3E0FDA3E0FEA3E0FF90077C12145733
:101EA0007B017A037988121A381252989006F2E070
:101EB000FCA3E0FDA3E0FEA3E0FF9006FFE0F8A393
:101EC000E0F9A3E0FAA3E0FBC31212F7501A900660
:101ED000FFE0FCA3E0FDA3E0FEA3E0FF9006F2120A
:101EE00014579006F67401F09006F7E004F0021D16
:101EF00092D39001D1E094019001D0E0648094806D
:101F0000503890077574FFF0A37422F0A374C7F0E3
:101F10009006F6E0FF900778E4F0A3EFF09006F269
:101F2000A3A3E0FFA3E090077ACFF0A3EFF07B013B
:101F30007A037988121A381252989006F6E0607C7B
:101F4000E4FFFEFDFC9006F2E0F8A3E0F9A3E0FA5E
:101F5000A3E0FBD31212F750139006EEE0FCA3E0CF
:101F6000FDA3E0FEA3E0FF122B428050D39001D1ED
:101F7000E094019001D0E064809480501A9007753D
:101F800074FFF0A37423F0A37404F07B017A037947
:101F900088121A381252989006F2E0FCA3E0FDA3D2
:101FA000E0FEA3E0FF9007071214579006EEE0FC56
:101FB000A3E0FDA3E0FEA3E0FF125DF19006EDE0DB
:101FC000FF026A824205DF000142038500014202EE
:101FD0008200224201D0000941048BFF4100100120
:101FE00042005C00014101D4224106E80041005852
:101FF000004101370041001200440063000000006E
:10200000440499000000004100030041049D004188
:1020100001D2004105D20041027F00410488004105
:102020000136004100150041013C0041013D0041E5
:102030000494004105D5004106E4004104980041A4
:1020400006E7004306E100000041005E004105355F
:10205000004204A10000410496004101D500610046
:1020600002840000000000000000000000000000EA
:102070000000000000000000000000000000000060
:102080000000000000000000000000000000000050
:102090000000000000000000000000000000000040
:1020A0000000000000000000000000000000000030
:1020B0000000000000000000000000000000000020
:1020C0000000000000000000000000000000000010
:1020D0000000000000000000000000000000000000
:1020E00000000000000000000000000000000000F0
:1020F00000000000000000000000000000000000E0
:1021000000000000000000000000000000000000CF
:1021100000000000000000000000000000000000BF
:1021200000000000000000000000000000000000AF
:10213000000000000000000000000000000000009F
:10214000000000000000000000000000000000008F
:10215000000000000000000000000000000000007F
:1021600000004104A0004105E20042006700004178
:10217000049F004200130001410135004101CF22BC
:1021800041000E0041028100410011004206E5FFBE
:10219000FF4100020041049E004101D3004105D3EC
:1021A00000410280004104890041000F0041048A7F
:1021B00000608E07A07B0110AF027B00C083C0824D
:1021C000C085C084C092EAF583E9F58275920175F5
:1021D0008562758470E0548070FB7402F0EC6027B7
:1021E0007A407904759200E0A37592017585627555
:1021F0008473F0D9EF7400F0758562758470E054D3
:102200004070FBDADDDCD9ED6029ED54FC0303FD01
:102210007904759200E0A3759201758562758473E7
:10222000F0D9EF7400F0758562758470E0544070E9
:10223000FBDDDDD092D084D085D082D083EB6002EC
:10224000D2AF220052664D61634261736553656E81
:1022500064502E537562436F726553656E642E73BE
:10226000656E64446F6E6520726573756C74256469
:102270000A002A2053656E742573210D0A004F4B06
:10228000004641494C0075706461746546726F6D1B
:1022900054696D6572204E554D5F54494D455253FA
:1022A0003D25640A00656C6170736564203D2030D3
:1022B00078256C782C2072656D61696E696E673D5A
:1022C0003078256C780A0075706461746546726FA9
:1022D0006D54696D6572206D696E5F72656D6169BF
:1022E0006E696E675F69737365743D25642C206D3C
:1022F000696E5F72656D61696E696E673D307825E4
:10230000782C0A005669727475616C697A65546933
:102310006D6572432063616C6C2054696D65724613
:10232000726F6D2E73746172744F6E6553686F7443
:1023300041740A00416C61726D302E737461727465
:1023400041742054314343544C303D307825780A51
:10235000005669727475616C697A6554696D65724D
:10236000432E54696D657246726F6D2E6669726593
:10237000640A003D3D3D3D3D3D3D3D3D3D3D626F7F
:102380006F743D3D3D3D3D3D3D3D3D3D3D3D0A0084
:102390005669727475616C697A6554696D657243CA
:1023A0002E54696D65722E73746172744F6E65532D
:1023B000686F742064743D256C640A0056697274F9
:1023C00075616C697A6554696D6572432E54696DE7
:1023D00065722E7374617274506572696F6469639B
:1023E0002064743D256C640A006669726554696DE9
:1023F0006572732025642C206E6F773D3078256CD4
:10240000782C656C61707365643D3078256C782C30
:102410002064743D3078256C782C74303D307825FC
:102420006C780A0041442044617461203D202530CD
:1024300034780A00123A8D90071C12145790048CBD
:10244000E0FCA3E0FDA3E0FEA3E0FF90005FE0F866
:10245000A3E0F9A3E0FAA3E02FFFEA3EFEE93DFD89
:10246000E83CFC90072012145790071CE0F8A3E00A
:10247000F9A3E0FAA3E0FBA3E0FCA3E0FDA3E0FEE8
:10248000A3E0C39BFFEE9AFEED99FDEC98FCA3122E
:10249000145790071CE0FCA3E0FDA3E0FEA3E0FFBF
:1024A00090005FE0F8A3E0F9A3E0FAA3E0FBD31209
:1024B000130D503F90005FE0FCA3E0FDA3E0FEA3FE
:1024C000E0FF900720E0F8A3E0F9A3E0FAA3E0FB27
:1024D000C312130D406390071CE0FCA3E0FDA3E0D2
:1024E000FEA3E0FFA3E0F8A3A3A3E0D312130D50D3
:1024F00048803C90005FE0FCA3E0FDA3E0FEA3E089
:10250000FF900720E0F8A3E0F9A3E0FAA3E0FBC303
:1025100012130D501A90071CE0FCA3E0FDA3E0FE8F
:10252000A3E0FFA3E0F8A3A3A3E012130D500A90C9
:10253000072412146300000000E4FF7E04FDFC90F9
:102540000724E0F8A3E0F9A3E0FAA3E0FBD3121319
:102550000D404E90071CE0FCA3E0FDA3E0FEA3E0CD
:102560002400FFEE3404FEE43DFDE43CFC90005FFB
:10257000121457900724E0FCA3E0FDA3E0FEA3E0C3
:102580002400FFEE34FCFEED34FFFDEC34FFFC9044
:10259000048C121457900724121463000004008066
:1025A0003890005FE0FCA3E0FDA3E0FEA3E0FF9015
:1025B000048CE0F8A3E0F9A3E0FAA3E0FBEF2BFF23
:1025C000EE3AFEED39FDEC38FC90005F12145790A6
:1025D000048C1214630000000090071CA3A3E0FE0B
:1025E000A3E07805C333CE33CED8F9FFC006C007C9
:1025F000900724A3A3E0FEA3E07805C333CE33CE37
:10260000D8F9FDAC06D007D006023CF0123FE090AE
:10261000070B121457900490E0FCA3E0FDA3E0FE2A
:10262000A3E0FF900069E0F8A3E0F9A3E0FAA3E0DB
:102630002FFFEA3EFEE93DFDE83CFC90070F121437
:102640005790070BE0F8A3E0F9A3E0FAA3E0FBA39F
:10265000E0FCA3E0FDA3E0FEA3E0C39BFFEE9AFE37
:10266000ED99FDEC98FCA312145790070BE0FCA326
:10267000E0FDA3E0FEA3E0FF900069E0F8A3E0F92D
:10268000A3E0FAA3E0FBD312130D503F900069E0E2
:10269000FCA3E0FDA3E0FEA3E0FF90070FE0F8A39A
:1026A000E0F9A3E0FAA3E0FBC312130D4063900727
:1026B0000BE0FCA3E0FDA3E0FEA3E0FFA3E0F8A392
:1026C000A3A3E0D312130D5048803C900069E0FCB6
:1026D000A3E0FDA3E0FEA3E0FF90070FE0F8A3E076
:1026E000F9A3E0FAA3E0FBC312130D501A90070BF5
:1026F000E0FCA3E0FDA3E0FEA3E0FFA3E0F8A3A3BA
:10270000A3E012130D500A90071312146300000087
:10271000007F007E807DFF7CFF900713E0F8A3E040
:10272000F9A3E0FAA3E0FBD312130D404E90070B80
:10273000E0FCA3E0FDA3E0FEA3E02400FFEE348074
:10274000FEED34FFFDEC34FFFC900069121457904D
:102750000713E0FCA3E0FDA3E0FEA3E02400FFEEEE
:102760003480FEE43DFDE43CFC900490121457904C
:102770000713121463FFFF80008038900069E0FCAB
:10278000A3E0FDA3E0FEA3E0FF900490E0F8A3E047
:10279000F9A3E0FAA3E0FBEF2BFFEE3AFEED39FDE3
:1027A000EC38FC90006912145790049012146300E6
:1027B00000000090070BA3A3E0FEA3E0FFC006907B
:1027C0000713A3A3E0FEA3E0FDAC06D0060243BFBF
:1027D00090070EEBF0A3EAF0A3E9F0900280E0701E
:1027E0000302297D900059E0FBA3E0FAA3E02481D5
:1027F000F9E43AFA900715EBF0A3EAF0A3E9F090B8
:10280000005912661A900718EBF0A3EAF0A3E9F05A
:10281000900711E0F9A3E0FAA3E090071BC9F0A329
:10282000EAF0A3E9F0900718E0FBA3E0FAA3E0F9CF
:1028300090000112110F700302297D90071BE0FB2D
:10284000A3E0FAA3E0F91266C7900718E0FBA3E043
:10285000FAA3E0F91210F66F600302297D90005987
:102860001268ADC006C00790070E126717D005D0DA
:1028700004EF6D7002EE6C600302297D9000591226
:102880006717C006C00790070E1268ADD005D004C8
:10289000EF6D7002EE6C600302297D90070EE0FB85
:1028A000A3E0FAA3E02481F9E43AFA90071EEBF0E2
:1028B000A3EAF0A3E9F0126755AD07900715E0FB16
:1028C000A3E0FAA3E0F912658B90071EE0FBA3E0FA
:1028D000FAA3E024011266C390071512660390075D
:1028E0001EE0FBA3E0FAA3E02402126751AD0790BB
:1028F0000715E0FBA3E0FAA3E02402F9E43AFA1298
:10290000658B900715E0FBA3E0FAA3E02403F9E44C
:102910003AFA7D0112658B900715E0FBA3E0FAA35C
:10292000E02406F9E43AA801FCAD0390071BE0FBA4
:10293000A3E0FAA3E0F97E007F091210D090070E01
:10294000E0F9A3E0FAA3E0900724C9F0A3EAF0A31A
:10295000E9F090071BE0F9A3E0FAA3E0900727C98C
:10296000F0A3EAF0A3E9F090005912571D90005926
:10297000E0FBA3E0FAA3E0F9E4FD12537390070E25
:10298000E0FBA3E0FAA3E0F92290070EEBF0A3EA44
:10299000F0A3E9F090027FE07003022B369000551F
:1029A000E0FBA3E0FAA3E02481F9E43AFA900715EA
:1029B000EBF0A3EAF0A3E9F090005512661A900735
:1029C00018EBF0A3EAF0A3E9F0900711E0F9A3E017
:1029D000FAA3E090071BC9F0A3EAF0A3E9F090077F
:1029E00018E0FBA3E0FAA3E0F990000112110F70C8
:1029F00003022B3690071BE0FBA3E0FAA3E0F912D9
:102A000066C7900718E0FBA3E0FAA3E0F91210F6FE
:102A10006F6003022B369000551268ADC006C007E8
:102A200090070E126717D005D004EF6D7002EE6CA0
:102A30006003022B36900055126717C006C007903E
:102A4000070E1268ADD005D004EF6D7002EE6C6019
:102A500003022B3690070EE0FBA3E0FAA3E02481EB
:102A6000F9E43AFA90071EEBF0A3EAF0A3E9F012BA
:102A70006755AD07900715E0FBA3E0FAA3E0F91254
:102A8000658B90071EE0FBA3E0FAA3E02401126629
:102A9000C390071512660390071EE0FBA3E0FAA39C
:102AA000E02402126751AD07900715E0FBA3E0FA9E
:102AB000A3E02402F9E43AFA12658B900715E0FBD3
:102AC000A3E0FAA3E02403F9E43AFA7D0112658B4E
:102AD000900715E0FBA3E0FAA3E02406F9E43AA886
:102AE00001FCAD0390071BE0FBA3E0FAA3E0F97E35
:102AF000007F091210D090070EE0F9A3E0FAA3E0DE
:102B0000900724C9F0A3EAF0A3E9F090071BE0F9CD
:102B1000A3E0FAA3E0900727C9F0A3EAF0A3E9F045
:102B200090005512571D900055E0FBA3E0FAA3E07A
:102B3000F9E4FD12562490070EE0FBA3E0FAA3E0AF
:102B4000F922900703121457E4900707F090070743
:102B5000E0FFC394074003022CD5EF75F009A424CD
:102B600016F9740035F0FA7B01A3EBF0A3EAF0A3A9
:102B7000E9F090000812110FFFC31320E003022CAC
:102B8000CC900708E0FBA3E0FAA3E0F91213D2907F
:102B90000703E0FCA3E0FDA3E0FEA3E0C39BFFEE80
:102BA0009AFEED99FDEC98FC90070B1214579007D4
:102BB00008E0FBA3E0FAA3E0F9900004121364908C
:102BC000070BE0F8A3E0F9A3E0FAA3E0FBC31213BC
:102BD0000D5003022CCC900708E0FBA3E0FAA3E021
:102BE000F990000812110F30E011E92408F9E43AD5
:102BF000FA1210F654FD12113C8049900708E0FBD0
:102C0000A3E0FAA3E0F99000041213F290070BE09E
:102C1000FCA3E0FDA3E0FEA3E0FF12126590070312
:102C2000E0FCA3E0FDA3E0FEA3E0C39BFFEE9AFE61
:102C3000ED99FDEC98FC900708E0FBA3E0FAA3E017
:102C4000F9121394D39001D1E094019001D0E06483
:102C5000809480506F90077574FFF0A37423F0A3E5
:102C600074E9F0900707E0FF900778E4F0A3EFF035
:102C700090070BE0FCA3E0FDA3E0FEA3E0FF9007BC
:102C80007A121457900703E0FCA3E0FDA3E0FEA333
:102C9000E0FF90077E121457900708E0FBA3E0FACC
:102CA000A3E0F990000412136490078212145712E3
:102CB00013449007861214577B017A037988121AFD
:102CC00038125298900707E0FF12558F900707E0DF
:102CD00004F0022B4D7F04025E5190071B1265C762
:102CE000900722EFF090071EE0FBA3E0FAA3E0F9C3
:102CF000900723EBF0A3EAF0A3E9F01210F624DE2C
:102D00006042146065147003022D8F147003022D4D
:102D1000B4147003022DD924056003022DFC900722
:102D20001EE0F9A3E0FAA3E090072CC9F0A3EAF0B3
:102D3000A3E9F090071BE0FBA3E0FAA3E0F912621D
:102D40004C022DFC90071EE0F9A3E0FAA3E09007E7
:102D50002CC9F0A3EAF0A3E9F090071BE0FBA3E085
:102D6000FAA3E0F9126305022DFC90071EE0F9A317
:102D7000E0FAA3E090072CC9F0A3EAF0A3E9F090F1
:102D8000071BE0FBA3E0FAA3E0F9125DC2806D909F
:102D9000071EE0F9A3E0FAA3E090072CC9F0A3EA2C
:102DA000F0A3E9F090071BE0FBA3E0FAA3E0F9121F
:102DB00063CE804890071EE0F9A3E0FAA3E09007F5
:102DC0002CC9F0A3EAF0A3E9F090071BE0FBA3E015
:102DD000FAA3E0F9123487802390071EE0F9A3E0FC
:102DE000FAA3E090072CC9F0A3EAF0A3E9F090075A
:102DF0001BE0FBA3E0FAA3E0F912372B90071BE0DE
:102E0000F9A3E0FAA3E0900726C9F0A3EAF0A3E94A
:102E1000F0900722E0FF126A82900726E0FBA3E011
:102E2000FAA3E0F922900772EFF0A3ECF0ED12653F
:102E3000C490077FEFF0900775E0F9A3E0FAA3E0F4
:102E4000900780C9F0A3EAF0A3E9F0900775E0FBD2
:102E5000A3A3E02481F9E43AFA900783EBF0A3EA14
:102E6000F0A3E9F0900775A3E0FAA3E0F9A3E0FD71
:102E7000126A74900780E0FBA3E0FAA3E02401F952
:102E8000E43AFAE4FDFC126490900773E0F47003F6
:102E9000A3E0F46029900780E0FBA3E0FAA3E0241C
:102EA00001F9E43AFA90077CEBF0A3EAF0A3E9F029
:102EB0001262D9AC06EF442090077C126487900719
:102EC00080E0FBA3E0FAA3E02401F9E43AFA9007DA
:102ED00079EBF0A3EAF0A3E9F01262D9EE4488FCA2
:102EE000EF44419007791264871260E1AD079007C3
:102EF00075E0FBA3E0FAA3E0F91268ED900775E036
:102F0000FBA3E0FAA3E090077312679B12550DAC88
:102F100006AD07900775E0FBA3E0FAA3E0F912699C
:102F2000C9900783E0FBA3E0FAA3E0F9E4FD126592
:102F30008B900783126605900780E0FBA3E0FAA35D
:102F4000E0F91268A8AD07900775E0FBA3E0FAA3CB
:102F5000E0F9125A42900786EFF090077FE0FF12E7
:102F60006A82900786E0FF22900704EBF0A3EAF064
:102F7000A3E9F0900703EFF02484603F248C60699C
:102F80001470030230162476600302304390070762
:102F9000E0F9A3E0FAA3E0900711C9F0A3EAF0A3D7
:102FA000E9F090070AE0900714F0900704E0FBA313
:102FB000E0FAA3E0F912319E023073900707E0F9BE
:102FC000A3E0FAA3E0900711C9F0A3EAF0A3E9F0A7
:102FD00090070AE0900714F0900704E0FBA3E0FAE2
:102FE000A3E0F9122989023073900707E0F9A3E002
:102FF000FAA3E0900711C9F0A3EAF0A3E9F0900763
:103000000AE0900714F0900704E0FBA3E0FAA3E0C5
:10301000F912308A805D900707E0F9A3E0FAA3E097
:10302000900711C9F0A3EAF0A3E9F090070AE09035
:103030000714F0900704E0FBA3E0FAA3E0F91227DD
:10304000D08030900703E0FF900707E0F9A3E0FA93
:10305000A3E0900712C9F0A3EAF0A3E9F090070AF1
:10306000E0900715F0900704E0FBA3E0FAA3E0F975
:1030700012686390070BEBF0A3EAF0A3E9F0900766
:103080000BE0FBA3E0FAA3E0F92290070EEBF0A31C
:10309000EAF0A3E9F090070E125B75EF70030231BE
:1030A0009290070E126618900715EBF0A3EAF0A3B2
:1030B000E9F090076FE4F0A3F0A3F07B017A0579C3
:1030C00042125552900718EBF0A3EAF0A3E9F090F2
:1030D0000711E0FBA3E0FAA3E02402F9E43AFA9036
:1030E0000711EBF0A3EAF0A3E9F0A3E024FEF0A3BC
:1030F000E0FBA3E0FAA3E0F990000112110F605683
:103100001210F6FD90071F7401F0A37405F0A3746C
:1031100042F0900718E0F9A3E0FAA3E0900722C973
:10312000F0A3EAF0A3E9F090070E12414790070ED2
:10313000126854AD077B017A0579421268ED900759
:103140000E126717AC06AD077B017A05794212674C
:10315000A17F11125E5190070E126717900715128A
:1031600059A2EF7002802B900711E0F9A3E0FAA3B7
:10317000E090071EC9F0A3EAF0A3E9F0900714E07D
:10318000900721F090070EE0FBA3E0FAA3E0F9021C
:103190002CDA90070EE0FBA3E0FAA3E0F9229007F7
:1031A0000EEBF0A3EAF0A3E9F090070E125B75EFC7
:1031B00070030232A090070E126618900715EBF00C
:1031C000A3EAF0A3E9F090076FE4F0A3F0A3F07B8B
:1031D000017A0479A5125552900718EBF0A3EAF092
:1031E000A3E9F0900711E0FBA3E0FAA3E02402F9C1
:1031F000E43AFA900711EBF0A3EAF0A3E9F0A3E0B8
:1032000024FEF0A3E0FBA3E0FAA3E0F99000011292
:10321000110F60531210F6FD90071F7401F0A37494
:1032200004F0A374A5F0900718E0F9A3E0FAA3E076
:10323000900722C9F0A3EAF0A3E9F090070E12412B
:103240004790070E126854AD077B017A0479A512E6
:1032500068ED126714AC06AD077B017A0479A512FC
:1032600067A17F0B125E511267149007151259A2C5
:10327000EF7002802B900711E0F9A3E0FAA3E09031
:10328000071EC9F0A3EAF0A3E9F0900714E0900745
:1032900021F090070EE0FBA3E0FAA3E0F90267DB60
:1032A00090070EE0FBA3E0FAA3E0F922AC0590063C
:1032B000EFEBF0A3EAF0A3E9F09006F5EBF0A3EA58
:1032C000F0A3E9F024011262D5EF5407FF64027005
:1032D0000302339CEF6401600302339C9006F5E027
:1032E000FBA3E0FAA3E02481F9E43AFAA3EBF0A30C
:1032F000EAF0A3E9F02402F9E43AFAC003C002C0FC
:1033000001EC24FFFFE434FFFE9006EFE0FBA3E0B6
:10331000FAA3E0F98F828E8312110FFFC4131313E7
:103320005401FDD001D002D00312658BEC24FEFFC6
:10333000E434FFFE9006EFE0FBA3E0FAA3E0F98F90
:10334000828E8312110FFD9006F8E0FBA3E0FAA332
:10335000E0F912658B9006F8E0FBA3E0FAA3E0F930
:10336000126755EF247FFD9006F81266059006F56A
:10337000E0FBA3E0FAA3E0F99006F21268A0AD0723
:103380009006F2E0FBA3E0FAA3E0F91266A1900632
:10339000F5E0FBA3E0FAA3E0F9123F28229006ED46
:1033A000EFF0E0FE2484F582E43403F583E0FDB41D
:1033B000FF037F01229006F1747FF0A374FFF043B6
:1033C000B4307401A805088002C333D8FC42F290DF
:1033D00006F0E5BBF0E5BAF074D62EF582E43405CC
:1033E000F583E0FF9006EDE02487F582E43403F5F1
:1033F00083E04F4DF5B643B43043B440E5B420E725
:10340000119006F174FFF5F01211C5C36480948029
:1034100050EAC39006F1E0648094804041AFBA90D6
:1034200006EEE4F0A3EFF0AFBBEFFE9006EEE04E49
:10343000F0A3E0F09006EDE0FF2484F582E434038D
:10344000F583E0FE7401A806088002C333D8FCF4BB
:1034500052F29006EEE0FAA3E0FBE4FD8023900632
:10346000EDE0FF2484F582E43403F583E0FE74018B
:10347000A806088002C333D8FCF452F2E4FBFA7DBC
:1034800001125BA87F0022900729125505AC06ADFA
:103490000790072C1249C890072FEEF0A3EFF09089
:1034A000072CE0FBA3E0FAA3E0F990000412110F4F
:1034B000D39414400302356D90072FE0FEA3E0FF84
:1034C000C3EE64809480500302356DD3EF9400EE18
:1034D00064809480402F900729126748AD079007B9
:1034E0002FE0FEA3E07802C333CE33CED8F9FF90AD
:1034F000072CE0FBA3E0FAA3E02FF9EA3EFA9000E4
:1035000004ED12114E90072FE0FEA3E0FF04FD90A2
:10351000072CE0FBA3E0FAA3E0F9900005ED1211FF
:103520004E90072CE0F9A3E0FAA3E0900734C9F02D
:10353000A3EAF0A3E9F0A3EEF0A3EFF0900729E0EF
:10354000FBA3E0FAA3E0F9123DB190072CE0F9A348
:10355000E0FAA3E0900734C9F0A3EAF0A3E9F09001
:103560000729E0FBA3E0FAA3E0F912691D22126526
:10357000CF90079BEFF09062A4E030E618E5AF3003
:10358000E21353AFEF53E6BF900012E04410F09007
:10359000000C7401F09062A3E030E618E5AF30E172
:1035A0001353AFF753E5BF900012E04408F09000CA
:1035B0000C7401F0E5E730E63FE5AF30E23A53AF97
:1035C000FBE5E720E722AFDE90079CE4F0A3EFF0F5
:1035D000AFDFEFFEE02400F090079CE03EF0E0FE5D
:1035E000A3E0FF126A34801053E7BF900012E0445A
:1035F00004F090000C7401F0E5E630E618E5AF3019
:10360000E11353AFFD53E6BF900012E04402F09087
:10361000000C7401F0E5E530E618E5AF30E0135337
:10362000AFFE53E5BF900012E04401F090000C742F
:1036300001F0E5AF30E51053AFDF900012E0442019
:10364000F090000C7401F090079BE0FF026A82E4A6
:1036500090072FF090072FE0FFC39408501674E5F1
:103660002FF582E43405F583E0B4FF0890072FE0DE
:1036700004F080E090072FE0C39408401A7B017AA1
:103680000579E5900743E4F0A37408F07F047EF821
:103690007D007C000262917B017A077934900743B8
:1036A000E4F0A37408F07F0412628BE490072FF01B
:1036B00090072FE0FFC394085023E0FE24E5F58235
:1036C000E43405F583E0FD74342EF582E43407F527
:1036D00083E0B5050890072FE004F080D3EFC39492
:1036E0000850477B017A077930900743E4F0A374D0
:1036F00004F07F0012628B7F007EF87D007C001258
:1037000061757B017A077930900743E4F0A3740474
:10371000F07F00125A767B017A0579E5900743E441
:10372000F0A37408F07F04125A76229007291255EC
:103730000590072C1249C490072FEEF0A3EFF090EC
:10374000072CE0FBA3E0FAA3E0F990000412110FAC
:10375000FFD39414400302380590072FE0FCA3E048
:10376000FDC3EC648094805003023805EF24FFFF12
:10377000E434FFFEC3ED9FEE6480F8EC6480985063
:103780002F900729126748AD0790072FE0FEA3E0AE
:103790007802C333CE33CED8F9FF90072CE0FBA3D9
:1037A000E0FAA3E02FF9EA3EFA90000DED12114E77
:1037B00090072CE0F9A3E0FAA3E0900746C9F0A334
:1037C000EAF0A3E9F090072FE0FFA3E0900749CFCC
:1037D000F0A3EFF0900729E0FBA3E0FAA3E0F912D1
:1037E0004BDB90072CE0F9A3E0FAA3E0900734C983
:1037F000F0A3EAF0A3E9F0900729E0FBA3E0FAA325
:10380000E0F91269112290074D1265C1900753EF3C
:10381000F090074F126618900754EBF0A3EAF0A35C
:10382000E9F090074FE0FBA3E0FAA3E02481F9E47C
:103830003AFA900757EBF0A3EAF0A3E9F090049E60
:10384000E0600890075A74010238D190074DE0F407
:103850007003A3E0F47F0060027F01900754E0FB57
:10386000A3E0FAA3E0F9900001EF12114E90075780
:1038700012657C900010E0FF900754E0FBA3E0FA93
:10388000A3E0F9EF12113C90074FE0FBA3E0FAA38D
:10389000E0F990074D12679C90074F1266DE900783
:1038A0004F1259D8EF7026900010E004F090049E5B
:1038B0007401F090074FE0F9A3E0FAA3E09001EC67
:1038C000C9F0A3EAF0A3E9F0E49001D3F090075A1D
:1038D000EFF0900753E0FF126A8290075AE0FF2250
:1038E0009006ED1265C19006F3EFF09006EF1266B8
:1038F000189006F4EBF0A3EAF0A3E9F09006EFE0ED
:10390000FBA3E0FAA3E02481F9E43AFA9006F7EB8E
:10391000F0A3EAF0A3E9F090049DE060089006FAB5
:1039200074010239AA9006EDE0F47003A3E0F47F7D
:103930000060027F019006F4E0FBA3E0FAA3E0F947
:10394000900001EF12114E9006F712657C90001066
:10395000E0FF9006F4E0FBA3E0FAA3E0F9EF121118
:103960003C9006EFE0FBA3E0FAA3E09006ED1267BF
:103970009B9006EF1266DE9006EF125A0DEF70264E
:10398000900010E004F090049D7401F09006EFE0C8
:10399000F9A3E0FAA3E09001E9C9F0A3EAF0A3E9F2
:1039A000F0E49001D2F09006FAEFF09006F3E0FF19
:1039B000126A829006FAE0FF22AA05A90390071D69
:1039C000EEF0A3EFF012524C90071FEEF0A3EFF0D1
:1039D000EA75F00184AAF0C3EE64809480500B1263
:1039E0004DB090071FEEF0A3EFF0900720E025E028
:1039F000FF90071FE033FE746D2FF58274003EF5D3
:103A000083E0FEA3E0FF90071DE0FCA3E0FDEFB51F
:103A1000052DEEB50429A3E0FEA3E0FFEA75F064EE
:103A2000A4247DF582E43406F583E5822FF582E552
:103A3000833EF583E0B50107E4900721F0FF229073
:103A4000071DE0FCA3E0FD900720E025E0FF9007C4
:103A50001FE033FE746D2FF58274003EF583ECF0A9
:103A6000A3EDF090071FE0FCA3E0FDEA75F064A46D
:103A7000247DF582E43406F583E5822DF582E58325
:103A80003CF583E9F09007217401F0FF2290077A5A
:103A900012146300000000900063E0FCA3E0FDA3AB
:103AA000E0FEA3E0FF125FA5900782EEF0A3EFF027
:103AB000126988EF602490077EE0FCA3E0FDA3E09C
:103AC000FEA3E02401FFE43EFEE43DFDE43CFC12E5
:103AD0005FA5900782EEF0A3EFF090077EE0FCA3D5
:103AE000E0FDA3E0FEA3E0FF9007841214579007C7
:103AF00082E0FEA3E07805CEC313CE13D8F9FFE42D
:103B0000FCFD900788121457900784E0FCA3E0FDA9
:103B1000A3E0FEA3E0FF780B121331A3E0F8A3E0CB
:103B2000F9A3E0FAA3E04FFFEA4EFEE94DFDE84CB1
:103B3000FC90077A12145790077AE0FCA3E0FDA3EB
:103B4000E0FEA3E0FF900784121457900784E0FC86
:103B5000A3E0FDA3E0FEA3E0FF2290075EEEF0A34A
:103B6000EFF0A3EBF0A3EAF0A3E9F01266209007D0
:103B700065EBF0A3EAF0A3E9F0900760E0FBA3E0B7
:103B8000FAA3E02481F9E43AFA900768EBF0A3EA9B
:103B9000F0A3E9F0900280E0600890076B7401F0F8
:103BA000FF2290075EE0F47003A3E0F47F00600260
:103BB0007F01900765E0FBA3E0FAA3E0F990000124
:103BC000EF12114E90076812657C9007601267260D
:103BD000900771EFF090075EE0FEA3E0FFA3E0FB2B
:103BE000A3E0FAA3E0F912504B900764EFF09007BE
:103BF0006D121463000027107F041245EE900764D5
:103C0000E0FF701B900760E0F9A3E0FAA3E09000EA
:103C100059C9F0A3EAF0A3E9F09002807401F09092
:103C2000076BEFF0229006FEEEF0A3EFF0A3EBF0AF
:103C3000A3EAF0A3E9F0126620900705EBF0A3EAEF
:103C4000F0A3E9F0900700E0FBA3E0FAA3E02481F1
:103C5000F9E43AFA900708EBF0A3EAF0A3E9F09050
:103C6000027FE0600890070B7401F0FF229006FECF
:103C7000E0F47003A3E0F47F0060027F0190070589
:103C8000E0FBA3E0FAA3E0F9900001EF12114E90DF
:103C9000070812657C900700126726900711EFF065
:103CA0009006FEE0FEA3E0FFA3E0FBA3E0FAA3E0A2
:103CB000F9124E0A900704EFF090076D121463009A
:103CC0000027107F021245EE900704E0FF701B9062
:103CD0000700E0F9A3E0FAA3E0900055C9F0A3EAD9
:103CE000F0A3E9F090027F7401F090070BEFF0224F
:103CF000900728EEF0A3EFF0A3ECF0A3EDF0AFE215
:103D0000AD077C00AFE3EFFEE42DFDEC3EFC900739
:103D100028E0FEA3E0FFC3ED9FFFEC9EFED39007DB
:103D20002BE09F90072AE09E5008ED2405FEE43C1E
:103D30008033C390072BE09FFF90072AE09EFE9000
:103D4000072EF0A3EFF0D39405EE94005008ED2475
:103D500005FEE43C800FAE04AF0590072FE02DFE7A
:103D600090072EE03C90072CF0A3CEF053E5FB909B
:103D7000072CE0FEA3E0F5DAEEF5DB43E50443E5CE
:103D800040D39001D1E094019001D0E06480948010
:103D9000501E90077574FFF0A37423F0A37434F0E1
:103DA000A3E5E5F07B017A037988121A381252985C
:103DB00022900731EBF0A3EAF0A3E9F074FF90073B
:103DC00039F0A3F0783F7C017D01900731E0FBA33F
:103DD000E0FAA3E0F97E007F901210D0900734E063
:103DE000FBA3E0FAA3E0F990000412110F24FFFFF7
:103DF000E434FFFE900737E0FCA3E0FDC39FEE64D0
:103E000080F8EC6480985033EDAE047802C333CE72
:103E100033CED8F929F9EA3EFA90000A1211F1904E
:103E2000073912676A900752EFF0900739E0FEA356
:103E3000E0FF7B017A01793F023806900734E0F910
:103E4000A3E0FAA3E090073EC9F0A3EAF0A3E9F0EB
:103E5000900737E0FFA3E0900741CFF0A3EFF09089
:103E60000731E0FBA3E0FAA3E0F912509622900696
:103E7000EDEEF0A3EFF01265CFA3EFF0124F0A9032
:103E800006F0EBF0A3EAF0A3E9F09006F0E0FBA364
:103E9000E0FAA3E0F9742112113C9006F0E0FBA3D4
:103EA000E0FAA3E0F9900001740312114E900002B1
:103EB000E412114E900003E412114E126A9490061F
:103EC000F0E0FBA3E0FAA3E0F9900012EF12114E2C
:103ED000E92408F9E43AFA126020900002E0FF04B5
:103EE000F09006F0E0FBA3E0FAA3E0F9900011EFF8
:103EF00012114E1268F9900002E0700204F0900670
:103F0000EDE0FEA3E0FF7B017A01793F9007527458
:103F100015F01238069006F3EFF09006EFE0FF126E
:103F20006A829006F3E0FF229006FBEBF0A3EAF032
:103F3000A3E9F09006FB12643AEF7003023FDF90B2
:103F400006FBE0FBA3E0FAA3E0F912699E9006FEEF
:103F5000EFF090076F7401F0A37406F0A374FFF004
:103F60009006FB12554A900700EBF0A3EAF0A3E994
:103F7000F09006FBE0FBA3E0FAA3E0F9125C9FEFF0
:103F80009006FE602DE0FF900700E0F9A3E0FAA3A1
:103F9000E0900707C9F0A3EAF0A3E9F09006FFE07C
:103FA00090070AF09006FBE0FBA3E0FAA3E0F90219
:103FB0002F68E0FF900700E0F9A3E0FAA3E0900784
:103FC00007C9F0A3EAF0A3E9F09006FFE090070A22
:103FD000F09006FBE0FBA3E0FAA3E0F912684522AB
:103FE00090071712146300000000900067E0FFA321
:103FF000E090071BCFF0A3EFF0125FAB90071DEE30
:10400000F0A3EFF0126988EF601990071CE004F04C
:10401000700690071BE004F0125FAB90071DEEF0F6
:10402000A3EFF090071BE0FEA3E0FFE4FCFD900788
:104030001F12145790071DE0FEA3E0FFE4FCFD9063
:10404000072312145790071FE0FCA3E0FDA3E0FE36
:10405000A3E0FF7810121331A3E0F8A3E0F9A3E086
:10406000FAA3E04FFFEA4EFEE94DFDE84CFC900755
:1040700017121457900717E0FCA3E0FDA3E0FEA37E
:10408000E0FF90071F12145790071FE0FCA3E0FD0C
:10409000A3E0FEA3E0FF229006F4EBF0A3EAF0A376
:1040A000E9F0A3EDF09006F4E0FBA3E0FAA3E04A08
:1040B0004B70079006FE04F0FF229006F4E0F9A38F
:1040C000E0FAA3E09006E1C9F0A3EAF0A3E9F0E486
:1040D00090005EF0900498F09006E7F09004A1F054
:1040E000A3F09006F4E0FBA3A3E09006FB12689F08
:1040F000AD079006FBE0FBA3E0FAA3E0F91266A18E
:104100009006F4E0FBA3E0FAA3E0F91268A8AD077B
:104110009006F4E0FBA3E0FAA3E0F91265D790065D
:10412000F4E0FBA3E0FAA3E09006F812689FAD0765
:104130009006F8E0FBA3E0FAA3E0F91266A1125A98
:10414000A9125D327F0022E0FBA3E0FAA3E0F99020
:10415000071BEBF0A3EAF0A3E9F0A3EDF01265CFA3
:10416000900725EFF090071EE0FDA3E0F9A3E0FA29
:10417000A3E090072BC9F0A3EAF0A3E9F09007228F
:10418000E0F9A3E0FAA3E090072EC9F0A3EAF0A3B8
:10419000E9F090071BE0FBA3E0FAA3E0F912593322
:1041A00090071EE0FDA3E0F9A3E0FAA3E090072B3F
:1041B000C9F0A3EAF0A3E9F0900722E0F9A3E0FA3E
:1041C000A3E090072EC9F0A3EAF0A3E9F090071B43
:1041D000E0FBA3E0FAA3E0F91267599007267409FF
:1041E000F0900725E0FF126A82A3E0FF229006F01C
:1041F000EFF0125FF89006F1EBF0A3EAF0A3E9F01C
:104200009005D5E0240354039006F4F01267ABEF59
:104210007062900494E0FF9006F0E02FF0E0540309
:10422000F09006F4E0FF9006F0E0FE6F603BEE04D5
:104230005403FD9006F5F075F003A42436F582E4EE
:104240003405F583E0FBA3E0FAA3E0F9EE75F00393
:10425000A42436F582E43405F583EBF0A3EAF0A359
:10426000E9F09006F0EDF080B89005D5EFF09006FB
:10427000E4E014F09006F1E0FBA3E0FAA3E0F9908B
:1042800006F6EBF0A3EAF0A3E9F022787FE4F6D893
:10429000FD9000017FFE7E1FE4F0A3DFFCDEFA75D7
:1042A00081210242E0025B0FE493A3F8E493A34070
:1042B00003F68001F208DFF48029E493A3F85407A1
:1042C000240CC8C333C4540F4420C8834004F4569C
:1042D000800146F6DFE4800B0102040810204080D4
:1042E000901FC4E47E019360BCA3FF543F30E509F6
:1042F000541FFEE493A360010ECF54C025E060A8D4
:1043000040B8E493A3FAE493A3F8E493A3C8C58266
:10431000C8CAC583CAF0A3C8C582C8CAC583CADFD4
:10432000E9DEE780BE124F0A9006EDEBF0A3EAF05B
:10433000A3E9F01210F66425703E9006EDE0F9A3B3
:10434000E0FAA3E0A3C91255061249C19006F3EEA4
:10435000F0A3EFF09006F0E0F9A3E0FAA3E09007F5
:104360003EC9F0A3EAF0A3E9F0A3EEF0A3EFF07BDF
:10437000017A01793F0250969006EDE0FBA3E0FA46
:10438000A3E0F91210F6B426359006F01255051286
:1043900049C19006F3EEF0A3EFF09006F0E0F9A328
:1043A000E0FAA3E0900746C9F0A3EAF0A3E9F0A37E
:1043B000EEF0A3EFF07B017A01793F124BDB229004
:1043C0000717EEF0A3EFF0A3ECF0A3EDF0AFE2AD32
:1043D000077C00AFE3EFFEE42DFDEC3EFC900717F9
:1043E000E0FEA3E0FFC3ED9FFFEC9EFED390071A13
:1043F000E09F900719E09E5008ED2405FEE43C8004
:1044000033C390071AE09FFF900719E09EFE9007C4
:104410001DF0A3EFF0D39405EE94005008ED2405B1
:10442000FEE43C800FAE04AF0590071EE02DFE9029
:10443000071DE03C90071BF0A3CEF053E6FB90076E
:104440001BE0FEA3E0F5DCEEF5DD43E60443E640C9
:10445000229006F7EFF0A3ECF0A3EDF0D39001D19A
:10446000E094099001D0E06480948050341265CFCC
:104470009006FCEFF090077574FFF0A37424F0A38E
:104480007424F09006F8E0FFA3E0900778CFF0A343
:10449000EFF07B017A037988121A389006FC1252E9
:1044A000939006F8E0FCA3E0FDECFF3395E0A3EF6A
:1044B000F0EDA3F0900139E0FBA3E0FAA3E0F8AC43
:1044C00002AD037B017A0679FA7E007F021210D0DA
:1044D0009006F7E070047F018002E4FF125E512233
:1044E0009006EDEDF01265CFA3EFF0900015E070AF
:1044F000089006EEE0FF026A829006EEE0FF126A84
:10450000829006EDE0FD12619A9006EDE06043D3E3
:104510009001D1E094649001D0E0648094805032A6
:104520001265CF9006EEEFF090077574FFF0A3745C
:1045300022F0A37444F09006EDE0FF900778E4F0D9
:10454000A3EFF07B017A037988121A389006EE12F5
:1045500052931265CF9006EEEFF0E4900015F01242
:104560006A827F08125E51229006ECEFF0B41200CE
:104570005073904579F82828730245AF0245B2027E
:1045800045B50245B80245BB0245BE0245C10245DC
:10459000C40245C70245CA0245CD0245D00245D3F3
:1045A0000245D60245D90245DC0245DF0245E2025A
:1045B000670202637A026B20025175021D38026B9A
:1045C0001F02532002547B02466D0262E7024FAE87
:1045D000026A220267EB0269930243250252DA0261
:1045E0005436026A199006ECE0FF126AC422900762
:1045F0006CEFF01265CF900771EFF0D39001D1E02E
:1046000094019001D0E064809480502E90077574DE
:10461000FFF0A37423F0A37490F090076DE0FCA367
:10462000E0FDA3E0FEA3E0FF9007781214577B01A2
:104630007A037988121A38125298126534900773E7
:1046400012145790076DE0FCA3E0FDA3E0FEA3E089
:10465000FF90077712145790077B7401F090076C56
:10466000E0FF1248D8900771E0FF026A821265CF1E
:104670009006F3EFF0900015E0600280651267ABE2
:10468000EF6002805D1258C19006EDEBF0A3EAF0F6
:10469000A3E9F09006EDE0FBA3E0FAA3E04A4B703B
:1046A00005125E4B803C9006EDE0FBA3E0FAA3E030
:1046B000F91268A8AD079006EDE0FBA3E0FAA3E0CD
:1046C000F9124097EF700790001504F080149006DF
:1046D000EDE0FBA3E0FAA3E0F97D0112619AE41298
:1046E0005E4B9006F3E0FF126A82229006EDEFF037
:1046F0001265CF9006F2EFF0D39001D1E0940190D3
:1047000001D0E064809480502E90077574FFF0A370
:104710007423F0A374BCF09006EEE0FCA3E0FDA3CC
:10472000E0FEA3E0FF9007781214577B017A03792B
:1047300088121A381252981265349007731214575F
:104740009006EEE0FCA3E0FDA3E0FEA3E0FF9007EF
:1047500077121457E490077BF09006EDE0FF1248C3
:10476000D89006F2E0FF026A82E5B454F3440CF5F7
:10477000B49061897448F075E1E3906199E030E0AC
:10478000F9E49006EBF0A3F0A3F09006ECE025E04E
:10479000FF9006EBE033FE9061A7E05401FDEF4D82
:1047A000FF9006EBEEF0A3EFF0A3E004F0E0B4100E
:1047B000D99006EBE0FEA3E0FF4E6006BE030DBFFE
:1047C000800A9006EB74BAF0A374BEF09006EBE09A
:1047D000FEA3E0F5BCEEF5BC75E1EF906189744095
:1047E000F07F002278047C007D017E007F0812109B
:1047F000D090000BE09005E5F090000AE09005E60F
:10480000F0900009E09005E7F0900008E09005E8DE
:10481000F0900007E09005E9F0900006E09005EACE
:10482000F0900005E09005EBF0900004E09005ECBE
:10483000F07FE87EFF7D037C001261757B017A05C5
:1048400079E5900743E4F0A37408F07FE87EFF7DEC
:10485000037C00125A7C124C3F124B74025B429054
:1048600006F8EBF0A3EAF0A3E9F09006F7EFF014F6
:10487000601B146029146037240370449006F8E02C
:10488000FBA3E0FAA3E0F9A3E0FD026AEE9006F8CC
:10489000E0FBA3E0FAA3E0F9A3E0FD026AEB9006D7
:1048A000F8E0FBA3E0FAA3E0F9A3E0FD026AE890D8
:1048B00006F8E0FBA3E0FAA3E0F9A3E0FD026AE555
:1048C0009006F7E0FFA3E0FBA3E0FAA3E0F9A3E082
:1048D000900700F012687222EF75F009A42416F90F
:1048E000740035F0FA90077C7401F0A3EAF0A3E9B4
:1048F000F0900773E0FCA3E0FDA3E0FEA3E0FF90CF
:10490000077CE0FBA3E0FAA3E0F912139490077789
:10491000E0FCA3E0FDA3E0FEA3E0FF90077CE0FB4A
:10492000A3E0FAA3E0F99000041213AE90077BE035
:104930005401FFE92408F9E43AFA1210F654FE4F44
:1049400012113C440212113C7F04025E517B017A39
:104950000179EF7D0112596BEF60659001EFE0FF87
:10496000D3947F401475E1ED75E1EDE4F59B75E9B5
:10497000FB9005E2F09004A0F0EF547F9001EFF07F
:104980007B017A0179F0E0FD12596BEF6032900102
:10499000EFE0FF24EFF582E43401F583E030E70C2B
:1049A0007B017A0179EFEF04FD0232AC75E1ED7520
:1049B000E1EDE4F59B75E9FB9005E2F09004A0F0D1
:1049C000229006F0AC06AD07E0FBA3E0FAA3E0F905
:1049D000900731EBF0A3EAF0A3E9F0A3ECF0A3ED2C
:1049E000F0E4A3F0900731E0FBA3E0FAA3E0F99034
:1049F000000412110FFF900736E0FEC39F502EEE09
:104A000075F004A4FFE92FF9EA35F0FA90000612D8
:104A100011F1FF900734E0B5F00BA3E0B50706A352
:104A2000E0FF7E0022900736E004F080B77EFF7F33
:104A3000FF22900792EFF075F01384AFF0EFF012C1
:104A400053F1EF7055900058E02401FFE433FE7CF1
:104A5000007D131211709006E8E0B50502803B90CE
:104A60000058E075F01384E5F0F0900792E0FF90B5
:104A70000058E0FE24D6F582E43401F583EFF0EE31
:104A80002401FFE433FE7C007D1312117090005866
:104A9000EDF09007937401F0FF22E4900793F0FF8C
:104AA00022900790EFF01269D3900792EFF0E49014
:104AB0000791F0900792E0FE900791E0FFC39E50AF
:104AC00040125FF8900793EBF0A3EAF0A3E9F090AF
:104AD0000793E0FBA3E0FAA3E04A4B601C90079326
:104AE000A31266BF900790E0B5070EA3E0FF7E001B
:104AF000900796EEF0A3EFF022900791E004F0808B
:104B0000B274FF900793F0A3F0FFFE22D39001D17F
:104B1000E094099001D0E06480948050251265CF24
:104B20009006EAEFF090077574FFF0A37423F0A3EA
:104B30007473F07B017A037988121A389006EA12AE
:104B40005293B292125E1E9006EE1214630000079A
:104B5000D07F061246EB9006F8E4F0A3F0A3F07BBA
:104B6000017A0579ED124F19900139EBF0A3EAF0C3
:104B7000A3E9F022900004E090616AF0900005E063
:104B800090616BF0900006E090616CF0900007E09F
:104B900090616DF0900008E090616EF0900009E087
:104BA00090616FF090000AE0906170F090000BE06F
:104BB000906171F01269A990072FEEF0A3EFF01247
:104BC00069B4AD07AC0690072FE0FEA3E0906172D8
:104BD000F0EEA3F0EDA3F0ECA3F02274FF90074BEE
:104BE000F0A3F0783F7C017D017E007F901210D011
:104BF000900749E0FEA3E0FFD39400EE6480948028
:104C0000403CEF7802C333CE33CED8F9FF9007464D
:104C1000E0FBA3E0FAA3E02FF9EA3EFA90000212CB
:104C200011F190074B12676A900752EFF090074B13
:104C3000E0FEA3E0FF7B017A01793F123806227B78
:104C4000017A0579E5900743E4F0A37408F07FE862
:104C50007EFF7D037C0012629112364F9005ECE0DE
:104C6000900004F09005EBE0900005F09005EAE07C
:104C7000900006F09005E9E0900007F09005E8E06C
:104C8000900008F09005E7E0900009F09005E6E05C
:104C900090000AF09005E5E090000BF022A2AFE44E
:104CA0003390013EF0C2AF900012E0FF9006EEF0AC
:104CB000E4900012F090013EE024FF92AFEF30E06C
:104CC00003125C6E9006EEE030E103125C3D90064C
:104CD000EEE030E203126B289006EEE030E50312BE
:104CE0006AAC900012E060111265CF9006EFEFF011
:104CF00090000C7401F0126A82229006EFEBF0A390
:104D0000EAF0A3E9F0D39001D1E094099001D0E05A
:104D100064809480503F1265CF9006F2EFF09007C8
:104D20007574FFF0A37422F0A37472F0ED7BFF7032
:104D3000067A22797E80047A227981900778EBF0D6
:104D4000A3EAF0A3E9F07B017A037988121A38907C
:104D500006F2125293229006F01265C19006F6EF09
:104D6000F09006F2E0FBA3E0FAA3E02485F9E43A30
:104D7000FA7D031266129006F2E0FBA3E0FAA3E0CC
:104D8000240AF9E43AFA7D7C1266A19006F6E0FF67
:104D9000126A829006F0E0FCA3E0FDA3E0FBA3E032
:104DA000FAA3E0F9A3E0900778F07F03122E252202
:104DB000E4900722F0900722E0FFC394645023EFB1
:104DC00025E0246DF582E43400F583E0FEA3E04E97
:104DD00070089007227E00A3802A900722E004F04A
:104DE00080D390048AE0900722F0FB2401FFE43393
:104DF000FE7C007D6412117090048AEDF0EBFF7E62
:104E000000900723EEF0A3EFF02290070CEEF0A342
:104E1000EFF0A3EBF0A3EAF0A3E9F090070EE0FBBC
:104E2000A3E0FAA3E02485F9E43AFAE4FD1266125D
:104E300090070EE0FBA3E0FAA3E0240AF9E43AFAB3
:104E40007D7B1266A190070CE0FCA3E0FDA3E0FBD4
:104E5000A3E0FAA3E0F9A3E0900778F0E4FF122EB4
:104E600025229006FCEBF0A3EAF0A3E9F0A3EDF015
:104E7000900280E0603F9006FFE070289006FC12F0
:104E80006618900700EBF0A3EAF0A3E9F0900001A8
:104E900012110F600F90076D121463000000327F33
:104EA000030245EE9006FCE0FBA3E0FAA3E0F9A3C1
:104EB000E0FD125373229006FCEBF0A3EAF0A3E9A5
:104EC000F0A3EDF090027FE0603F9006FFE07028D5
:104ED0009006FC126618900700EBF0A3EAF0A3E935
:104EE000F090000112110F600F90076D1214630013
:104EF0000000327F010245EE9006FCE0FBA3E0FAE1
:104F0000A3E0F9A3E0FD125624229006F8E4F0A3F2
:104F1000F0A3F07B017A01793F9006F5EBF0A3EA6C
:104F2000F0A3E9F0A3E0FBA3E0FAA3E04A4B60158D
:104F30009006F51266469006F8E0FBA3E0FAA3E0BF
:104F4000F9EF12113C90076FE4F0A3F0A3F0900684
:104F5000F512554AE92402F9E43AFA22D285C286CA
:104F6000C287C281C285EAC0037B08334004C2877E
:104F7000E174D287C286D286DBF1D003D285C287A4
:104F8000C286C28122D285C286C287D281C285EA08
:104F9000C0037B08334004C287E19DD287C286D21A
:104FA00086DBF1D003D285C287C286C28122125726
:104FB00097AD079004A1E0FEA3E0FFD3945AEE94CE
:104FC000004008900535745AF08028900535E0FBC4
:104FD0007A00D3EF9BEE9A40119004A2E02BFF9051
:104FE00004A1E03AC313EF1380059004A1A3E0905D
:104FF0000535F0ED60028001E4FF12659322900612
:10500000F01265C19006F6EFF09006F2E0FBA3E027
:10501000FAA3E02485F9E43AFA7D021266129006BA
:10502000F27DF11266949006F6E0FF126A82900615
:10503000F0E0FCA3E0FDA3E0FBA3E0FAA3E0F9A30A
:10504000E0900778F07F02122E252290076CEEF098
:10505000A3EFF0A3EBF0A3EAF0A3E9F090076EE072
:10506000FBA3E0FAA3E02485F9E43AFA7D01126695
:105070001290076E7DF012669490076CE0FCA3E03E
:10508000FDA3E0FBA3E0FAA3E0F9A3E0900778F02A
:105090007F01122E252290073BEBF0A3EAF0A3E953
:1050A000F0A3E0FBA3E0FAA3E0F9742612113C9010
:1050B000073EE0F9A3E0FAA3E0900746C9F0A3EAAF
:1050C000F0A3E9F0900741E0FFA3E0900749CFF09B
:1050D000A3EFF090073BE0FBA3E0FAA3E0F9024B5B
:1050E000DB1265CF9006F0EFF0900063E0FCA3E0E8
:1050F000FDA3E0FEA3E02401FFE43EFEE43DFDE469
:105100003CFC900063121457900063E0FCA3E0FDA8
:10511000A3E0FEA3E0FFE4FBFAF9F8C312130D705D
:1051200003126AA69006F0E0FF026A8290078CEBF9
:10513000F0A3EAF0A3E9F090078C1266BA124AA134
:10514000C3EE64809480400890078F7434F0FF228F
:1051500090078CE0FBA3E0FAA3E0F91253ACEF60F8
:105160000890078F7435F0FF227F08125E51E4909B
:10517000078FF0FF221265CF9006EDEFF09000034D
:10518000E0702F12584BC004C005C006C007900441
:1051900099E0FCA3E0FDA3E0FEA3E0FF90070F125F
:1051A0001457E4900713F0D007D006D005D00412AE
:1051B0005205125C0C9006EDE0FF026A82900058E6
:1051C000E0FF9006E8E0FEB507037FFF2274D62ECD
:1051D000F582E43401F583E09006ECF0FB74D62E02
:1051E000F582E43401F58374FFF0EE2401FFE4332B
:1051F000FE7C007D131211709006E8EDF0EB75F067
:105200001384AFF02290070B12145790070FE0FCA5
:10521000A3E0FDA3E0FEA3E0FF90049912145790D1
:105220000713E0900003F090070FE0FCA3E0FDA35C
:10523000E0FEA3E0FF90071812145790070BE0FC64
:10524000A3E0FDA3E0FEA3E0FF026340E490072299
:10525000F0900722E0FDC39464502DED25E0246D0D
:10526000F582E43400F583E0FCA3E0B50712ECB569
:10527000060E900722E0FF7E00A3EEF0A3EFF022DF
:10528000900722E004F080C974FF900723F0A3F098
:10529000FFFE22E0FF126A82E4900772F0A3F09012
:1052A0000772E0FEA3E0FFC3EE64809481502A748D
:1052B000882FF58274033EF583E0601D900772E449
:1052C00075F0011211DBFE748825F0F58274033E3F
:1052D000F583E0FF12662D80C6221265CF9006EDA1
:1052E000EFF090049EE07002802D9001D3E0FF0467
:1052F000F0EFC3941450109001EC1259D8EF6017DE
:105300007F0F125E5180109001ECE0FBA3E0FAA346
:10531000E0F97D37125CD09006EDE0FF126A822240
:105320001265CF9006EDEFF090049DE07002802DA5
:105330009001D2E0FF04F0EFC3941450109001E903
:10534000125A0DEF60177F06125E5180109001E92E
:10535000E0FBA3E0FAA3E0F97D37125D019006EDD2
:10536000E0FF126A8222900059E0FBA3E0FAA3E07A
:10537000F97D361265CF900721EFF0900280E07042
:1053800008900721E0FF026A827F041264A2900065
:1053900059EBF0A3EAF0A3E9F09005E4EDF09007F3
:1053A00021E0FF126A827F10125E5122126A3DAE26
:1053B000071269D3EFC39E50309005D5E075F00316
:1053C000A42436F582E43405F583EBF0A3EAF0A3D8
:1053D000E9F09005D5E004F0E05403F09006E4E035
:1053E00004F0E4900790F0FF229007907401F0FF22
:1053F00022AB079006E8E075F01384AFF0900058F8
:10540000E0FA6F602E74D62FF582E43401F583E064
:10541000B503037F0122EF2401FFE433FE7C007D0E
:1054200013121170AF05EA75F01384900058E5F07F
:10543000F080CA7F00221265CF9006EDEFF0900257
:1054400080E070079006EDE0FF802C900059E0FBB3
:10545000A3E0FAA3E0F99005E4E0FE9006EDE0FF9A
:10546000126A82AF06AD071266CC1265CF9006EDC8
:10547000EFF0E4900280F0126A82221265CF90066B
:10548000EDEFF090027FE070079006EDE0FF802CDA
:10549000900055E0FBA3E0FAA3E0F99005E3E0FEFD
:1054A0009006EDE0FF126A82AF06AD071266F012B9
:1054B00065CF9006EDEFF0E490027FF0126A822251
:1054C000E5915408FF9061A4E0FE5F60057591F7D7
:1054D000801DE59154105E60057591EF8011E59196
:1054E0005401FF9061A4E0FE5F6004EE54FEF0E51D
:1054F000E95404FF9061A3E05F60061257D375E999
:10550000FBE4F59B22EBF0A3EAF0A3E9F01265CFF0
:10551000900787EFF090049FE07011126AD9900015
:1055200013EEF0A3EFF090049F7401F0126AD9908B
:105530000013E06E7003A3E06F60031261E2900756
:1055400087E0FF126A82126AD922E0FBA3E0FAA385
:10555000E0F990076CEBF0A3EAF0A3E9F0A3E0FB1D
:10556000A3E0FAA3E04A4B601590076C12672690FF
:10557000076FE0FBA3E0FAA3E0F9EF12113C9007FC
:105580006CE0FBA3E0FAA3E0240CF9E43AFA2290E1
:10559000070FEFF0B4070050319055A0F82828739A
:1055A0000255B50255B80255BB0255BE0255C1029F
:1055B00055C40255C7026ACA0269DD0269E7026979
:1055C000F10269FB026AF7026ACF90070FE0FF124F
:1055D0006A9A221265CF9006EBEFF01251BD900649
:1055E000EAEFF0A3E0FF126A829006EAE090048BF3
:1055F000F01265ED12565BEF600512588680F5904B
:1056000006EAE0FFF4600512456880C712565BEFBA
:1056100070C112615080BC900055E0FBA3E0FAA37A
:10562000E0F97D361265CF900721EFF090027FE020
:105630007008900721E0FF026A821264A090005572
:10564000EBF0A3EAF0A3E9F09005E3EDF090072179
:10565000E0FF126A827F07125E51221265CF900628
:10566000ECEFF0E4A3F09006EDE0FFC39402501CD1
:10567000740C2FF582E43400F583E060079006EEA9
:105680007401800C9006EDE004F080DAE49006EE00
:10569000F09006ECE0FF126A829006EEE0FF221224
:1056A000612B9006EAEFF01247699006EA1267BE96
:1056B000EFF0125F2712575A12575AAD079006EAB9
:1056C000E0FF1267C2EFF0126AFA1267BEEFF01243
:1056D0006657AD079006EAE0FF1267C2EFF022E5D9
:1056E000C65480FE53BEFBE59D30E5FBE59D20E200
:1056F000F6EFB40107EE4449F5C68007EF7004AF3A
:10570000068FC69006EAE5C6F09006EBE59EF0909F
:1057100006EAE0FFA3E0B507F043BE0422E0FBA3E6
:10572000E0FAA3E0F9C002C001900724E0F9A3E089
:10573000FAA3E090072DC9F0A3EAF0A3E9F09007DF
:1057400027E0F9A3E0FAA3E0900730C9F0A3EAF05C
:10575000A3E9F0D001D002026959AD079006EAE052
:10576000FF1267C2EFF0E4F5E5F5E6F5E79062A316
:10577000F0A3F0F5E2E5C654C74418F5C6E5E454D5
:10578000F3440CF5E4E5E454FC4401F5E4E4F5AF3E
:1057900043D840D2B9FF229006ED121463000000F6
:1057A000009006F17401F075E1E99006ED12142203
:1057B000E47B987A3AF9F8D312130D400AE5913058
:1057C000E1E8E49006F1F0E4F59B7591FD9006F1B7
:1057D000E0FF2290619BE0FFD39400402BEFD39435
:1057E00080400C75E1ED75E1EDE4F59B75E9FB900A
:1057F00005E2E0FF2484F582E43402F583E5D9F084
:10580000EF049005E2F080CB90000D7401F022903F
:105810000831EBF0A3EAF0A3E9F07D10EBF8E20B1E
:105820007C08334006C0E0EAF8012FC0E0E9F8C088
:1058300002E2FA124F8508E2FA124F8508E2FA12E4
:105840004F85D002D0E0DCDADDD22290048CE0FC7F
:10585000A3E0FDA3E0FEA3E0FF90005FE0F8A3E07B
:10586000F9A3E0FAA3E02FFFEA3EFEE93DFDE83CA4
:10587000FC9006EE1214579006EEE0FCA3E0FDA3A8
:10588000E0FEA3E0FF22E49006ECF09006ECE0FFDF
:10589000C39402502B740C2FF582E43400F583E09E
:1058A0006016C2AF9006ECE0240CF582E43400F5FB
:1058B00083E4F0D2AF1264549006ECE004F080CBA5
:1058C000221261069006F4EBF0A3EAF0A3E9F012CD
:1058D00067ABEF7010900494E004F0E05403F09094
:1058E00006E4E014F09006F4E0FBA3E0FAA3E0F98C
:1058F000A3EBF0A3EAF0A3E9F0221264059006ED11
:10590000EFF01264D21267BBEFF01263EA1267BBCA
:10591000EFF01264B91267BBEFF01268C71267BBF1
:10592000EFF01267CB1267BBEFF0125F511267BB4B
:10593000EFF022900727EBF0A3EAF0A3E9F0A3ED44
:10594000F07E007F097D0090072EE0FBA3E0FAA324
:10595000E0F91214C790072EE0FBA3E0FAA3E0F9E8
:1059600090072AE0FD1266127F0922EDD3940040D1
:105970002E9005E2E0FF9004A0E0FEB507037F0053
:1059800022EE2484F582E43402F583E012113C9087
:1059900004A0E004F0740129F9E43AFA1D80CC7FF8
:1059A0000122AC06AD07E0FBA3E0FAA3E0F9121078
:1059B000F6FBE4FFAA071265CF90071BEFF0AE04D9
:1059C000AF05AD021239B990071CEFF090071BE04C
:1059D000FF126A82A3E0FF22E0FBA3E0FAA3E0F952
:1059E00090075BEBF0A3EAF0A3E9F090075B126885
:1059F000AD90075B126642900763EFF090075BE0A3
:105A0000FBA3E0FAA3E0F9AF05123B5A22E0FBA3A7
:105A1000E0FAA3E0F99006FBEBF0A3EAF0A3E9F0CB
:105A20009006FB1268AD9006FB126642900703EFEA
:105A3000F09006FBE0FBA3E0FAA3E0F9AF05123C0F
:105A4000252290078AEDF0900787EBF0A3EAF0A3F8
:105A5000E9F02403F9E43AFA90013CE004FDF01285
:105A600066A1900787E0FBA3E0FAA3E0F912512CAE
:105A700090078BEFF0227EF87D007C00900740EBD2
:105A8000F0A3EAF0A3E9F0C007900740E0FBA3E031
:105A9000FAA3E0F9A3E0FFA3E090074CCFF0A3EF57
:105AA000F0D0071200867F00221265AA900535E02B
:105AB000FD7C00121170AF05900496EFF0700204A7
:105AC000F0900496E0FF7E009004A2E02FF0900496
:105AD000A1E03EF07C007D0A12149A221265AA9081
:105AE0000535E0FD7C00121170AF05900496EFF0D3
:105AF000700204F0900496E0FF7E009004A2E02F74
:105B0000F09004A1E03EF07C007D0A12149A22126B
:105B100065CF9006E9EFF012646E125EA512668002
:105B2000EF70FA12569F126680EF70FA9006E9E065
:105B3000FF126A82126B03124B0C1255D37EFF7F49
:105B4000FF221269A9EFFB1269B4AC06AD07AF03DF
:105B500012678B1269B49005DFEEF0A3EFF01269C3
:105B6000B4900385EEF0A3EFF01269A9900282EEE3
:105B7000F0A3EFF022E0FBA3E0FAA3E0F990071B0B
:105B8000EBF0A3EAF0A3E9F090071B12643AEF7080
:105B900002FF2290071B126726AE07126B09EEC3A5
:105BA0009F7F0040027F01229006F4EDF0A3EAF00F
:105BB000A3EBF09006F3EFF0700E9006F4E0FFA375
:105BC000E0FCA3E0FD0244519006F3E0FFA3E0FDFA
:105BD000A3E0FAA3E0FB1268182290619674F8F033
:105BE0009061AEE4F09061B27415F09061FA7409BE
:105BF000F09061E574FFF0439A01D2A8906164E4EB
:105C0000F0A3F0A3F0A3F0A3F0A3F022D39001D16E
:105C1000E094019001D0E064809480501A90077560
:105C200074FFF0A37423F0A37451F07B017A03791D
:105C300088121A38125298126534022B421265CF1C
:105C40009006F0EFF0E4FFFEFDFC900490E0F8A376
:105C5000E0F9A3E0FAA3E0FBC312130D7005125F95
:105C60007B800312260C9006F0E0FF026A82126528
:105C7000CF9006F0EFF0E4FFFEFDFC90048CE0F81E
:105C8000A3E0F9A3E0FAA3E0FBC312130D70051221
:105C90006AD480031224349006F0E0FF026A8290F6
:105CA0000703EBF0A3EAF0A3E9F01262C9C006C053
:105CB0000712550DD005D004ED6F7002EC6E60092F
:105CC0001262C9BEFF07BFFF047F0180027F00226E
:105CD0001265CF9006EEEFF090049EE070079006FC
:105CE000EEE0FF80189006EEE0FF126A8212666C0A
:105CF0001265CF9006EEEFF0E490049EF0126A82F7
:105D0000221265CF9006EEEFF090049DE0700790B0
:105D100006EEE0FF80189006EEE0FF126A82124C59
:105D2000FA1265CF9006EEEFF0E490049DF0126A4F
:105D300082229006FF121457126504C004C005C0E9
:105D400006C0079006FFE0FCA3E0FDA3E0FEA3E091
:105D5000FF900707121457D007D006D005D00402D1
:105D6000632374872FF582E43403F583EDF074D652
:105D70002FF582E43405F583EBF09006F0E0FE7435
:105D8000842FF582E43403F583EEF0900138E004CB
:105D9000F022E59E20E6037F0122EF700553C67FC7
:105DA0008007EFB4010343C6809006EAE5C6F09091
:105DB00006EBE59EF09006EAE0FFA3E0B507F07F72
:105DC0000022900729EBF0A3EAF0A3E9F0A3E0FB9F
:105DD000A3E0FAA3E0F912693590072CE0FBA3E0F9
:105DE000FAA3E02405F9E43AFA1247E47F0C025ED4
:105DF00051C004C005C006C007900707E0FCA3E03F
:105E0000FDA3E0FEA3E0FF90070F121457900713C5
:105E10007401F0D007D006D005D0040252051265F7
:105E2000CF9006EBEFF01265AA900010EFF0125839
:105E3000FA12654C9000117401F0E49006ECF090B9
:105E400006EBE0FF126A82A3E0FF22900015F07FCC
:105E500008AE071265CF900790EFF0AF06124A32F6
:105E6000EF7F0560027F00900791EFF0900790E0D0
:105E7000FF126A82A3E0FF22D285C286C287D28146
:105E8000C2857D807C807B10C286D28600000000A7
:105E900000000000C287DBF0DCECDDE8D285C287C1
:105EA000C286C28122E4FF125D92EF600A7F011276
:105EB00056DFE4FF125D92E4FF1256DF12697D4364
:105EC000FE0453F4FB43FE0853F4F712677B7F0094
:105ED000229006FFEBF0A3EAF0A3E9F0E4FFEFC3A2
:105EE0009D50189006FFE0FBA3E0FAA3E0F98F8233
:105EF00075830012110FF5D90F80E3221265CF9040
:105F000006F0EFF0900068E004F07006900067E0A3
:105F100004F0900067E0FEA3E04E7003126B279040
:105F200006F0E0FF026A82900495740BF0C3940BB4
:105F30004006E0D3941A4006900495740BF0900547
:105F4000E174F5F0E4900001F09005D404F07F00D6
:105F500022126B00E490005EF0900498F09006E747
:105F6000F09001D504F0E4900535F07B017A0579D5
:105F7000D7126020E49006EEF0FF22906193E020BB
:105F8000E4030264EB900498E0700D04F07F077E58
:105F9000007D007C00025D32900498E0B401057F32
:105FA0000A125E512290077E121457AFE290078CBE
:105FB000E4F0A3EFF0AFE3EFFEE02400F090078CF5
:105FC000E03EF0E0FEA3E0FFA3EEF0A3EFF022E45A
:105FD000FDFCE58630E00B0DBD00010CBC27F3BDD8
:105FE00010F08FC1E4FCFDE58630E00B0DBD000133
:105FF0000CBC27F3BD10F022900494E02F540375DD
:10600000F003A42436F582E43405F583E0FBA3E035
:10601000FAA3E0F9900798EBF0A3EAF0A3E9F022E5
:106020009006F4EBF0A3EAF0A3E9F09006F4E0FBAD
:10603000A3E0FAA3E0F8AC02AD037B017A00790497
:106040007E007F080210D012494D9005E2E0FF90DB
:1060500004A0E0B50703D38001C340111265CF90BF
:1060600006EEEFF090000D7401F0126A8222EFB498
:106070000A07740D126079740A309811A899B81340
:106080000CC2983098FDA899C298B811F63099FDC5
:10609000C299F599229006EDEBF0A3EAF0A3E9F09E
:1060A0009006ED1268AD9006EDE0FBA3E0FAA3E0E8
:1060B000F99006F57409F0124FFE229006EDEBF010
:1060C000A3EAF0A3E9F09006ED1268AD9006EDE0CA
:1060D000FBA3E0FAA3E0F99006F57409F0124D561F
:1060E00022900135E0700E126A8E9001CFEFF09091
:1060F00001357401F0126A8E9001CFE06F600312D7
:1061000061E2126A8E22900494E075F003A42436B2
:10611000F582E43405F583E0FBA3E0FAA3E0F9900F
:1061200006FAEBF0A3EAF0A3E9F0227E007FC87D37
:10613000007B017A00796D1214C77E007F647D00B8
:106140007B017A06797D1214C7E49006EBF0FF22FA
:10615000900137E0601EE5BE54FC4402F5BE126BB0
:1061600024126B03D293E4F0758701C293FF126A85
:10617000A0126B2322780B12131E906270E0FE2097
:10618000E7F8EF25E0906272F0906270EE4401F063
:10619000906270E020E7F97F00229006F4EBF0A314
:1061A000EAF0A3E9F09006F41266BA9006F4E0FB78
:1061B000A3E0FAA3E0F99006FBEDF002485F90003F
:1061C00001E090618960057460F080037440F09094
:1061D00005D4E09061806005E04401F022E054FEC7
:1061E000F02290078812146300000000E4F5C975DE
:1061F000C90B90078812142274FFFBFAF97800D3B8
:1062000012130D50ED22C0E0C083C082C0D075D003
:1062100000C006C007C2AF1254C0D2AFD007D0062C
:10622000D0D0D082D083D0E032C0E0C083C082C062
:10623000D075D000C006C007C2AF12356ED2AFD045
:1062400007D006D0D0D082D083D0E032C002C001C7
:1062500090072CE0F9A3E0FAA3E0900732C9F0A37D
:10626000EAF0A3E9F0D001D00202694D9006EA12EB
:1062700014577F011268E19006EAE0FCA3E0FDA359
:10628000E0FEA3E0FF1215BB026A6D7EF87D007C84
:1062900000C003900743E0FBA3E090074CCBF0A3C2
:1062A000EBF0D00312014D7F0022C0E0C083C0821A
:1062B000C0D075D000C007C2AF1266A7D2AFD0075A
:1062C000D0D0D082D083D0E032900703E0FBA3E0AF
:1062D000FAA3E02406F9E43AFA90000112110FFE45
:1062E0001210F6FDEDFF229006E1E0FBA3E0FAA319
:1062F000E04A4B600F9006E1A3A3E0F9900497E019
:10630000FD1244E02212671F9006E5EEF0A3EFF0C5
:1063100090072CE0FBA3E0FAA3E0F91269417F0D9E
:10632000025E51900069121457900707E0FCA3E049
:10633000FDA3E0FEA3E0FF90049012145702260C88
:1063400090005F121457900718E0FCA3E0FDA3E053
:10635000FEA3E0FF90048C121457022434E490054D
:10636000E2F09004A0F075E1ED75E1EDF59B75E9C3
:10637000FB126A051268BA7F00227B017A0579ED6B
:106380009006F27402F07F017E001238E0EF6005A3
:10639000E4FF125E5122126737E4900015F090017D
:1063A0003D04F01265AA90013CEFF0E49006EFF096
:1063B000FF22E4900280F09005E404F07F04126470
:1063C000A29004897401F0E49006EFF0FF22900798
:1063D00029EBF0A3EAF0A3E9F0A3E0FBA3E0FAA322
:1063E000E0F91269297F0C025E5190000E7401F0F1
:1063F0007E007F907D00FB7A0479A51214C7E4909B
:1064000006EEF0FF2290000F7401F07E007F907D79
:1064100000FB7A0579421214C7E49006EEF0FF22E1
:10642000E490027FF09005E304F01264A0900488E9
:106430007401F0E49006EFF01F22E0FBA3E0FAA362
:10644000E0F91268A8AE07126B06EEC39F7F00400A
:10645000027F01229006EDEFF01460060470060240
:106460004C9D0260479006EDE0FF126AB2227E006A
:106470007F137DFF7B017A0179D61214C7E4900661
:10648000E8F0900058F022FDE0FBA3E0FAA3E0F969
:10649000ED12113CEC90000112114EAE04AF05223A
:1064A0007F021264A61FEF75F009A4241EF582E492
:1064B0003400F583E054FDF022E490049DF0900157
:1064C000D2F01264209005D27401F0E49006EEF050
:1064D000FF22E490049EF09001D3F01263B2900585
:1064E000D37401F0E49006EEF0FF229006E7E0FF9F
:1064F00004F0EFC394645006125ADC025D327F331D
:1065000012659322123FE09007031214579007037D
:10651000E0FCA3E0FDA3E0FEA3E0FF22123A8D9091
:106520000776121457900776E0FCA3E0FDA3E0FE87
:10653000A3E0FF2212651C90077212145790077295
:10654000E0FCA3E0FDA3E0FEA3E0FF22126B221219
:106550005BDA126B21126A0F126AFD12635D126818
:10656000277F00221265CF900788EFF090005CE053
:10657000FCA3E0FD126A82AE04AF0522E0FBA3E0BB
:10658000FAA3E02403F9E43AFAE4FDAE0512661238
:10659000AF0622AE071265CF9006F1EFF090049798
:1065A000EEF0126A827F09025E51E5B454F34404AE
:1065B000F5B4AFBDEF7F00FEADBCEF2DFFE43EFEB6
:1065C00022EEF0EFA3F0A3EBF0A3EAF0A3E9F0A230
:1065D000AFE433FFC2AF2275E1EEE4F59B7591FDA8
:1065E000ED547FFD12113C125ED17F002290619B21
:1065F000E0D39480400C75E1ED75E1EDE4F59B7519
:10660000E9FB22AD07E0FBA3E0FAA3E02401F9E4F3
:106610003AFAED12113CFF22E0FBA3E0FAA3E0F905
:1066200090076FE4F0A3F0A3F01255522290077484
:10663000EFF0BF0A057F0D125FCF900774E0FF02F5
:106640005FCFAC06AD07E0FBA3E0FAA3E0F9126769
:106650002EC3EF9402FF227F0190038474FFF0A306
:10666000DFFCE4900138F043B430FF229006EFEBFA
:10667000F0A3EAF0A3E9F0ED60057F0E125E51226F
:106680001251BDEFB4FF07E49006EAF0FF22124575
:10669000687F0122E0FBA3E0FAA3E0240AF9E43AD0
:1066A000FAED12113CFF22E5BF5404FF9061A5E012
:1066B0005F600653BFFB1268D422E0FBA3E0FAA39D
:1066C000E02485F9E43AFA1210F6FF2290049EE0E5
:1066D000600BED7003025CD07F0F125E5122E0FB75
:1066E000A3E0FAA3E0F9A3E0FDED2402FD026A7441
:1066F00090049DE0600BED7003025D017F06125E69
:1067000051229006F07404F07B307D80E4FF125D2E
:106710006202339D90070EE0FBA3E0FAA3E0F9E9E3
:1067200024081262D522E0FBA3E0FAA3E0F9126884
:10673000A8C3EF940DFF221269D3EFD39400400752
:10674000E4FF1241ED80F022E0FBA3E0FAA3E02495
:1067500081F9E43AFA1266C722900727EBF0A3EA20
:10676000F0A3E9F0A3EDF07F0922FFE5F0F0A3EF3D
:10677000F07B017A01793F12664E22124C3F124B98
:1067800074125B42E49006EAF0FF2290005CECF0A9
