:060000000249A4026BCCD2
:0300130002734B2A
:03001B0002735B12
:03002B0002736BF2
:03003B00027353FA
:03004B00026B4BFA
:03006B0002726BB3
:03007300027363B2
:03007B0002727797
:10008300026B28900755121927900759EBF0A3EA42
:10009300F0A3E9F0A2AFE433900760F0C2AFE4FB52
:1000A3007A08F9F8900755E0FCA3E0FDA3E0FEA36E
:1000B300E0FF121727AB07900755A3A3E0FEA3E0C9
:1000C300FFEE5407FEE4FDFC78081217EEAA079032
:1000D3000755A3A3A3E0FFE4FEFDFC78021217EE8D
:1000E300AE03EE25E0FEEA1313543F4E906272F026
:1000F300AE02EEC4333354C04F906271F0AFC79079
:10010300075EE4F0A3EFF043C7089008457401F0DD
:10011300A37487F0A374B7F0900759E0FBA3E0FA48
:10012300A3E0F9C002A3E0FCA3E0FD900845A3E02F
:10013300FAA3E0F5828A83D0021219AE90075EA378
:10014300E0F5C7A3E024FF92AF22900755EBF0A39D
:10015300EAF0A3E9F0A3121927A2AFE43390075FF3
:10016300F0C2AF900758E0FCA3E0FDA3E0FEA3E0DC
:10017300FF780F1217EEEF5407FFAB07900758A352
:10018300A3E0FEA3E0FFEE547FFEE42FFFEE3480F6
:10019300FE90075EE5C7F0E054F8AC034CF5C7905A
:1001A300075CE0FCA3E0FDC004C005AA06A9077B29
:1001B30001C002900755A3E0FAA3E0F8AC027D0169
:1001C300D002D007D0061215A890075EE0F5C7A3AA
:0601D300E024FF92AF22C0
:0407000000010001F3
:100800007B00782075C9A875C958E8030303035411
:1008100007F5C7F59FE8540F2323234480F585751A
:10082000840075831075820079107A80759201E4D6
:1008300093A3759200F0A3DAF3D9EF759201758551
:1008400062758472EB23F0758562758470E0548064
:1008500070FB7401F000E0548070FB7592017585A7
:1008600062758472EB23F0758562758471E4F07AA9
:100870001079007C087D00E5C74408F5C7C000C0BA
:100880000312089DD003D000E5C754F7F5C7EB70FD
:1008900002080B080BEB941F601902080475920004
:1008A0007583084383807582F0E4737583087582CD
:1008B00000E473002275AE0100E5AE548070FA22A8
:1008C0007B0110AF027B00C083C082C085C084C0A2
:1008D00092EAF583E9F582759201758562758470F7
:1008E000E0548070FB7402F0EC60277A4079047564
:1008F0009200E0A3759201758562758473F0D9EF5B
:100900007400F0758562758470E0544070FBDADD28
:10091000DCD9ED6029ED54FC0303FD7904759200E8
:10092000E0A3759201758562758473F0D9EF740048
:10093000F0758562758470E0544070FBDDDDD09207
:10094000D084D085D082D083EB6002D2AF2275C92B
:10095000A875C9587C087B007A0879B57D0B75921B
:10096000008A838982E493A3AA83A9828C838B82E1
:10097000F0A3AC83AB821DED70E47C087BF07A08B9
:1009800079C07D8E7592008A838982E493A3AA83BD
:10099000A9828C838B82F0A3AC83AB821DED70E4C3
:1009A00022C2AF75C90812094E1208000209AFE44D
:0A09B000F5C975C90B80FE0209A10C
:10100000021271E86480F8E933E83360110460F09B
:10101000ED33EC337009E8FCE9FDEAFEEBFF220456
:1010200060DED3EB9FEA9EE99DE8C2E78CF0C2F751
:1010300095F0400CE8CCF8E9CDF9EACEFAEBCFFB1D
:1010400012123C85D0F05804700320D5B3E8047028
:10105000075002B2D502127B92D5EC0460F7E4CCC3
:10106000C0E0C398F8603B94186008400DD0E0FBE6
:10107000021253E4FBFAC9FC8028E830E406E4C914
:10108000FBE4CAFCE830E305E4C9CACBFCE854073A
:101090006010F8C3E913F9EA13FAEB13FBEC13FC45
:1010A000D8F130F52FC3E49CFCEF9BFFEE9AFEEDE8
:1010B00099FDD0E0FBEF4E4D4C701222DB03021283
:1010C00078EC2CFCEF33FFEE33FEED33FDED30E733
:1010D000EB021253EF2BFFEE3AFEED39FDD0E0FBB1
:1010E00050130BBB000302127BED13FDEE13FEEF5A
:1010F00013FFEC13FC021253EC4D6011E84970171A
:10110000ED33EC3304600DE4FCFFFEFD22E933E82F
:10111000330470F802127112123C58046009E4CCD6
:101120002481500628500902127B284003021278BD
:10113000C0E0EB4A7044B98006D0E0FB021267EFD2
:101140004E701CBD8008EBFFEAFEE9FD80EBE98DE7
:10115000F0A4FEE5F00211E1E9CDF9EAFEEBFFEFC4
:1011600089F0A4FCE5F0CE89F0A42EFFE435F0CDA3
:1011700089F0A42DFEE435F08067EF4E7005BD8048
:10118000D780C3EF8BF0A4ACF0EE8BF0A42CFCE482
:1011900035F0F8EF8AF0A42CE5F038FCE433CB8D81
:1011A000F0A42CFCE5F03BF8EE8AF0A42CFCE5F072
:1011B00038F8E433CF89F0A42CFCE5F038CF3400C4
:1011C000CE89F0A42FFFE5F03EFEE433C98DF0A4F4
:1011D0002EFEE5F039CD8AF0A42FFFE5F03EFEE4C7
:1011E0003DFD33D0E0FB50070BBB000F02127BEC40
:1011F0002CFCEF33FFEE33FEED33FD02125375F09E
:1012000020800E75F010800575F0087D007E007F4F
:10121000003392D530D5031217B9EC334010EF33B9
:10122000FFEE33FEED33FDEC33FCD5F0ED22E5F0BF
:10123000247EA2D513CC92E7CDCEFF22E9D2E7C916
:1012400033E833F892D5EDD2E7CD33EC33FC5002DE
:10125000B2D522EC30E7100FBF000C0EBE00080D17
:10126000BD00040BEB6014A2D5EB13FCED92E7FD7F
:101270002274FFFCFDFEFF22E480F8A2D574FF1368
:10128000FC7D80E480EFF920E73624F950037907EC
:10129000E4F42402FBE582158270021583DBF6E09C
:1012A00024FB501BE96014E4F0E5821582700215FE
:1012B00083E004F0B40A08E4F0D9EE7401F00A22E5
:1012C000C2D522ED33EC3392D5FA602AB4FF33ED68
:1012D000C2E77BFF60067A1279E8E4227A1279F19C
:1012E00020D5047A1279EC224E614E002B494E46ED
:1012F000002D494E4600E47A08F0A3DAFC7B007426
:101300000722C083C082ECC0E0EDC0E0EEC0E0EF99
:10131000C0E0EA75F010A4CAABF075F04DA42BFB49
:10132000E435F0FCEA2410FAEB34C5FBEC34D9FCCC
:10133000EDC2E7FF75F056A4F42411C5F0F434C5EE
:101340008FF0A42AE5F03BE43CF020E71412149857
:10135000D0E0FFD0E0FED0E0FDD0E0FC1213CB8067
:1013600014F404121498D0E0FFD0E0FED0E0FDD0D9
:10137000E0FC1210F8D082D083E0FAEDD2E7CD3352
:10138000EC332482FBE4C3CF33CFCE33CECD33CD89
:1013900033DBF37B0775F00A846004F0A31B0AE5D6
:1013A000F0F0A38FF0740AA4FFACF08EF0740AA4DE
:1013B0002CFEACF050010C8DF0740AA42CFDE43529
:1013C000F0F0A3DBDE74072202127BEC5D04600503
:1013D000E85904700302127112123C580460F6ECD2
:1013E0004860F2EC7004FDFEFF22C860DB2481C877
:1013F0005009C398600250060212789850CAF582CC
:10140000E9294B4A7005AB8202126775F0007C1A1D
:101410007880C3EF9BEE9AED99400DC3EF9BFFEEF2
:101420009AFEED99FDE842F0DC23ACF0D0E0FFD06D
:10143000E0FED0E0FDAB8220E7101BEB60BAEC2CA5
:10144000FCEF33FFEE33FEED33FD021253E803F8F9
:1014500030E705C0F075F000EF2FFFEE33FEED33FF
:10146000FD40B830E7C280AA3F8000004120000064
:1014700042C80000447A0000461C400047C35000A8
:10148000497424004B1896804CBEBC205A0E1BCACF
:101490006753C21C749DC5AEFB60065407601C23D5
:1014A000231214C6EB543860091214B21214C1127C
:1014B00010F8ECF8EDF9EEFAEFCB22EB1214C18044
:1014C000F1543803241C901468FE93FC0EEE93FD37
:1014D0000EEE930ECE93FF22E709F608DFFA804660
:1014E000E709F208DFFA803E88828C83E709F0A3DF
:1014F000DFFA8032E309F608DFFA8078E309F208C0
:10150000DFFA807088828C83E309F0A3DFFA8064BD
:1015100089828A83E0A3F608DFFA805889828A8369
:10152000E0A3F208DFFA804C80D280FA80C680D433
:10153000806980F28033801080A680EA809A80A83B
:1015400080DA80E280CA803389828A83ECFAE4936D
:10155000A3C8C582C8CCC583CCF0A3C8C582C8CCFB
:10156000C583CCDFE9DEE7800D89828A83E493A31B
:10157000F608DFF9ECFAA9F0EDFB2289828A83EC08
:10158000FAE0A3C8C582C8CCC583CCF0A3C8C58285
:10159000C8CCC583CCDFEADEE880DB89828A83E4BD
:1015A00093A3F208DFF980CC88F0EF60010E4E6063
:1015B000C388F0ED2402B4040050B9F582EB240294
:1015C000B4040050AF232345822390152873BB0138
:1015D0000689828A83E0225002E722BBFE02E322D0
:1015E00089828A83E49322BB010CE58229F582E596
:1015F000833AF583E0225006E92582F8E622BBFE15
:1016000006E92582F8E222E58229F582E5833AF5AA
:1016100083E49322BB010689828A83F0225002F779
:1016200022BBFE01F322F8BB010DE58229F582E51C
:10163000833AF583E8F0225006E92582C8F622BBFA
:10164000FE05E92582C8F222BC000BBE0029EF8D01
:10165000F084FFADF022E4CCF875F008EF2FFFEE38
:1016600033FEEC33FCEE9DEC984005FCEE9DFE0F46
:10167000D5F0E9E4CEFD22EDF8F5F0EE8420D21CA1
:10168000FEADF075F008EF2FFFED33FD40079850E9
:1016900006D5F0F222C398FD0FD5F0EA22A3F8E0B8
:1016A000C5F025F0F0E582158270021583E0C83898
:1016B000F0E822BB0110E58229F582E5833AF58343
:1016C000E0F5F0A3E0225009E92582F886F008E66B
:1016D00022BBFE0AE92582F8E2F5F008E222E58362
:1016E0002AF583E993F5F0A3E9932275F008758252
:1016F00000EF2FFFEE33FECD33CDCC33CCC582339C
:10170000C5829BED9AEC99E58298400CF582EE9BA0
:10171000FEED9AFDEC99FC0FD5F0D6E4CEFBE4CDBE
:10172000FAE4CCF9A88222B800C1B90059BA002D58
:10173000EC8BF084CFCECDFCE5F0CBF97818EF2F11
:10174000FFEE33FEED33FDEC33FCEB33FB10D70340
:10175000994004EB99FB0FD8E5E4F9FA227818EFE9
:101760002FFFEE33FEED33FDEC33FCC933C910D748
:10177000059BE99A4007EC9BFCE99AF90FD8E0E455
:10178000C9FAE4CCFB2275F010EF2FFFEE33FEED2B
:1017900033FDCC33CCC833C810D7079BEC9AE899FB
:1017A000400AED9BFDEC9AFCE899F80FD5F0DAE4DD
:1017B000CDFBE4CCFAE4C8F922C3E49FFFE49EFE2B
:1017C000E49DFDE49CFC22EB9FF5F0EA9E42F0E9EB
:1017D0009D42F0EC6480C864809845F022EB9FF550
:1017E000F0EA9E42F0E99D42F0E89C45F022E86074
:1017F0000FECC313FCED13FDEE13FEEF13FFD8F156
:1018000022E8600FEFC333FFEE33FEED33FDEC3320
:10181000FCD8F122BB010789828A83021A15500580
:10182000E9F8021A09BBFE05E9F8021A2189828A41
:1018300083021A2DBB010DE58229F582E5833AF575
:1018400083021A155007E92582F8021A09BBFE0720
:10185000E92582F8021A21E58229F582E5833AF525
:1018600083021A2DBB010789828A8302192750053A
:10187000E9F8021A73BBFE05E9F8021A7F22BB01E0
:101880000DE58229F582E5833AF583021927500791
:10189000E92582F8021A73BBFE07E92582F8021ACD
:1018A0007F22BB010789828A83021A4A5005E9F820
:1018B000021A3DBBFE05E9F8021A5689828A8302A4
:1018C0001A63BB010DE58229F582E5833AF58302AF
:1018D0001A4A5007E92582F8021A3DBBFE07E9259E
:1018E00082F8021A56E58229F582E5833AF58302E9
:1018F0001A637401FF3395E0FEFDFCA3A3A3E0CFC0
:101900002FF0E582158270021583E0CE3EF0E5826D
:10191000158270021583E0CD3DF0E58215827002DC
:101920001583E0CC3CF022ECF0A3EDF0A3EEF0A3A5
:10193000EFF022A8828583F0D083D08212194A1258
:10194000194A12194A12194AE473E493A3C583C5CC
:10195000F0C583C8C582C8F0A3C583C5F0C583C8D8
:10196000C582C822F8E0FBA3A3E0F925F0F0E582E8
:10197000158270021583E0FA38F022EBF0A3EAF04A
:10198000A3E9F022D083D082F8E49370127401931B
:10199000700DA3A393F8740193F5828883E47374A4
:1019A00002936860EFA3A3A380DF8A838982E47334
:1019B000EC8EF0A4CCC5F0CCCDF8EFA4CEC5F02DC4
:1019C000FDE43CFCE8A42EC8C5F03DFDE43CFCEF82
:1019D000A4FFE5F028FEE43DFDE43CFC22EF4E6070
:1019E00012EF60010EEDBB010B89828A83F0A3DF49
:1019F000FCDEFA2289F05007F709DFFCA9F022BBD0
:101A0000FEFCF309DFFCA9F022E6FC08E6FD08E68F
:101A1000FE08E6FF22E0FCA3E0FDA3E0FEA3E0FF5A
:101A200022E2FC08E2FD08E2FE08E2FF22E493FC69
:101A3000740193FD740293FE740393FF22E6FB0886
:101A4000E6F908E6FA08E6CBF822E0F8A3E0F9A305
:101A5000E0FAA3E0FB22E2FB08E2F908E2FA08E27E
:101A6000CBF822E493F8740193F9740293FA7403A7
:101A700093FB22ECF608EDF608EEF608EFF622EC02
:101A8000F208EDF208EEF208EFF222E5082485F5FF
:101A900082E43407F583E0050822900782300703CB
:101AA000900785E475F0011219640215CE2000E953
:101AB0007F2ED2008018EF540F2490D43440D4FFEE
:101AC00030040BEF24BFB41A0050032461FFE50972
:101AD00060021509050CE50C7002050B30070E902D
:101AE0000782E475F001121964EF0216140269B559
:101AF0007403D2078003E4C207F508900782121925
:101B00007BE4F509F50BF50CE50960077F20121A57
:101B1000CE80F5750AFFC201C200C202C203C2052F
:101B2000C206C208121A9AFF700D3007057F001214
:101B30001ADFAF0CAE0B22B4255FC2D5C204121A55
:101B40009AFF24D0B40A00501A75F00A780930D5EB
:101B50000508B6FF0106C6A426F620D5047002D2F9
:101B60000380D924CFB41A00EF5004C2E5D2040296
:101B70001DD1D20180C6D20080C0D20280BCD2D595
:101B800080BAD20580B47F20121ACE2002077401D9
:101B9000B5090040F1121A8BFF121ACE021B08D2AF
:101BA00008D2068095121A8BFB121A8BFA121A8B26
:101BB000F94A4B700679CF7A1E7BFF20022EE50989
:101BC000602A7E008E827583001215E760060EEE95
:101BD000650A70F0C2D5EBC0E0EAC0E0E9C0E0EE13
:101BE000121E32D0E0F9D0E0FAD0E0FB1215CEFFA1
:101BF00060AAEBC0E0EAC0E0E9C0E0121ACED0E093
:101C00002401F9D0E03400FAD0E0FBE50A0460DCFE
:101C1000D50AD98087D20280A2121E1460F7E50A85
:101C2000700104121286A90A600DE50A600914F514
:101C30000A121EBCEF60F3EA30E702F404C39950C5
:101C400079EAF4250A0430E701E404F50A800D126C
:101C50001E1460C1EA050A250A121286EA9007B12D
:101C6000F030E701E4250A04D50A04200501141226
:101C70001E32E4C0E0121EBC9007B1E0601320E702
:101C80000714F0121AB6802204F0D0E014C0E07FEE
:101C900000121AB6E50A6007121AAD150A800B3059
:101CA0000503121AADD0E0021B08D0E00480C41274
:101CB0001E14609EE50A041212869007B1EAF0E550
:101CC0000A2005026001042404121E3274FF04C0BD
:101CD000E0121EBC121AB6E50A2005026003121AB1
:101CE000ADD0E0B50AE87F45121AC09007B1E07F99
:101CF0002B30E7047F2DF404C0E0121ACED0E0753B
:101D0000F00A84C0F0121AB7D0E0121AB7021B080A
:101D1000791080027908C206C2088008D2D5790AF3
:101D20008004790AC2D5E50A047002F50AE4FAFDD6
:101D3000FEFF121A8BFC7B08200113121A8BFD7B0D
:101D40001030000A121A8BFE121A8BFF7B20EC3324
:101D500082D592D55013C3E43000069FFFE49EFE67
:101D6000E42001039DFDE49CFCE4CBF8C201EC708F
:101D70000CCFCECDCCE824F8F870F38017C3EF3346
:101D8000FFEE33FEED33FDEC33FCEB33FB99400209
:101D9000FB0FD8E9EB300105F8D0E0C448B201C030
:101DA000E00AEC4D4E4F78207B0070C2EAB50A0085
:101DB00040BCC0E0121E34D0F0D0E0200104C4C00A
:101DC000E0C4B201C0F0121AB7D0F0D5F0EB021B9C
:101DD000081219841BA5531D10581B764C1B724208
:101DE0001D144F1D1C441D1C491B8B431D22551CDB
:101DF0004F461CAF451C19471EEF501B7A2D1B7E0A
:101E00002E1BA12B1B82231B9F201ED82A1B3A4866
:101E100000001B99E50AB4FF03750A06121A8BFC31
:101E2000121A8BFD121A8BFE121A8BFF9007AA0250
:101E300012C3790AA2D5200314300509B91002048F
:101E400004B9080104A2D52006025001042002684A
:101E50009202B509005034C0E07F203003197F3072
:101E6000A20272067205500F121E8BC202C206C277
:101E700005C2087F30800F300503E9C0E0121ACE9A
:101E8000300503D0E0F9D0E0B509CC3005177F303C
:101E9000B9100C121ACE7F583004077F788003B92E
:101EA0000803121ACE3002057F2D021ACE7F2020A1
:101EB00008F87F2B2006F322920280CF7F00B40720
:101EC00000500B24AAF582E43407F583E0FF2228B2
:101ED0006E756C6C2900D201121A8B3001F8C201A8
:101EE000780930D50108F6021B3A2D5043495812A3
:101EF0001A8B2403B405004001E4901EEA93121AE1
:101F0000BF743A121ABFD203750904021D1090065D
:101F1000FE121927E47FB07E04FDFC9006FEE0F877
:101F2000A3E0F9A3E0FAA3E0FBC31217DD700FE50D
:101F3000C65440C4131354032405FF022161E47FF7
:101F4000607E09FDFC9006FEE0F8A3E0F9A3E0FA4C
:101F5000A3E0FBC31217DD700FE5C65440C4131392
:101F600054032406FF022161E47FC07E12FDFC9031
:101F700006FEE0F8A3E0F9A3E0FAA3E0FBC3121722
:101F8000DD700FE5C65440C4131354032407FF0249
:101F90002161E47F807E25FDFC9006FEE0F8A3E051
:101FA000F9A3E0FAA3E0FBC31217DD700FE5C654F6
:101FB00040C4131354032408FF022161E47F407ED0
:101FC00038FDFC9006FEE0F8A3E0F9A3E0FAA3E0F8
:101FD000FBC31217DD700FE5C65440C4131354033E
:101FE0002408FF022161E4FF7E4BFDFC9006FEE029
:101FF000F8A3E0F9A3E0FAA3E0FBC31217DD700F2A
:10200000E5C65440C4131354032409FF022161E4BC
:102010007F807E70FDFC9006FEE0F8A3E0F9A3E06F
:10202000FAA3E0FBC31217DD700FE5C65440C413DA
:102030001354032409FF022161E4FF7E96FDFC9006
:1020400006FEE0F8A3E0F9A3E0FAA3E0FBC3121751
:10205000DD700FE5C65440C413135403240AFF0275
:102060002161E4FF7EE1FDFC9006FEE0F8A3E0F9CB
:10207000A3E0FAA3E0FBC31217DD700FE5C65440DE
:10208000C413135403240AFF0221617F007E2C7DB8
:10209000017C009006FEE0F8A3E0F9A3E0FAA3E0DB
:1020A000FBC31217DD700FE5C65440C4131354036D
:1020B000240BFF0221617F007EC27D017C0090061F
:1020C000FEE0F8A3E0F9A3E0FAA3E0FBC31217DDFA
:1020D000700FE5C65440C413135403240BFF0221B0
:1020E000617F007E587D027C009006FEE0F8A3E050
:1020F000F9A3E0FAA3E0FBC31217DD700EE5C654A6
:1021000040C413135403240CFF80567F007E847D4B
:10211000037C009006FEE0F8A3E0F9A3E0FAA3E058
:10212000FBC31217DD700EE5C65440C413135403ED
:10213000240CFF802C7F007EB07D047C009006FE86
:10214000E0F8A3E0F9A3E0FAA3E0FBC31217DD7007
:102150000EE5C65440C413135403240DFF80027FC0
:10216000008FC5E47FB07E04FDFC9006FEE0F8A37E
:10217000E0F9A3E0FAA3E0FBC31217DD70057F3B93
:10218000022323E47F607E09FDFC9006FEE0F8A3B5
:10219000E0F9A3E0FAA3E0FBC31217DD70057F3B73
:1021A000022323E47FC07E12FDFC9006FEE0F8A32C
:1021B000E0F9A3E0FAA3E0FBC31217DD70057F3B53
:1021C000022323E47F807E25FDFC9006FEE0F8A339
:1021D000E0F9A3E0FAA3E0FBC31217DD70057F3B33
:1021E000022323E47F407E38FDFC9006FEE0F8A346
:1021F000E0F9A3E0FAA3E0FBC31217DD70057FD876
:10220000022323E4FF7E4BFDFC9006FEE0F8A3E0F2
:10221000F9A3E0FAA3E0FBC31217DD70057F3B02D0
:102220002323E47F807E70FDFC9006FEE0F8A3E0AF
:10223000F9A3E0FAA3E0FBC31217DD70057FD80213
:102240002323E4FF7E96FDFC9006FEE0F8A3E0F970
:10225000A3E0FAA3E0FBC31217DD70057F3B022366
:1022600023E4FF7EE1FDFC9006FEE0F8A3E0F9A385
:10227000E0FAA3E0FBC31217DD70057FD802232329
:102280007F007E2C7D017C009006FEE0F8A3E0F943
:10229000A3E0FAA3E0FBC31217DD70057F3B022326
:1022A000237F007EC27D017C009006FEE0F8A3E063
:1022B000F9A3E0FAA3E0FBC31217DD70047FD88016
:1022C000627F007E587D027C009006FEE0F8A3E06D
:1022D000F9A3E0FAA3E0FBC31217DD70047F3B8093
:1022E000427F007E847D037C009006FEE0F8A3E040
:1022F000F9A3E0FAA3E0FBC31217DD70047FD880D6
:10230000227F007EB07D047C009006FEE0F8A3E012
:10231000F9A3E0FAA3E0FBC31217DD70047F3B8052
:10232000027F008FC222126EF19006FDEFF0126E56
:10233000569006FE1219279007021219337FFFFFED
:10234000FFE4900706F0D39001DBE094019001DAFE
:10235000E064809480502190078574FFF0A3742876
:10236000F0A3747CF0A3E4F0A37408F07B017A037B
:102370007996121AF0125A371273F4E4900707F0A4
:10238000900707E0FFC3940840030224DFEF75F0D5
:1023900009A4241BF9740035F0FA7B01A3EBF0A328
:1023A000EAF0A3E9F09000081215E7FFC31320E05C
:1023B000030224D6900708E0FBA3E0FAA3E0F91299
:1023C00018A29006FEE0FCA3E0FDA3E0FEA3E0C39C
:1023D0009BFFEE9AFEED99FDEC98FC90070B12190D
:1023E00027900708E0FBA3E0FAA3E0F990000412AD
:1023F0001834EF2401FFE43EFEE43DFDE43CFCC064
:1024000004C005C006C007900708A3A3E09000041D
:1024100012183490070BE0F8A3E0F9A3E0FAA3E068
:10242000FBC3EF9BFFEE9AFEED99FDEC98FCD00309
:10243000D002D001D000121727AC00AD01AE02AF20
:102440000390070F121927D39001DBE0940190014C
:10245000DAE064809480504290078574FFF0A374A2
:1024600028F0A3749BF090070BE0FCA3E0FDA3E031
:10247000FEA3E0FF90078812192790070FE0FCA346
:10248000E0FDA3E0FEA3E0FF90078C1219277B017B
:102490007A037996121AF0125A37900702E0FCA3D9
:1024A000E0FDA3E0FEA3E0FF90070FE0F8A3E0F952
:1024B000A3E0FAA3E0FBC31217C7501A90070FE07E
:1024C000FCA3E0FDA3E0FEA3E0FF900702121927A2
:1024D0009007067401F0900707E004F0022380D310
:1024E0009001DBE094019001DAE064809480503840
:1024F00090078574FFF0A37428F0A374BDF09007D3
:1025000006E0FF900788E4F0A3EFF0900702A3A392
:10251000E0FFA3E090078ACFF0A3EFF07B017A03FE
:102520007996121AF0125A37900706E0607CE4FFA1
:10253000FEFDFC900702E0F8A3E0F9A3E0FAA3E0B7
:10254000FBD31217C750139006FEE0FCA3E0FDA3D7
:10255000E0FEA3E0FF1231548050D39001DBE09401
:10256000019001DAE064809480501A90078574FF2E
:10257000F0A37428F0A374FAF07B017A0379961221
:102580001AF0125A37900702E0FCA3E0FDA3E0FE28
:10259000A3E0FF9007171219279006FEE0FCA3E0C6
:1025A000FDA3E0FEA3E0FF1267389006FDE0FF0206
:1025B000719342067A0001420392000142028E00AA
:1025C000224201DA0009410499FF4100120141064B
:1025D00083004106F40042006A00014101DF22410C
:1025E00006F8004100660041014500410017004423
:1025F0000071000000004404A70000000041000337
:10260000004104AB004101DC0041066E0041028B39
:1026100000410496004101440041001A0041014676
:1026200000410147004104A200410671004106F348
:10263000004104A6004106F7004306F000000041F7
:10264000006C004105D1004204AF00004104A40029
:102650004101E00061000290000000000000000065
:10266000000000000000000000000000000000006A
:10267000000000000000000000000000000000005A
:10268000000000000000000000000000000000004A
:10269000000000000000000000000000000000003A
:1026A000000000000000000000000000000000002A
:1026B000000000000000000000000000000000001A
:1026C000000000000000000000000000000000000A
:1026D00000000000000000000000000000000000FA
:1026E00000000000000000000000000000000000EA
:1026F00000000000000000000000000000000000DA
:1027000000000000000000000000000000000000C9
:1027100000000000000000000000000000000000B9
:1027200000000000000000000000000000000000A9
:102730000000000000000000000000000000000099
:102740000000000000000000000000000000000089
:1027500000000000000000004104AE0041067D00C2
:1027600042007500004104AD004200180001410123
:1027700043004101D92241000E0041028D00410079
:1027800013004206F5FFFF410002004104AC004186
:1027900001DE0041066F0041028C004104970041B8
:1027A00000110041049800608E07B77B0110AF0252
:1027B0007B00C083C082C085C084C092EAF583E9F3
:1027C000F582759201758562758470E0548070FBA6
:1027D0007402F0EC60277A407904759200E0A375EA
:1027E0009201758562758473F0D9EF7400F0758578
:1027F00062758470E0544070FBDADDDCD9ED60294D
:10280000ED54FC0303FD7904759200E0A375920179
:10281000758562758473F0D9EF7400F07585627503
:102820008470E0544070FBDDDDD092D084D085D040
:1028300082D083EB6002D2AF220052664D616342C8
:1028400061736553656E64502E537562436F726594
:1028500053656E642E73656E64446F6E6520726599
:1028600073756C7425640A002A2053656E74257391
:10287000210D0A004F4B004641494C0075706461C0
:10288000746546726F6D54696D6572204E554D5F6B
:1028900054494D4552533D25640A00656C6170737F
:1028A0006564203D203078256C782C2072656D6140
:1028B000696E696E673D3078256C780A00757064C2
:1028C00061746546726F6D54696D6572206D696ED5
:1028D0005F72656D61696E696E675F697373657458
:1028E0003D25642C206D696E5F72656D61696E694E
:1028F0006E673D307825782C0A00566972747561D0
:102900006C697A6554696D6572432063616C6C20F3
:1029100054696D657246726F6D2E73746172744F77
:102920006E6553686F7441740A00416C61726D305A
:102930002E737461727441742054314343544C308B
:102940003D307825780A005669727475616C697A31
:102950006554696D6572432E54696D657246726F78
:102960006D2E66697265640A0074656D703A202583
:10297000662C2068756D3A2025660D0A003D3D3DA8
:102980003D3D3D3D3D3D3D3D626F6F743D3D3D3DB7
:102990003D3D3D3D3D3D3D3D0A0043505520534C9E
:1029A0004545500A004350552057414B452055504E
:1029B0000A005669727475616C697A6554696D654F
:1029C00072432E54696D65722E73746172744F6E0A
:1029D0006553686F742064743D256C640A00566901
:1029E000727475616C697A6554696D6572432E54B1
:1029F000696D65722E7374617274506572696F646B
:102A000069632064743D256C640A006669726554CC
:102A1000696D6572732025642C206E6F773D307868
:102A2000256C782C656C61707365643D3078256C1D
:102A3000782C2064743D3078256C782C74303D30CF
:102A400078256C780A001241A690072C121927905D
:102A5000049AE0FCA3E0FDA3E0FEA3E0FF90006D7C
:102A6000E0F8A3E0F9A3E0FAA3E02FFFEA3EFEE9D5
:102A70003DFDE83CFC90073012192790072CE0F848
:102A8000A3E0F9A3E0FAA3E0FBA3E0FCA3E0FDA32D
:102A9000E0FEA3E0C39BFFEE9AFEED99FDEC98FCEF
:102AA000A312192790072CE0FCA3E0FDA3E0FEA3EE
:102AB000E0FF90006DE0F8A3E0F9A3E0FAA3E0FBEB
:102AC000D31217DD503F90006DE0FCA3E0FDA3E0C2
:102AD000FEA3E0FF900730E0F8A3E0F9A3E0FAA33B
:102AE000E0FBC31217DD406390072CE0FCA3E0FD80
:102AF000A3E0FEA3E0FFA3E0F8A3A3A3E0D3121793
:102B0000DD5048803C90006DE0FCA3E0FDA3E0FEBA
:102B1000A3E0FF900730E0F8A3E0F9A3E0FAA3E018
:102B2000FBC31217DD501A90072CE0FCA3E0FDA3B5
:102B3000E0FEA3E0FFA3E0F8A3A3A3E01217DD509B
:102B40000A90073412193300000000E4FF7E04FDF0
:102B5000FC900734E0F8A3E0F9A3E0FAA3E0FBD38C
:102B60001217DD404E90072CE0FCA3E0FDA3E0FE31
:102B7000A3E02400FFEE3404FEE43DFDE43CFC90C1
:102B8000006D121927900734E0FCA3E0FDA3E0FEDE
:102B9000A3E02400FFEE34FCFEED34FFFDEC34FF37
:102BA000FC90049A1219279007341219330000047C
:102BB00000803890006DE0FCA3E0FDA3E0FEA3E000
:102BC000FF90049AE0F8A3E0F9A3E0FAA3E0FBEF9A
:102BD0002BFFEE3AFEED39FDEC38FC90006D12193A
:102BE0002790049A1219330000000090072CA3A329
:102BF000E0FEA3E07805C333CE33CED8F9FFC0069C
:102C0000C007900734A3A3E0FEA3E07805C333CE4A
:102C100033CED8F9FDAC06D007D0060244091246DF
:102C2000F990071B12192790049EE0FCA3E0FDA376
:102C3000E0FEA3E0FF900077E0F8A3E0F9A3E0FA5C
:102C4000A3E02FFFEA3EFEE93DFDE83CFC90071FB4
:102C500012192790071BE0F8A3E0F9A3E0FAA3E01C
:102C6000FBA3E0FCA3E0FDA3E0FEA3E0C39BFFEE1B
:102C70009AFEED99FDEC98FCA312192790071BE032
:102C8000FCA3E0FDA3E0FEA3E0FF900077E0F8A343
:102C9000E0F9A3E0FAA3E0FBD31217DD503F900068
:102CA00077E0FCA3E0FDA3E0FEA3E0FF90071FE0B8
:102CB000F8A3E0F9A3E0FAA3E0FBC31217DD406339
:102CC00090071BE0FCA3E0FDA3E0FEA3E0FFA3E070
:102CD000F8A3A3A3E0D31217DD5048803C900077FF
:102CE000E0FCA3E0FDA3E0FEA3E0FF90071FE0F8F7
:102CF000A3E0F9A3E0FAA3E0FBC31217DD501A909A
:102D0000071BE0FCA3E0FDA3E0FEA3E0FFA3E0F8C7
:102D1000A3A3A3E01217DD500A9007231219330072
:102D20000000007F007E807DFF7CFF900723E0F89D
:102D3000A3E0F9A3E0FAA3E0FBD31217DD404E9025
:102D4000071BE0FCA3E0FDA3E0FEA3E02400FFEEF0
:102D50003480FEED34FFFDEC34FFFC900077121957
:102D600027900723E0FCA3E0FDA3E0FEA3E02400FE
:102D7000FFEE3480FEE43DFDE43CFC90049E12191D
:102D800027900723121933FFFF80008038900077C7
:102D9000E0FCA3E0FDA3E0FEA3E0FF90049EE0F8CA
:102DA000A3E0F9A3E0FAA3E0FBEF2BFFEE3AFEED80
:102DB00039FDEC38FC90007712192790049E121907
:102DC000330000000090071BA3A3E0FEA3E0FFC0B8
:102DD00006900723A3A3E0FEA3E0FDAC06D0060205
:102DE0004B7090071EEBF0A3EAF0A3E9F090028C81
:102DF000E07003022F8F900067E0FBA3E0FAA3E0EE
:102E00002481F9E43AFA900725EBF0A3EAF0A3E96C
:102E1000F0900067126F3C900728EBF0A3EAF0A354
:102E2000E9F0900721E0F9A3E0FAA3E090072BC9AD
:102E3000F0A3EAF0A3E9F0900728E0FBA3E0FAA3EF
:102E4000E0F99000011215E77003022F8F90072B15
:102E5000E0FBA3E0FAA3E0F9126FD4900728E0FBAF
:102E6000A3E0FAA3E0F91215CE6F6003022F8F9052
:102E700000671271A7C006C00790071E127012D01B
:102E800005D004EF6D7002EE6C6003022F8F90008E
:102E900067127012C006C00790071E1271A7D005F6
:102EA000D004EF6D7002EE6C6003022F8F90071E4E
:102EB000E0FBA3E0FAA3E02481F9E43AFA90072EBC
:102EC000EBF0A3EAF0A3E9F0127050AD07900725EC
:102ED000E0FBA3E0FAA3E0F9126EAD90072EE0FB51
:102EE000A3E0FAA3E02401126FD0900725126F250A
:102EF00090072EE0FBA3E0FAA3E0240212704CAD91
:102F000007900725E0FBA3E0FAA3E02402F9E43AE6
:102F1000FA126EAD900725E0FBA3E0FAA3E02403CC
:102F2000F9E43AFA7D01126EAD900725E0FBA3E0CB
:102F3000FAA3E02406F9E43AA801FCAD0390072BBC
:102F4000E0FBA3E0FAA3E0F97E007F091215A89048
:102F5000071EE0F9A3E0FAA3E0900734C9F0A3EA62
:102F6000F0A3E9F090072BE0F9A3E0FAA3E09007C3
:102F700037C9F0A3EAF0A3E9F0900067126020904F
:102F80000067E0FBA3E0FAA3E0F9E4FD125C7990AE
:102F9000071EE0FBA3E0FAA3E0F92290071EEBF086
:102FA000A3EAF0A3E9F090028BE0700302314890AD
:102FB0000063E0FBA3E0FAA3E02481F9E43AFA908D
:102FC0000725EBF0A3EAF0A3E9F0900063126F3C51
:102FD000900728EBF0A3EAF0A3E9F0900721E0F9CD
:102FE000A3E0FAA3E090072BC9F0A3EAF0A3E9F06D
:102FF000900728E0FBA3E0FAA3E0F9900001121586
:10300000E7700302314890072BE0FBA3E0FAA3E04E
:10301000F9126FD4900728E0FBA3E0FAA3E0F912BD
:1030200015CE6F60030231489000631271A7C0068D
:10303000C00790071E127012D005D004EF6D700209
:10304000EE6C6003023148900063127012C006C03B
:103050000790071E1271A7D005D004EF6D7002EE25
:103060006C600302314890071EE0FBA3E0FAA3E086
:103070002481F9E43AFA90072EEBF0A3EAF0A3E9F1
:10308000F0127050AD07900725E0FBA3E0FAA3E033
:10309000F9126EAD90072EE0FBA3E0FAA3E0240145
:1030A000126FD0900725126F2590072EE0FBA3E04A
:1030B000FAA3E0240212704CAD07900725E0FBA3B1
:1030C000E0FAA3E02402F9E43AFA126EAD90072583
:1030D000E0FBA3E0FAA3E02403F9E43AFA7D01124D
:1030E0006EAD900725E0FBA3E0FAA3E02406F9E427
:1030F0003AA801FCAD0390072BE0FBA3E0FAA3E0A4
:10310000F97E007F091215A890071EE0F9A3E0FAE6
:10311000A3E0900734C9F0A3EAF0A3E9F090072BED
:10312000E0F9A3E0FAA3E0900737C9F0A3EAF0A31F
:10313000E9F0900063126020900063E0FBA3E0FAE6
:10314000A3E0F9E4FD125EE690071EE0FBA3E0FABF
:10315000A3E0F922900713121927E4900717F090C3
:103160000717E0FFC3940840030232E7EF75F00948
:10317000A4241BF9740035F0FA7B01A3EBF0A3EA59
:10318000F0A3E9F09000081215E7FFC31320E00355
:103190000232DE900718E0FBA3E0FAA3E0F9121870
:1031A000A2900713E0FCA3E0FDA3E0FEA3E0C39B15
:1031B000FFEE9AFEED99FDEC98FC90071B12192783
:1031C000900718E0FBA3E0FAA3E0F99000041218BE
:1031D0003490071BE0F8A3E0F9A3E0FAA3E0FBC3F7
:1031E0001217DD50030232DE900718E0FBA3E0FA6D
:1031F000A3E0F99000081215E730E011E92408F97E
:10320000E43AFA1215CE54FD1216148049900718AC
:10321000E0FBA3E0FAA3E0F99000041218C29007C3
:103220001BE0FCA3E0FDA3E0FEA3E0FF1217279044
:103230000713E0FCA3E0FDA3E0FEA3E0C39BFFEEC9
:103240009AFEED99FDEC98FC900718E0FBA3E0FADC
:10325000A3E0F9121864D39001DBE094019001DA45
:10326000E064809480506F90078574FFF0A3742A07
:10327000F0A3740BF0900717E0FF900788E4F0A329
:10328000EFF090071BE0FCA3E0FDA3E0FEA3E0FF4E
:1032900090078A121927900713E0FCA3E0FDA3E032
:1032A000FEA3E0FF90078E121927900718E0FBA3FA
:1032B000E0FAA3E0F9900004121834900792121972
:1032C000271218149007961219277B017A03799612
:1032D000121AF0125A37900717E0FF1259E59007BB
:1032E00017E004F002315F7F0502679890072B1208
:1032F0006EE9900732EFF090072EE0FBA3E0FAA30F
:10330000E0F9900733EBF0A3EAF0A3E9F01215CE51
:1033100024DE60421460651470030233A11470034C
:103320000233C61470030233EB2405600302340E2B
:1033300090072EE0F9A3E0FAA3E090073CC9F0A3C0
:10334000EAF0A3E9F090072BE0FBA3E0FAA3E0F991
:10335000126B6E02340E90072EE0F9A3E0FAA3E0A0
:1033600090073CC9F0A3EAF0A3E9F090072BE0FB3B
:10337000A3E0FAA3E0F9126C2702340E90072EE0C6
:10338000F9A3E0FAA3E090073CC9F0A3EAF0A3E9AF
:10339000F090072BE0FBA3E0FAA3E0F912670980A5
:1033A0006D90072EE0F9A3E0FAA3E090073CC9F086
:1033B000A3EAF0A3E9F090072BE0FBA3E0FAA3E077
:1033C000F9126CF0804890072EE0F9A3E0FAA3E030
:1033D00090073CC9F0A3EAF0A3E9F090072BE0FBCB
:1033E000A3E0FAA3E0F9123AC6802390072EE0F991
:1033F000A3E0FAA3E090073CC9F0A3EAF0A3E9F048
:1034000090072BE0FBA3E0FAA3E0F9123D6A9007D6
:103410002BE0F9A3E0FAA3E0900736C9F0A3EAF0A5
:10342000A3E9F0900732E0FF127193900736E0FBBA
:10343000A3E0FAA3E0F922900782EFF0A3ECF0ED0D
:10344000126EE690078FEFF0900785E0F9A3E0FA9F
:10345000A3E0900790C9F0A3EAF0A3E9F0900785F4
:10346000E0FBA3A3E02481F9E43AFA900793EBF0A0
:10347000A3EAF0A3E9F0900785A3E0FAA3E0F9A39B
:10348000E0FD12737A900790E0FBA3E0FAA3E0243A
:1034900001F9E43AFAE4FDFC126DB2900783E0F41E
:1034A0007003A3E0F46029900790E0FBA3E0FAA387
:1034B000E02401F9E43AFA90078CEBF0A3EAF0A3D8
:1034C000E9F0126BFBAC06EF442090078C126DA95B
:1034D000900790E0FBA3E0FAA3E02401F9E43AFAB4
:1034E000900789EBF0A3EAF0A3E9F0126BFBEE443E
:1034F00088FCEF4441900789126DA9126A28AD0734
:10350000900785E0FBA3E0FAA3E0F91271E79007CA
:1035100085E0FBA3E0FAA3E0900783127096125EA9
:1035200013AC06AD07900785E0FBA3E0FAA3E0F932
:103530001272CF900793E0FBA3E0FAA3E0F9E4FD59
:10354000126EAD900793126F27900790E0FBA3E0F7
:10355000FAA3E0F91271A2AD07900785E0FBA3E0A2
:10356000FAA3E0F91263B7900796EFF090078FE0A7
:10357000FF127193900796E0FF22900714EBF0A3DF
:10358000EAF0A3E9F0900713EFF02484603F248C65
:103590006069147003023628247660030236559061
:1035A0000717E0F9A3E0FAA3E0900721C9F0A3EA26
:1035B000F0A3E9F090071AE0900724F0900714E0D8
:1035C000FBA3E0FAA3E0F91238C70236859007178B
:1035D000E0F9A3E0FAA3E0900721C9F0A3EAF0A381
:1035E000E9F090071AE0900724F0900714E0FBA39D
:1035F000E0FAA3E0F9122F9B023685900717E0F955
:10360000A3E0FAA3E0900721C9F0A3EAF0A3E9F050
:1036100090071AE0900724F0900714E0FBA3E0FA6B
:10362000A3E0F91237B3805D900717E0F9A3E0FA41
:10363000A3E0900721C9F0A3EAF0A3E9F090071AEC
:10364000E0900724F0900714E0FBA3E0FAA3E0F970
:10365000122DE28030900713E0FF900717E0F9A3E6
:10366000E0FAA3E0900722C9F0A3EAF0A3E9F09002
:10367000071AE0900725F0900714E0FBA3E0FAA3F7
:10368000E0F912714F90071BEBF0A3EAF0A3E9F009
:1036900090071BE0FBA3E0FAA3E0F922900708EBF8
:1036A000F0A3EAF0A3E9F090070EE0FCA3E0FDE44C
:1036B0001212037B0A7AD77923783C1210F87BD751
:1036C0007AA3791E78C2121007900708E0FBA3E0E6
:1036D000FAA3E0F9121864900710E0FCA3E0FDE4FF
:1036E0001212037BA27AE7793B78B61210F8C00475
:1036F000C005C006C007900710E0FCA3E0FDE4127F
:103700001203D003D002D001D0001210F8C004C0C0
:1037100005C006C007900710E0FCA3E0FDE412120C
:10372000037B547AE37925783D1210F8D003D00258
:10373000D001D000121007E4FBFA798078C0121093
:1037400007900712121927900710E0FCA3E0FDE490
:103750001212037BAC7AC579A778381210F87B0A6D
:103760007AD77923783C121007C004C005C006C080
:1037700007900708E0FBA3E0FAA3E0F9121814E4AD
:10378000FBFA79C878C1121007D003D002D001D05B
:10379000001210F8900712E0F8A3E0F9A3E0FAA3F2
:1037A000E0FB12100790070BE0FBA3E0FAA3E0F99F
:1037B00002186490071EEBF0A3EAF0A3E9F090076B
:1037C0001E12651EEF70030238BB90071E126F3A7F
:1037D000900725EBF0A3EAF0A3E9F090077FE4F06F
:1037E000A3F0A3F07B017A0579DE125E58900728DA
:1037F000EBF0A3EAF0A3E9F0900721E0FBA3E0FAE5
:10380000A3E02402F9E43AFA900721EBF0A3EAF0EE
:10381000A3E9F0A3E024FEF0A3E0FBA3E0FAA3E019
:10382000F99000011215E760561215CEFD90072F92
:103830007401F0A37405F0A374DEF0900728E0F99A
:10384000A3E0FAA3E0900732C9F0A3EAF0A3E9F0FD
:1038500090071E12486090071E127140AD077B0151
:103860007A0579DE1271E790071E127012AC06AD70
:10387000077B017A0579DE12709C7F1112679890A0
:10388000071E127012900725126317EF7002802B2B
:10389000900721E0F9A3E0FAA3E090072EC9F0A376
:1038A000EAF0A3E9F0900724E0900731F090071EBA
:1038B000E0FBA3E0FAA3E0F90232EC90071EE0FB84
:1038C000A3E0FAA3E0F92290071EEBF0A3EAF0A32D
:1038D000E9F090071E12651EEF70030239C99007C8
:1038E0001E126F3A900725EBF0A3EAF0A3E9F090DF
:1038F000077FE4F0A3F0A3F07B017A057941125E23
:1039000058900728EBF0A3EAF0A3E9F0900721E034
:10391000FBA3E0FAA3E02402F9E43AFA900721EBD2
:10392000F0A3EAF0A3E9F0A3E024FEF0A3E0FBA3F8
:10393000E0FAA3E0F99000011215E760531215CEEA
:10394000FD90072F7401F0A37405F0A37441F0906B
:103950000728E0F9A3E0FAA3E0900732C9F0A3EA50
:10396000F0A3E9F090071E12486090071E12714004
:10397000AD077B017A0579411271E712700FAC0631
:10398000AD077B017A05794112709C7F0B12679815
:1039900012700F900725126317EF7002802B9007AB
:1039A00021E0F9A3E0FAA3E090072EC9F0A3EAF022
:1039B000A3E9F0900724E0900731F090071EE0FBA8
:1039C000A3E0FAA3E0F90270D690071EE0FBA3E0A3
:1039D000FAA3E0F922AC059006FFEBF0A3EAF0A30E
:1039E000E9F0900705EBF0A3EAF0A3E9F024011257
:1039F0006BF7EF5407FF64027003023AC5EF6401EE
:103A00006003023AC5900705E0FBA3E0FAA3E024B7
:103A100081F9E43AFAA3EBF0A3EAF0A3E9F0240277
:103A2000F9E43AFAC003C002C001EC24FFFFE43419
:103A3000FFFE9006FFE0FBA3E0FAA3E0F98F828E81
:103A4000831215E7FFC41313135401FDD001D002F4
:103A5000D003126EADEC24FEFFE434FFFE9006FFAF
:103A6000E0FBA3E0FAA3E0F98F828E831215E7FD55
:103A7000900708E0FBA3E0FAA3E0F9126EAD90070F
:103A800008E0FBA3E0FAA3E0F9127050EF247FFDF9
:103A9000900708126F27900705E0FBA3E0FAA3E068
:103AA000F990070212719AAD07900702E0FBA3E0BC
:103AB000FAA3E0F9126FAE900705E0FBA3E0FAA3CA
:103AC000E0F912464122900739125E0BAC06AD07B1
:103AD00090073C12516190073FEEF0A3EFF0900782
:103AE0003CE0FBA3E0FAA3E0F99000041215E7D351
:103AF00094144003023BAC90073FE0FEA3E0FFC3F9
:103B0000EE648094805003023BACD3EF9400EE64EB
:103B1000809480402F900739127043AD0790073F83
:103B2000E0FEA3E07802C333CE33CED8F9FF90078E
:103B30003CE0FBA3E0FAA3E02FF9EA3EFA90000490
:103B4000ED12162690073FE0FEA3E0FF04FD90076C
:103B50003CE0FBA3E0FAA3E0F9900005ED12162685
:103B600090073CE0F9A3E0FAA3E0900744C9F0A372
:103B7000EAF0A3E9F0A3EEF0A3EFF0900739E0FB41
:103B8000A3E0FAA3E0F91244CA90073CE0F9A3E0ED
:103B9000FAA3E0900744C9F0A3EAF0A3E9F0900784
:103BA00039E0FBA3E0FAA3E0F912722322126EF1CE
:103BB0009007B2EFF09062A4E030E618E5AF30E293
:103BC0001353AFEF53E6BF900017E04410F090009E
:103BD0000C7401F09062A3E030E618E5AF30E11319
:103BE00053AFF753E5BF900017E04408F090000C86
:103BF0007401F0E5E730E63FE5AF30E23A53AFFB62
:103C0000E5E720E722AFDE9007B3E4F0A3EFF0AFE3
:103C1000DFEFFEE02400F09007B3E03EF0E0FEA30B
:103C2000E0FF12733A801053E7BF900017E044049E
:103C3000F090000C7401F0E5E630E618E5AF30E1F5
:103C40001353AFFD53E6BF900017E04402F090001D
:103C50000C7401F0E5E530E618E5AF30E01353AF42
:103C6000FE53E5BF900017E04401F090000C740192
:103C7000F0E5AF30E51053AFDF900017E04420F0DF
:103C800090000C7401F09007B2E0FF027193E49091
:103C9000073FF090073FE0FFC39408501674842F4D
:103CA000F582E43406F583E0B4FF0890073FE004B2
:103CB000F080E090073FE0C39408401A7B017A0649
:103CC0007984900753E4F0A37408F07F047EF87DB4
:103CD000007C00026BB37B017A077944900753E4C0
:103CE000F0A37408F07F04126BADE490073FF090EE
:103CF000073FE0FFC394085023E0FE2484F582E4EC
:103D00003406F583E0FD74442EF582E43407F58330
:103D1000E0B5050890073FE004F080D3EFC39408B6
:103D200050477B017A077940900753E4F0A374046D
:103D3000F07F00126BAD7F007EF87D007C00126A80
:103D4000977B017A077940900753E4F0A37404F05D
:103D50007F0012641F7B017A067984900753E4F098
:103D6000A37408F07F0412641F22900739125E0BBF
:103D700090073C12515D90073FEEF0A3EFF09007E3
:103D80003CE0FBA3E0FAA3E0F99000041215E7FF82
:103D9000D394144003023E4490073FE0FCA3E0FDAF
:103DA000C3EC648094805003023E44EF24FFFFE4A0
:103DB00034FFFEC3ED9FEE6480F8EC648098502FD2
:103DC000900739127043AD0790073FE0FEA3E078FB
:103DD00002C333CE33CED8F9FF90073CE0FBA3E01B
:103DE000FAA3E02FF9EA3EFA90000DED12162690A4
:103DF000073CE0F9A3E0FAA3E0900756C9F0A3EA74
:103E0000F0A3E9F090073FE0FFA3E0900759CFF05F
:103E1000A3EFF0900739E0FBA3E0FAA3E0F9125317
:103E2000E390073CE0F9A3E0FAA3E0900744C9F06F
:103E3000A3EAF0A3E9F0900739E0FBA3E0FAA3E0DE
:103E4000F9127217229006FEEFF0AF03AE02900750
:103E50000B7401F0A37407F0A37403F0A3ECF0A3B8
:103E6000EDF0A3EEF0A3EFF07B017A0679FF1236B6
:103E70009C9001DAE0FEA3E0FFC39FEE6480F8EEC1
:103E8000648098404D126EF1900707EFF09007851F
:103E900074FFF0A37429F0A37469F09006FFE0FCAE
:103EA000A3E0FDA3E0FEA3E0FF900788121927908E
:103EB0000703E0FCA3E0FDA3E0FEA3E0FF90078C76
:103EC0001219277B017A037996121AF090070712CC
:103ED0005A32900014E0FBA3E0FAA3E0F8AC02AD84
:103EE000037B017A0679FF7E007F041215A89000FB
:103EF00014E0FBA3E0FAA3E02404F9E43AA801FCEF
:103F0000AD037B017A0779037E007F041215A89028
:103F100006FEE070047F018002E4FF1267982290A1
:103F2000075D126EE3900763EFF090075F126F3A40
:103F3000900764EBF0A3EAF0A3E9F090075FE0FBE1
:103F4000A3E0FAA3E02481F9E43AFA900767EBF0E2
:103F5000A3EAF0A3E9F09004ACE0600890076A746B
:103F600001023FEA90075DE0F47003A3E0F47F00F4
:103F700060027F01900764E0FBA3E0FAA3E0F99000
:103F80000001EF121626900767126E9E900012E055
:103F9000FF900764E0FBA3E0FAA3E0F9EF12161428
:103FA00090075FE0FBA3E0FAA3E0F990075D1270D1
:103FB0009790075F126FEB90075F12634DEF7026CB
:103FC000900012E004F09004AC7401F090075FE000
:103FD000F9A3E0FAA3E09001F8C9F0A3EAF0A3E99D
:103FE000F0E49001DEF090076AEFF0900763E0FFE5
:103FF00012719390076AE0FF229006FD126EE39023
:104000000703EFF09006FF126F3A900704EBF0A35E
:10401000EAF0A3E9F09006FFE0FBA3E0FAA3E024B6
:1040200081F9E43AFA900707EBF0A3EAF0A3E9F08C
:104030009004ABE0600890070A74010240C3900648
:10404000FDE0F47003A3E0F47F0060027F019007BD
:1040500004E0FBA3E0FAA3E0F9900001EF121626BA
:10406000900707126E9E900012E0FF900704E0FB9D
:10407000A3E0FAA3E0F9EF1216149006FFE0FBA309
:10408000E0FAA3E09006FD1270969006FF126FEB27
:104090009006FF126382EF7026900012E004F09009
:1040A00004AB7401F09006FFE0F9A3E0FAA3E090FE
:1040B00001F5C9F0A3EAF0A3E9F0E49001DCF09087
:1040C000070AEFF0900703E0FF12719390070AE0F0
:1040D000FF22AA05A90390072DEEF0A3EFF0125BD3
:1040E0009990072FEEF0A3EFF0EA75F00184AAF0A3
:1040F000C3EE64809480500B1255B890072FEEF0F9
:10410000A3EFF0900730E025E0FF90072FE033FEAB
:10411000747B2FF58274003EF583E0FEA3E0FF90F0
:10412000072DE0FCA3E0FDEFB5052DEEB50429A3B6
:10413000E0FEA3E0FFEA75F064A4248CF582E43489
:1041400006F583E5822FF582E5833EF583E0B50130
:1041500007E4900731F0FF2290072DE0FCA3E0FD7B
:10416000900730E025E0FF90072FE033FE747B2FAF
:10417000F58274003EF583ECF0A3EDF090072FE09C
:10418000FCA3E0FDEA75F064A4248CF582E4340617
:10419000F583E5822DF582E5833CF583E9F0900710
:1041A000317401F0FF2290078A12193300000000D9
:1041B000900071E0FCA3E0FDA3E0FEA3E0FF126825
:1041C000EC900792EEF0A3EFF012728EEF60249065
:1041D000078EE0FCA3E0FDA3E0FEA3E02401FFE4E2
:1041E0003EFEE43DFDE43CFC1268EC900792EEF0EC
:1041F000A3EFF090078EE0FCA3E0FDA3E0FEA3E0B8
:10420000FF900794121927900792E0FEA3E078052B
:10421000CEC313CE13D8F9FFE4FCFD900798121912
:1042200027900794E0FCA3E0FDA3E0FEA3E0FF7865
:104230000B121801A3E0F8A3E0F9A3E0FAA3E04F02
:10424000FFEA4EFEE94DFDE84CFC90078A12192763
:1042500090078AE0FCA3E0FDA3E0FEA3E0FF900747
:1042600094121927900794E0FCA3E0FDA3E0FEA3BD
:10427000E0FF2290076EEEF0A3EFF0A3EBF0A3EACD
:10428000F0A3E9F0126F42900775EBF0A3EAF0A3F8
:10429000E9F0900770E0FBA3E0FAA3E02481F9E4E1
:1042A0003AFA900778EBF0A3EAF0A3E9F090028CD9
:1042B000E0600890077B7401F0FF2290076EE0F445
:1042C0007003A3E0F47F0060027F01900775E0FBBC
:1042D000A3E0FAA3E0F9900001EF12162690077808
:1042E000126E9E900770127021900781EFF0900778
:1042F0006EE0FEA3E0FFA3E0FBA3E0FAA3E0F91267
:104300005904900774EFF090077D121933000027CD
:10431000107F05124D10900774E0FF701B9007701E
:10432000E0F9A3E0FAA3E0900067C9F0A3EAF0A3E4
:10433000E9F090028C7401F090077BEFF022900777
:104340000EEEF0A3EFF0A3EBF0A3EAF0A3E9F01276
:104350006F42900715EBF0A3EAF0A3E9F090071085
:10436000E0FBA3E0FAA3E02481F9E43AFA9007180D
:10437000EBF0A3EAF0A3E9F090028BE0600890076D
:104380001B7401F0FF2290070EE0F47003A3E0F429
:104390007F0060027F01900715E0FBA3E0FAA3E035
:1043A000F9900001EF121626900718126E9E9007E2
:1043B00010127021900721EFF090070EE0FEA3E0AD
:1043C000FFA3E0FBA3E0FAA3E0F912566C900714F8
:1043D000EFF090077D121933000027107F03124D74
:1043E00010900714E0FF701B900710E0F9A3E0FAAB
:1043F000A3E0900063C9F0A3EAF0A3E9F090028B78
:104400007401F090071BEFF022900738EEF0A3EF55
:10441000F0A3ECF0A3EDF0AFE2AD077C00AFE3EF6B
:10442000FEE42DFDEC3EFC900738E0FEA3E0FFC368
:10443000ED9FFFEC9EFED390073BE09F90073AE094
:104440009E5008ED2405FEE43C8033C390073BE01A
:104450009FFF90073AE09EFE90073EF0A3EFF0D357
:104460009405EE94005008ED2405FEE43C800FAE68
:1044700004AF0590073FE02DFE90073EE03C90071B
:104480003CF0A3CEF053E5FB90073CE0FEA3E0F543
:10449000DAEEF5DB43E50443E540D39001DBE0943D
:1044A000019001DAE064809480501E90078574FFCB
:1044B000F0A37429F0A3742AF0A3E5E5F07B017A58
:1044C000037996121AF0125A3722900741EBF0A3A3
:1044D000EAF0A3E9F074FF900749F0A3F078497C73
:1044E000017D01900741E0FBA3E0FAA3E0F97E0023
:1044F0007F901215A8900744E0FBA3E0FAA3E0F92F
:104500009000041215E724FFFFE434FFFE900747F4
:10451000E0FCA3E0FDC39FEE6480F8EC648098505B
:1045200033EDAE047802C333CE33CED8F929F9EA9D
:104530003EFA90000A1216B3900749127065900770
:1045400062EFF0900749E0FEA3E0FF7B017A01797A
:1045500049023F1F900744E0F9A3E0FAA3E0900767
:104560004EC9F0A3EAF0A3E9F0900747E0FFA3E00B
:10457000900751CFF0A3EFF0900741E0FBA3E0FAE2
:10458000A3E0F912594F229006FDEEF0A3EFF012CE
:104590006EF1A3EFF01257C3900700EBF0A3EAF01F
:1045A000A3E9F0900700E0FBA3E0FAA3E0F974218F
:1045B000121614900700E0FBA3E0FAA3E0F99000C4
:1045C000017403121626900002E4121626900003CE
:1045D000E4121626127394900700E0FBA3E0FAA3FE
:1045E000E0F9900012EF121626E92408F9E43AFAED
:1045F000126967900002E0FF04F0900700E0FBA35F
:10460000E0FAA3E0F9900011EF1216261271F39070
:104610000002E0700204F09006FDE0FEA3E0FF7BE4
:10462000017A0179499007627415F0123F1F9007D3
:1046300003EFF09006FFE0FF127193900703E0FF95
:104640002290070BEBF0A3EAF0A3E9F090070B121E
:104650006D5CEF70030246F890070BE0FBA3E0FAF5
:10466000A3E0F91272A490070EEFF090077F740197
:10467000F0A37407F0A3740FF090070B125E509034
:104680000710EBF0A3EAF0A3E9F090070BE0FBA31F
:10469000E0FAA3E0F9126616EF90070E602DE0FF36
:1046A000900710E0F9A3E0FAA3E0900717C9F0A380
:1046B000EAF0A3E9F090070FE090071AF090070BDB
:1046C000E0FBA3E0FAA3E0F902357AE0FF900710DF
:1046D000E0F9A3E0FAA3E0900717C9F0A3EAF0A37A
:1046E000E9F090070FE090071AF090070BE0FBA3AA
:1046F000E0FAA3E0F9127131229007271219330072
:10470000000000900075E0FFA3E090072BCFF0A31E
:10471000EFF01268F290072DEEF0A3EFF012728E18
:10472000EF601990072CE004F0700690072BE0046E
:10473000F01268F290072DEEF0A3EFF090072BE057
:10474000FEA3E0FFE4FCFD90072F12192790072D30
:10475000E0FEA3E0FFE4FCFD900733121927900769
:104760002FE0FCA3E0FDA3E0FEA3E0FF7810121809
:1047700001A3E0F8A3E0F9A3E0FAA3E04FFFEA4EBB
:10478000FEE94DFDE84CFC900727121927900727FA
:10479000E0FCA3E0FDA3E0FEA3E0FF90072F1219C9
:1047A0002790072FE0FCA3E0FDA3E0FEA3E0FF229B
:1047B000900704EBF0A3EAF0A3E9F0A3EDF0900773
:1047C00004E0FBA3E0FAA3E04A4B700790070E0455
:1047D000F0FF22900704E0F9A3E0FAA3E09006F0CE
:1047E000C9F0A3EAF0A3E9F0E490006CF09004A60D
:1047F000F09006F7F09004AFF0A3F0900704E0FB10
:10480000A3A3E090070B127199AD0790070BE0FB93
:10481000A3E0FAA3E0F9126FAE900704E0FBA3E077
:10482000FAA3E0F91271A2AD07900704E0FBA3E040
:10483000FAA3E0F9126EF9900704E0FBA3E0FAA3F3
:10484000E0900708127199AD07900708E0FBA3E01C
:10485000FAA3E0F9126FAE1264521266A97F002229
:10486000E0FBA3E0FAA3E0F990072BEBF0A3EAF05A
:10487000A3E9F0A3EDF0126EF1900735EFF0900789
:104880002EE0FDA3E0F9A3E0FAA3E090073BC9F016
:10489000A3EAF0A3E9F0900732E0F9A3E0FAA3E07D
:1048A00090073EC9F0A3EAF0A3E9F090072BE0FBE4
:1048B000A3E0FAA3E0F91262A890072EE0FDA3E0BE
:1048C000F9A3E0FAA3E090073BC9F0A3EAF0A3E95B
:1048D000F0900732E0F9A3E0FAA3E090073EC9F0B8
:1048E000A3EAF0A3E9F090072BE0FBA3E0FAA3E032
:1048F000F91270549007367409F0900735E0FF12F2
:104900007193A3E0FF22900700EFF012693F900738
:1049100001EBF0A3EAF0A3E9F0900671E024035460
:1049200003900704F01270A6EF70629004A2E0FFFB
:10493000900700E02FF0E05403F0900704E0FF90B0
:104940000700E0FE6F603BEE045403FD900705F0A6
:1049500075F003A424D2F582E43405F583E0FBA3CB
:10496000E0FAA3E0F9EE75F003A424D2F582E43472
:1049700005F583EBF0A3EAF0A3E9F0900700EDF072
:1049800080B8900671EFF09006F3E014F090070104
:10499000E0FBA3E0FAA3E0F9900706EBF0A3EAF04E
:1049A000A3E9F022787FE4F6D8FD9000017FFE7E37
:1049B0001FE4F0A3DFFCDEFA7581210249F90264ED
:1049C000B8E493A3F8E493A34003F68001F208DF70
:1049D000F48029E493A3F85407240CC8C333C454C7
:1049E0000F4420C8834004F456800146F6DFE4807B
:1049F0000B01020408102040809025B2E47E019350
:104A000060BCA3FF543F30E509541FFEE493A3604C
:104A1000010ECF54C025E060A840B8E493A3FAE4A7
:104A200093A3F8E493A3C8C582C8CAC583CAF0A3F8
:104A3000C8C582C8CAC583CADFE9DEE780BE12578F
:104A4000C39006FDEBF0A3EAF0A3E9F01215CE64E3
:104A500025703E9006FDE0F9A3E0FAA3E0A3C91299
:104A60005E0C12515A900703EEF0A3EFF09007008E
:104A7000E0F9A3E0FAA3E090074EC9F0A3EAF0A39F
:104A8000E9F0A3EEF0A3EFF07B017A017949025936
:104A90004F9006FDE0FBA3E0FAA3E0F91215CEB4B7
:104AA0002635900700125E0B12515A900703EEF064
:104AB000A3EFF0900700E0F9A3E0FAA3E090075617
:104AC000C9F0A3EAF0A3E9F0A3EEF0A3EFF07B01B5
:104AD0007A0179491253E322900145E07003024BB9
:104AE0006F9001DAE0FEA3E0FFC39FEE6480F8EE72
:104AF0006480984022126EF19006FCEFF0900785DA
:104B000074FFF0A37429F0A3749AF07B017A0379FF
:104B100096121AF0125A2FE5BE54FC4402F5BE124A
:104B20007426127406D293E4900145F075870190C3
:104B300001DAE0FEA3E0FFC39FEE6480F8EE64803C
:104B4000984022126EF19006FCEFF090078574FFFA
:104B5000F0A37429F0A374A5F07B017A037996126F
:104B60001AF0125A2FC293E4FF1273A01274252276
:104B7000900727EEF0A3EFF0A3ECF0A3EDF0AFE287
:104B8000AD077C00AFE3EFFEE42DFDEC3EFC9007AB
:104B900027E0FEA3E0FFC3ED9FFFEC9EFED390074E
:104BA0002AE09F900729E09E5008ED2405FEE43C92
:104BB0008033C390072AE09FFF900729E09EFE9074
:104BC000072DF0A3EFF0D39405EE94005008ED24E8
:104BD00005FEE43C800FAE04AF0590072EE02DFEED
:104BE00090072DE03C90072BF0A3CEF053E6FB900E
:104BF000072BE0FEA3E0F5DCEEF5DD43E60443E63B
:104C000040229006FDEDF0126EF1A3EFF090001A35
:104C1000E070089006FEE0FF0271939006FEE0FF50
:104C20001271939006FDE0FD126ABC9006FDE060F3
:104C300043D39001DBE094649001DAE064809480D7
:104C40005032126EF19006FEEFF090078574FFF07F
:104C5000A37428F0A3743AF09006FDE0FF90078853
:104C6000E4F0A3EFF07B017A037996121AF0900634
:104C7000FE125A32126EF19006FEEFF0E490001A26
:104C8000F01271937F08126798229006FCEFF0B43F
:104C900012005073904C9BF8282873024CD1024CA0
:104CA000D4024CD7024CDA024CDD024CE0024CE359
:104CB000024CE6024CE9024CEC024CEF024CF202D0
:104CC0004CF5024CF8024CFB024CFE024D01024D29
:104CD000040273FA026C9C0263EB027422025AC251
:104CE000022326025C26025D81024D8F026C0902BE
:104CF00058670273280270E6027299024A3E025B0C
:104D0000E0025D3C02731F9006FCE0FF1273C422B8
:104D100090077CEFF0126EF1900781EFF0D39001D5
:104D2000DBE094019001DAE064809480502E9007DB
:104D30008574FFF0A37429F0A374B2F090077DE0AE
:104D4000FCA3E0FDA3E0FEA3E0FF90078812192773
:104D50007B017A037996121AF0125A37126E569026
:104D6000078312192790077DE0FCA3E0FDA3E0FE76
:104D7000A3E0FF90078712192790078B7401F0902A
:104D8000077CE0FF125071900781E0FF02719312DF
:104D90006EF1900703EFF090001AE0600280651258
:104DA00070A6EF6002805D1261FE9006FDEBF0A33D
:104DB000EAF0A3E9F09006FDE0FBA3E0FAA3E04AE5
:104DC0004B7005126792803C9006FDE0FBA3E0FA71
:104DD000A3E0F91271A2AD079006FDE0FBA3E0FA93
:104DE000A3E0F91247B0EF700790001A04F08014A6
:104DF0009006FDE0FBA3E0FAA3E0F97D01126ABC96
:104E0000E4126792900703E0FF127193229006FD6F
:104E1000EFF0126EF1900702EFF0D39001DBE09417
:104E2000019001DAE064809480502E90078574FF31
:104E3000F0A37429F0A374DEF09006FEE0FCA3E07A
:104E4000FDA3E0FEA3E0FF9007881219277B017AFB
:104E5000037996121AF0125A37126E56900783127F
:104E600019279006FEE0FCA3E0FDA3E0FEA3E0FF0F
:104E7000900787121927E490078BF09006FDE0FF5A
:104E8000125071900702E0FF027193E5B454F344AD
:104E90000CF5B49061897448F075E1E3906199E094
:104EA00030E0F9E49006FBF0A3F0A3F09006FCE0FC
:104EB00025E0FF9006FBE033FE9061A7E05401FD82
:104EC000EF4DFF9006FBEEF0A3EFF0A3E004F0E05F
:104ED000B410D99006FBE0FEA3E0FF4E6006BE03CF
:104EE0000DBF800A9006FB74BAF0A374BEF0900662
:104EF000FBE0FEA3E0F5BCEEF5BC75E1EF90618947
:104F00007440F07F002278047C007D017E007F08E1
:104F10001215A890000BE0900684F090000AE09033
:104F20000685F0900009E0900686F0900008E09079
:104F30000687F0900007E0900688F0900006E09069
:104F40000689F0900005E090068AF0900004E09059
:104F5000068BF07FE87EFF7D037C00126A977B0161
:104F60007A067984900753E4F0A37408F07FE87E12
:104F7000FF7D037C0012642512544712537C0264A7
:104F8000EB900708EBF0A3EAF0A3E9F0900707EF36
:104F9000F014601B146029146037240370449007D8
:104FA00008E0FBA3E0FAA3E0F9A3E0FD0273EE90B2
:104FB0000708E0FBA3E0FAA3E0F9A3E0FD0273EB2E
:104FC000900708E0FBA3E0FAA3E0F9A3E0FD027379
:104FD000E8900708E0FBA3E0FAA3E0F9A3E0FD02F4
:104FE00073E5900707E0FFA3E0FBA3E0FAA3E0F975
:104FF000A3E0900710F012715E2243FD0243FE8091
:10500000D281C2979001F47401F09001F4E0FF1492
:10501000F0EF70F6D2979001F47401F09001F4E093
:10502000FF14F0EF70F6C2819001F47401F090016A
:10503000F4E0FF14F0EF70F6C2979001F47403F0FF
:105040009001F4E0FF14F0EF70F6D2979001F47441
:1050500001F09001F4E0FF14F0EF70F6D2819001BE
:10506000F47401F09001F4E0FF14F0EF70F6C297D1
:1050700022EF75F009A4241BF9740035F0FA9007AB
:105080008C7401F0A3EAF0A3E9F0900783E0FCA39D
:10509000E0FDA3E0FEA3E0FF90078CE0FBA3E0FAB5
:1050A000A3E0F9121864900787E0FCA3E0FDA3E0F9
:1050B000FEA3E0FF90078CE0FBA3E0FAA3E0F990E9
:1050C000000412187E90078BE05401FFE92408F9D0
:1050D000E43AFA1215CE54FE4F1216144402121678
:1050E000147F050267987B017A0179FB7D011262CA
:1050F000E0EF60659001FBE0FFD3947F401475E121
:10510000ED75E1EDE4F59B75E9FB90067DF090040B
:10511000AEF0EF547F9001FBF07B017A0179FCE067
:10512000FD1262E0EF60329001FBE0FF24FBF582AC
:10513000E43401F583E030E70C7B017A0179FBEF81
:1051400004FD0239D575E1ED75E1EDE4F59B75E9F6
:10515000FB90067DF09004AEF022900700AC06AD07
:1051600007E0FBA3E0FAA3E0F9900741EBF0A3EA24
:10517000F0A3E9F0A3ECF0A3EDF0E4A3F090074175
:10518000E0FBA3E0FAA3E0F99000041215E7FF901A
:105190000746E0FEC39F502EEE75F004A4FFE92FF2
:1051A000F9EA35F0FA9000061216B3FF900744E0D2
:1051B000B5F00BA3E0B50706A3E0FF7E0022900741
:1051C00046E004F080B77EFF7FFF229007A2EFF059
:1051D00075F01384AFF0EFF0125CF7EF70559000AC
:1051E00066E02401FFE433FE7C007D131216489034
:1051F00006F8E0B50502803B900066E075F0138488
:10520000E5F0F09007A2E0FF900066E0FE24E1F5F3
:1052100082E43401F583EFF0EE2401FFE433FE7CF9
:10522000007D13121648900066EDF09007A37401FC
:10523000F0FF22E49007A3F0FF22900683E0FF64D2
:10524000016005EF6402706053FDFD308106900639
:10525000F4E004F09006F4E0D39400400280447F30
:10526000011256C4900680E0FBA3E0FAA3E0F9EF38
:105270001216147F011256C4900680E0FBA3E0FAD8
:10528000A3E0F9900001EF121626E4FF1256C49035
:1052900001DDEFF0900683E0C394025006E004F0D5
:1052A0000256127F02126798229007A0EFF0127246
:1052B000D99007A2EFF0E49007A1F09007A2E0FEDA
:1052C0009007A1E0FFC39E504012693F9007A3EBF7
:1052D000F0A3EAF0A3E9F09007A3E0FBA3E0FAA3B0
:1052E000E04A4B601C9007A3A3126FCC9007A0E08C
:1052F000B5070EA3E0FF7E009007A6EEF0A3EFF047
:10530000229007A1E004F080B274FF9007A3F0A3FD
:10531000F0FFFE22D39001DBE094099001DAE06413
:105320008094805025126EF19006FAEFF090078578
:1053300074FFF0A37429F0A3747DF07B017A0379E4
:1053400096121AF09006FA125A32B29212676590CB
:1053500006FE121933000007D07F07124E0D90078A
:1053600008E4F0A3F0A3F07B017A0479B11257D2DC
:10537000900014EBF0A3EAF0A3E9F022900004E01F
:1053800090616AF0900005E090616BF0900006E09B
:1053900090616CF0900007E090616DF0900008E083
:1053A00090616EF0900009E090616FF090000AE06B
:1053B000906170F090000BE0906171F01272AF900C
:1053C000073FEEF0A3EFF01272BAAD07AC069007FC
:1053D0003FE0FEA3E0906172F0EEA3F0EDA3F0ECED
:1053E000A3F02274FF90075BF0A3F078497C017D65
:1053F000017E007F901215A8900759E0FEA3E0FF00
:10540000D39400EE64809480403CEF7802C333CEA6
:1054100033CED8F9FF900756E0FBA3E0FAA3E02FC4
:10542000F9EA3EFA9000021216B390075B1270651B
:10543000900762EFF090075BE0FEA3E0FF7B017A4C
:10544000017949123F1F227B017A06798490075324
:10545000E4F0A37408F07FE87EFF7D037C00126B0C
:10546000B3123C8E90068BE0900004F090068AE028
:10547000900005F0900689E0900006F0900688E024
:10548000900007F0900687E0900008F0900686E014
:10549000900009F0900685E090000AF0900684E004
:1054A00090000BF022A2AFE433900148F0C2AF901D
:1054B0000017E0FF9006FEF0E4900017F09001481E
:1054C000E024FF92AFEF30E0031265E59006FEE0C6
:1054D00030E1031265B49006FEE030E20312742A54
:1054E0009006FEE030E5031273AC900017E0601107
:1054F000126EF19006FFEFF090000C7401F0127143
:1055000093229006FFEBF0A3EAF0A3E9F0D3900119
:10551000DBE094099001DAE064809480503F126EE1
:10552000F1900702EFF090078574FFF0A37428F064
:10553000A37468F0ED7BFF70067A28797480047A92
:10554000287977900788EBF0A3EAF0A3E9F07B01D4
:105550007A037996121AF0900702125A32229007B3
:1055600000126EE3900706EFF0900702E0FBA3E065
:10557000FAA3E02485F9E43AFA7D03126F34900728
:1055800002E0FBA3E0FAA3E0240AF9E43AFA7D7C06
:10559000126FAE900706E0FF127193900700E0FCD7
:1055A000A3E0FDA3E0FBA3E0FAA3E0F9A3E09007EA
:1055B00088F07F0312343722E4900732F0900732EC
:1055C000E0FFC394645023EF25E0247BF582E434AC
:1055D00000F583E0FEA3E04E70089007327E00A342
:1055E000802A900732E004F080D3900498E090077E
:1055F00032F0FB2401FFE433FE7C007D6412164888
:10560000900498EDF0EBFF7E00900733EEF0A3EFEF
:10561000F022126270124FFA900683E0900680B476
:10562000010F7401F0A37400F0A3740FF07F0380E6
:105630000D7401F0A37403F0A37490F07F05125F62
:10564000619006F4E02FF09006F4E0D39400400758
:105650007F02126798800F90077D121933000001B6
:105660002C7F01124D109006F4E0FF2290071CEEF3
:10567000F0A3EFF0A3EBF0A3EAF0A3E9F090071E8C
:10568000E0FBA3E0FAA3E02485F9E43AFAE4FD1292
:105690006F3490071EE0FBA3E0FAA3E0240AF9E4CC
:1056A0003AFA7D7B126FAE90071CE0FCA3E0FDA3ED
:1056B000E0FBA3E0FAA3E0F9A3E0900788F0E4FFA1
:1056C00012343722E4FE43FE8043FD02D28153FDB3
:1056D000FD7D80EDD394004020D2979001F47401B9
:1056E000F09001F4E0FC14F0EC70F6308103EE4D24
:1056F000FEC297EDC313FD80DA43FD02EF24FFB332
:105700009281D2979001F4740AF09001F4E0FF14B2
:10571000F0EF70F6C297D281AF062290070CEBF043
:10572000A3EAF0A3E9F0A3EDF090028CE0603F90D3
:10573000070FE0702890070C126F3A900710EBF0FB
:10574000A3EAF0A3E9F09000011215E7600F9007BB
:105750007D121933000000327F04024D1090070CB7
:10576000E0FBA3E0FAA3E0F9A3E0FD125C7922904C
:10577000070CEBF0A3EAF0A3E9F0A3EDF090028BA5
:10578000E0603F90070FE0702890070C126F3A908E
:105790000710EBF0A3EAF0A3E9F09000011215E77F
:1057A000600F90077D121933000000327F02024D16
:1057B0001090070CE0FBA3E0FAA3E0F9A3E0FD12D0
:1057C0005EE622900708E4F0A3F0A3F07B017A01E3
:1057D0007949900705EBF0A3EAF0A3E9F0A3E0FB19
:1057E000A3E0FAA3E04A4B6015900705126F68909A
:1057F0000708E0FBA3E0FAA3E0F9EF121614900704
:105800007FE4F0A3F0A3F0900705125E50E92402B4
:10581000F9E43AFA22D285C286C287C281C285EAF9
:10582000C0037B08334004C287012DD287C286D2D1
:1058300086DBF1D003D285C287C286C28122D2859F
:10584000C286C287D281C285EAC0037B0833400486
:10585000C2870156D287C286D286DBF1D003D285B9
:10586000C287C286C2812212609AAD079004AFE05F
:10587000FEA3E0FFD3945AEE940040089005D17443
:105880005AF080289005D1E0FB7A00D3EF9BEE9A86
:1058900040119004B0E02BFF9004AFE03AC313EF47
:1058A0001380059004AFA3E09005D1F0ED60028075
:1058B00001E4FF126EB522900700126EE390070616
:1058C000EFF0900702E0FBA3E0FAA3E02485F9E4FF
:1058D0003AFA7D02126F349007027DF1126FA190A7
:1058E0000706E0FF127193900700E0FCA3E0FDA320
:1058F000E0FBA3E0FAA3E0F9A3E0900788F07F02C1
:105900001234372290077CEEF0A3EFF0A3EBF0A364
:10591000EAF0A3E9F090077EE0FBA3E0FAA3E0241D
:1059200085F9E43AFA7D01126F3490077E7DF0121A
:105930006FA190077CE0FCA3E0FDA3E0FBA3E0FAED
:10594000A3E0F9A3E0900788F07F0112343722909A
:10595000074BEBF0A3EAF0A3E9F0A3E0FBA3E0FA26
:10596000A3E0F9742612161490074EE0F9A3E0FAAA
:10597000A3E0900756C9F0A3EAF0A3E9F09007511D
:10598000E0FFA3E0900759CFF0A3EFF090074BE0C2
:10599000FBA3E0FAA3E0F90253E3126EF1900700D3
:1059A000EFF0900071E0FCA3E0FDA3E0FEA3E02493
:1059B00001FFE43EFEE43DFDE43CFC900071121961
:1059C00027900071E0FCA3E0FDA3E0FEA3E0FFE46C
:1059D000FBFAF9F8C31217DD70031273A6900700E3
:1059E000E0FF02719390071FEFF0B408005037906A
:1059F00059F6F8282873025A0E025A11025A140254
:105A00005A17025A1A025A1D025A20025A230273C6
:105A1000CA02523A0272E30272ED0272F702730195
:105A20000273F70273CF90071FE0FF12739A229060
:105A300006FCE0FF127193E4900782F0A3F0900758
:105A400082E0FEA3E0FFC3EE64809481502A749646
:105A50002FF58274033EF583E0601D900782E475A4
:105A6000F00112169DFE749625F0F58274033EF542
:105A700083E0FF126F4F80C62290079CEBF0A3EAF1
:105A8000F0A3E9F090079C126FC71252A9C3EE640D
:105A9000809480400890079F7434F0FF2290079C08
:105AA000E0FBA3E0FAA3E0F9125CB2EF6008900714
:105AB0009F7435F0FF227F08126798E490079FF0EB
:105AC000FF22126EF19006FDEFF0900003E0702FC0
:105AD00012614EC004C005C006C0079004A7E0FCD8
:105AE000A3E0FDA3E0FEA3E0FF90071F121927E447
:105AF000900723F0D007D006D005D004125B5212D5
:105B000065839006FDE0FF027193900066E0FF90D0
:105B100006F8E0FEB507037FFF2274E12EF582E46C
:105B20003401F583E09006FCF0FB74E12EF582E48D
:105B30003401F58374FFF0EE2401FFE433FE7C00B2
:105B40007D131216489006F8EDF0EB75F01384AF54
:105B5000F02290071B12192790071FE0FCA3E0FD1D
:105B6000A3E0FEA3E0FF9004A7121927900723E00B
:105B7000900003F090071FE0FCA3E0FDA3E0FEA36C
:105B8000E0FF90072812192790071BE0FCA3E0FD17
:105B9000A3E0FEA3E0FF026C62E4900732F09007FE
:105BA00032E0FDC39464502DED25E0247BF582E4C2
:105BB0003400F583E0FCA3E0B50712ECB5060E90C7
:105BC0000732E0FF7E00A3EEF0A3EFF02290073251
:105BD000E004F080C974FF900733F0A3F0FFFE22C9
:105BE000126EF19006FDEFF09004ACE07002802D93
:105BF0009001DEE0FF04F0EFC3941450109001F820
:105C000012634DEF60177F0F12679880109001F8B4
:105C1000E0FBA3E0FAA3E0F97D371266479006FDAA
:105C2000E0FF12719322126EF19006FDEFF09004E6
:105C3000ABE07002802D9001DCE0FF04F0EFC39434
:105C40001450109001F5126382EF60177F061267FF
:105C50009880109001F5E0FBA3E0FAA3E0F97D370E
:105C60001266789006FDE0FF12719322900067E0C3
:105C7000FBA3E0FAA3E0F97D36126EF1900731EF55
:105C8000F090028CE07008900731E0FF0271937F82
:105C900005126DC4900067EBF0A3EAF0A3E9F09061
:105CA000067FEDF0900731E0FF1271937F101267CD
:105CB0009822127343AE071272D9EFC39E503090F0
:105CC0000671E075F003A424D2F582E43405F5836F
:105CD000EBF0A3EAF0A3E9F0900671E004F0E054E1
:105CE00003F09006F3E004F0E49007A0F0FF2290A8
:105CF00007A07401F0FF22AB079006F8E075F013DF
:105D000084AFF0900066E0FA6F602E74E12FF582A8
:105D1000E43401F583E0B503037F0122EF2401FFA2
:105D2000E433FE7C007D13121648AF05EA75F013CC
:105D300084900066E5F0F080CA7F0022126EF19038
:105D400006FDEFF090028CE070079006FDE0FF800A
:105D50002C900067E0FBA3E0FAA3E0F990067FE057
:105D6000FE9006FDE0FF127193AF06AD07126FD9EA
:105D7000126EF19006FDEFF0E490028CF012719338
:105D800022126EF19006FDEFF090028BE07007900A
:105D900006FDE0FF802C900063E0FBA3E0FAA3E0A7
:105DA000F990067EE0FE9006FDE0FF127193AF06CB
:105DB000AD07126FFD126EF19006FDEFF0E4900258
:105DC0008BF012719322E5915408FF9061A4E0FEDC
:105DD0005F60057591F7801DE59154105E60057553
:105DE00091EF8011E5915401FF9061A4E0FE5F60A6
:105DF00004EE54FEF0E5E95404FF9061A3E05F6017
:105E0000061260D675E9FBE4F59B22EBF0A3EAF0FD
:105E1000A3E9F0126EF1900797EFF09004ADE070F7
:105E2000111273D9900018EEF0A3EFF09004AD7446
:105E300001F01273D9900018E06E7003A3E06F6058
:105E400003126B04900797E0FF1271931273D9222B
:105E5000E0FBA3E0FAA3E0F990077CEBF0A3EAF003
:105E6000A3E9F0A3E0FBA3E0FAA3E04A4B6015909E
:105E7000077C12702190077FE0FBA3E0FAA3E0F912
:105E8000EF12161490077CE0FBA3E0FAA3E0240CC9
:105E9000F9E43AFA22126EF19006FBEFF0125B0A77
:105EA0009006FAEFF0A3E0FF1271939006FAE090EB
:105EB0000499F0126F0F125F1DEF60051261898067
:105EC000F59006FAE0FFF46005124C8A80C7125F75
:105ED0001DEF70C1124AD880BC900063E0FBA3E0C4
:105EE000FAA3E0F97D36126EF1900731EFF09002DF
:105EF0008BE07008900731E0FF027193126DC29041
:105F00000063EBF0A3EAF0A3E9F090067EEDF090D9
:105F10000731E0FF1271937F0712679822126EF12A
:105F20009006FCEFF0E4A3F09006FDE0FFC39402BE
:105F3000501C740C2FF582E43400F583E060079068
:105F400006FE7401800C9006FDE004F080DAE49017
:105F500006FEF09006FCE0FF1271939006FEE0FF53
:105F60002243FD0243FE807E80EED394004024EE67
:105F70005F6004D2818002C281D2979001F47403E1
:105F8000F09001F4E0FD14F0ED70F6C297EEC3134B
:105F9000FE80D6D281D29753FDFDA281E433FFC2A9
:105FA0009722126A729006FAEFF0124E8B9006FA60
:105FB0001270B9EFF012686E12605D12605DAD078D
:105FC0009006FAE0FF1270BDEFF01273FD1270B987
:105FD000EFF01271FFAD079006FAE0FF1270BDEF0F
:105FE000F022E5C65480FE53BEFBE59D30E5FBE59F
:105FF0009D20E2F6EFB40107EE4449F5C68007EFB5
:106000007004AF068FC69006FAE5C6F09006FBE571
:106010009EF09006FAE0FFA3E0B507F043BE04222D
:10602000E0FBA3E0FAA3E0F9C002C001900734E06E
:10603000F9A3E0FAA3E090073DC9F0A3EAF0A3E9D1
:10604000F0900737E0F9A3E0FAA3E0900740C9F029
:10605000A3EAF0A3E9F0D001D00202725FAD07908D
:1060600006FAE0FF1270BDEFF0E4F5E5F5E6F5E7BE
:106070009062A3F0A3F0F5E2E5C654C74418F5C654
:10608000E5E454F3440CF5E4E5E454FC4401F5E4A0
:10609000E4F5AF43D840D2B9FF229006FD12193380
:1060A000000000009007017401F075E1E99006FD21
:1060B0001218F2E47B987A3AF9F8D31217DD400A05
:1060C000E59130E1E8E4900701F0E4F59B7591FD7E
:1060D000900701E0FF2290619BE0FFD39400402BEA
:1060E000EFD39480400C75E1ED75E1EDE4F59B751F
:1060F000E9FB90067DE0FF2490F582E43402F5830D
:10610000E5D9F0EF0490067DF080CB90000D74018E
:10611000F022900848EBF0A3EAF0A3E9F07D10EB41
:10612000F8E20B7C08334006C0E0EAF82132C0E018
:10613000E9F8C002E2FA12583E08E2FA12583E08A4
:10614000E2FA12583ED002D0E0DCDADDD22290042E
:106150009AE0FCA3E0FDA3E0FEA3E0FF90006DE069
:10616000F8A3E0F9A3E0FAA3E02FFFEA3EFEE93D41
:10617000FDE83CFC9006FE1219279006FEE0FCA309
:10618000E0FDA3E0FEA3E0FF22E49006FCF0900611
:10619000FCE0FFC39402502B740C2FF582E4340012
:1061A000F583E06016C2AF9006FCE0240CF582E4B3
:1061B0003400F583E4F0D2AF126D769006FCE00473
:1061C000F080CB22126EF19006FDEFF0900683E096
:1061D000FF601AC394004010EFD39402500A900657
:1061E000FE12718BA3E0FF22E4900683F0900683F9
:1061F00012718BE49006F4F01256127F0022126A9C
:106200004D900704EBF0A3EAF0A3E9F01270A6EFBB
:1062100070109004A2E004F0E05403F09006F3E064
:1062200014F0900704E0FBA3E0FAA3E0F9A3EBF07D
:10623000A3EAF0A3E9F022126D279006FDEFF01219
:106240006DF41270B6EFF0126D0C1270B6EFF01222
:106250006DDB1270B6EFF01271C11270B6EFF01272
:1062600070C61270B6EFF01268981270B6EFF02296
:1062700043FD0243FE80D281C297E4FFD297900192
:10628000F47401F09001F4E0FE14F0EE70F6C297A1
:106290009001F47401F09001F4E0FE14F0EE70F659
:1062A0000FEFB409D7024FFA900737EBF0A3EAF0EB
:1062B000A3E9F0A3EDF07E007F097D0090073EE0AA
:1062C000FBA3E0FAA3E0F91219DD90073EE0FBA37F
:1062D000E0FAA3E0F990073AE0FD126F347F09225B
:1062E000EDD39400402E90067DE0FF9004AEE0FEDA
:1062F000B507037F0022EE2490F582E43402F58393
:10630000E01216149004AEE004F0740129F9E43AA6
:10631000FA1D80CC7F0122AC06AD07E0FBA3E0FABA
:10632000A3E0F91215CEFBE4FFAA07126EF1900765
:106330002BEFF0AE04AF05AD021240D290072CEF68
:10634000F090072BE0FF127193A3E0FF22E0FBA384
:10635000E0FAA3E0F990076BEBF0A3EAF0A3E9F011
:1063600090076B1271A790076B126F64900773EF21
:10637000F090076BE0FBA3E0FAA3E0F9AF0512424F
:106380007322E0FBA3E0FAA3E0F990070BEBF0A384
:10639000EAF0A3E9F090070B1271A790070B126FB8
:1063A00064900713EFF090070BE0FBA3E0FAA3E083
:1063B000F9AF0512433E2290079AEDF0900797EB54
:1063C000F0A3EAF0A3E9F02403F9E43AFA900146D5
:1063D000E004FDF0126FAE900797E0FBA3E0FAA394
:1063E000E0F9125A7990079BEFF0229006F4E0D37F
:1063F00094007F0040027F01AE07126EF19006FD0F
:10640000EFF0E4900683F0127193AF0690000FE076
:10641000FCA3E0FD900390E0FAA3E0FB023E457E82
:10642000F87D007C00900750EBF0A3EAF0A3E9F0C0
:10643000C007900750E0FBA3E0FAA3E0F9A3E0FF58
:10644000A3E090075CCFF0A3EFF0D0071200867FA7
:106450000022126ECC9005D1E0FD7C00121648AFF0
:10646000059004A4EFF0700204F09004A4E0FF7E15
:10647000009004B0E02FF09004AFE03EF07C007D8F
:106480000A1219B022126ECC9005D1E0FD7C0012E8
:106490001648AF059004A4EFF0700204F09004A435
:1064A000E0FF7E009004B0E02FF09004AFE03EF0FB
:1064B0007C007D0A1219B022126EF19006F9EFF0FD
:1064C000126D901267EC126F8DEF70FA125FA212CC
:1064D0006F8DEF70FA9006F9E0FF12719312740657
:1064E000125314125E957EFF7FFF221272AFEFFBF4
:1064F0001272BAAC06AD07AF031270861272BA9070
:10650000067AEEF0A3EFF01272BA900392EEF0A3C7
:10651000EFF01272AF90028EEEF0A3EFF022E0FBEC
:10652000A3E0FAA3E0F990072BEBF0A3EAF0A3E9CC
:10653000F090072B126D5CEF7002FF2290072B1278
:106540007021AE0712740CEEC39F7F0040027F01E2
:106550002290619674F8F09061AEE4F09061B274AC
:1065600015F09061FA7409F09061E574FFF0439AB8
:1065700001D2A8906164E4F0A3F0A3F0A3F0A3F02B
:10658000A3F022D39001DBE094019001DAE0648073
:106590009480501A90078574FFF0A37429F0A374B7
:1065A00047F07B017A037996121AF0125A37126E6D
:1065B00056023154126EF1900700EFF0E4FFFEFD39
:1065C000FC90049EE0F8A3E0F9A3E0FAA3E0FBC38B
:1065D0001217DD70051268C28003122C1E9007008E
:1065E000E0FF027193126EF1900700EFF0E4FFFEFE
:1065F000FDFC90049AE0F8A3E0F9A3E0FAA3E0FB25
:10660000C31217DD70051273D48003122A46900757
:1066100000E0FF027193900713EBF0A3EAF0A3E907
:10662000F0126BEBC006C007125E13D005D004ED6C
:106630006F7002EC6E6009126BEBBEFF07BFFF04C8
:106640007F0180027F0022126EF19006FEEFF09033
:1066500004ACE070079006FEE0FF80189006FEE0B4
:10666000FF127193126F79126EF19006FEEFF0E453
:106670009004ACF012719322126EF19006FEEFF0CE
:106680009004ABE070079006FEE0FF80189006FED5
:10669000E0FF127193125502126EF19006FEEFF0B8
:1066A000E49004ABF01271932290070F1219271295
:1066B0006E26C004C005C006C00790070FE0FCA30B
:1066C000E0FDA3E0FEA3E0FF900717121927D00713
:1066D000D006D005D004026C45E59E20E6037F017C
:1066E00022EF700553C67F8007EFB4010343C680D5
:1066F0009006FAE5C6F09006FBE59EF09006FAE0FB
:10670000FFA3E0B507F07F0022900739EBF0A3EA82
:10671000F0A3E9F0A3E0FBA3E0FAA3E0F912723BD7
:1067200090073CE0FBA3E0FAA3E02405F9E43AFA81
:10673000124F067F0C026798C004C005C006C00750
:10674000900717E0FCA3E0FDA3E0FEA3E0FF9007A5
:106750001F1219279007237401F0D007D006D00527
:10676000D004025B52126EF19006FBEFF0126ECC79
:10677000900012EFF0126237126E6E9000137401E7
:10678000F0E49006FCF09006FBE0FF127193A3E0AA
